{
  "abi": [
    {
      "inputs": [
        {
          "internalType": "uint256",
          "name": "timestamp",
          "type": "uint256"
        }
      ],
      "name": "getDay",
      "outputs": [
        {
          "internalType": "uint8",
          "name": "",
          "type": "uint8"
        }
      ],
      "stateMutability": "pure",
      "type": "function"
    },
    {
      "inputs": [
        {
          "internalType": "uint8",
          "name": "month",
          "type": "uint8"
        },
        {
          "internalType": "uint16",
          "name": "year",
          "type": "uint16"
        }
      ],
      "name": "getDaysInMonth",
      "outputs": [
        {
          "internalType": "uint8",
          "name": "",
          "type": "uint8"
        }
      ],
      "stateMutability": "pure",
      "type": "function"
    },
    {
      "inputs": [
        {
          "internalType": "uint256",
          "name": "timestamp",
          "type": "uint256"
        }
      ],
      "name": "getHour",
      "outputs": [
        {
          "internalType": "uint8",
          "name": "",
          "type": "uint8"
        }
      ],
      "stateMutability": "pure",
      "type": "function"
    },
    {
      "inputs": [
        {
          "internalType": "uint256",
          "name": "timestamp",
          "type": "uint256"
        }
      ],
      "name": "getMinute",
      "outputs": [
        {
          "internalType": "uint8",
          "name": "",
          "type": "uint8"
        }
      ],
      "stateMutability": "pure",
      "type": "function"
    },
    {
      "inputs": [
        {
          "internalType": "uint256",
          "name": "timestamp",
          "type": "uint256"
        }
      ],
      "name": "getMonth",
      "outputs": [
        {
          "internalType": "uint8",
          "name": "",
          "type": "uint8"
        }
      ],
      "stateMutability": "pure",
      "type": "function"
    },
    {
      "inputs": [
        {
          "internalType": "uint256",
          "name": "timestamp",
          "type": "uint256"
        }
      ],
      "name": "getSecond",
      "outputs": [
        {
          "internalType": "uint8",
          "name": "",
          "type": "uint8"
        }
      ],
      "stateMutability": "pure",
      "type": "function"
    },
    {
      "inputs": [
        {
          "internalType": "uint256",
          "name": "timestamp",
          "type": "uint256"
        }
      ],
      "name": "getWeekday",
      "outputs": [
        {
          "internalType": "uint8",
          "name": "",
          "type": "uint8"
        }
      ],
      "stateMutability": "pure",
      "type": "function"
    },
    {
      "inputs": [
        {
          "internalType": "uint256",
          "name": "timestamp",
          "type": "uint256"
        }
      ],
      "name": "getYear",
      "outputs": [
        {
          "internalType": "uint16",
          "name": "",
          "type": "uint16"
        }
      ],
      "stateMutability": "pure",
      "type": "function"
    },
    {
      "inputs": [
        {
          "internalType": "uint16",
          "name": "year",
          "type": "uint16"
        }
      ],
      "name": "isLeapYear",
      "outputs": [
        {
          "internalType": "bool",
          "name": "",
          "type": "bool"
        }
      ],
      "stateMutability": "pure",
      "type": "function"
    },
    {
      "inputs": [
        {
          "internalType": "uint256",
          "name": "year",
          "type": "uint256"
        }
      ],
      "name": "leapYearsBefore",
      "outputs": [
        {
          "internalType": "uint256",
          "name": "",
          "type": "uint256"
        }
      ],
      "stateMutability": "pure",
      "type": "function"
    },
    {
      "inputs": [
        {
          "internalType": "uint16",
          "name": "year",
          "type": "uint16"
        },
        {
          "internalType": "uint8",
          "name": "month",
          "type": "uint8"
        },
        {
          "internalType": "uint8",
          "name": "day",
          "type": "uint8"
        },
        {
          "internalType": "uint8",
          "name": "hour",
          "type": "uint8"
        },
        {
          "internalType": "uint8",
          "name": "minute",
          "type": "uint8"
        }
      ],
      "name": "toTimestamp",
      "outputs": [
        {
          "internalType": "uint256",
          "name": "timestamp",
          "type": "uint256"
        }
      ],
      "stateMutability": "pure",
      "type": "function"
    },
    {
      "inputs": [
        {
          "internalType": "uint16",
          "name": "year",
          "type": "uint16"
        },
        {
          "internalType": "uint8",
          "name": "month",
          "type": "uint8"
        },
        {
          "internalType": "uint8",
          "name": "day",
          "type": "uint8"
        },
        {
          "internalType": "uint8",
          "name": "hour",
          "type": "uint8"
        }
      ],
      "name": "toTimestamp",
      "outputs": [
        {
          "internalType": "uint256",
          "name": "timestamp",
          "type": "uint256"
        }
      ],
      "stateMutability": "pure",
      "type": "function"
    },
    {
      "inputs": [
        {
          "internalType": "uint16",
          "name": "year",
          "type": "uint16"
        },
        {
          "internalType": "uint8",
          "name": "month",
          "type": "uint8"
        },
        {
          "internalType": "uint8",
          "name": "day",
          "type": "uint8"
        }
      ],
      "name": "toTimestamp",
      "outputs": [
        {
          "internalType": "uint256",
          "name": "timestamp",
          "type": "uint256"
        }
      ],
      "stateMutability": "pure",
      "type": "function"
    },
    {
      "inputs": [
        {
          "internalType": "uint16",
          "name": "year",
          "type": "uint16"
        },
        {
          "internalType": "uint8",
          "name": "month",
          "type": "uint8"
        },
        {
          "internalType": "uint8",
          "name": "day",
          "type": "uint8"
        },
        {
          "internalType": "uint8",
          "name": "hour",
          "type": "uint8"
        },
        {
          "internalType": "uint8",
          "name": "minute",
          "type": "uint8"
        },
        {
          "internalType": "uint8",
          "name": "second",
          "type": "uint8"
        }
      ],
      "name": "toTimestamp",
      "outputs": [
        {
          "internalType": "uint256",
          "name": "timestamp",
          "type": "uint256"
        }
      ],
      "stateMutability": "pure",
      "type": "function"
    }
  ],
  "bytecode": "608060405234801561001057600080fd5b50610ccb806100206000396000f3fe608060405234801561001057600080fd5b50600436106100ea5760003560e01c80639054bdec1161008c578063a6f0e57711610066578063a6f0e577146101e5578063b199993714610208578063b238ad0e1461021b578063fa93f8831461022e57600080fd5b80639054bdec1461019957806392d66313146101ac578063a324ad24146101d257600080fd5b806365c72840116100c857806365c728401461014d5780637f791833146101605780638aa001fc146101735780638c8d98a01461018657600080fd5b80633e239e1a146100ef5780634ac1ad781461011957806362ba96871461012c575b600080fd5b6101026100fd36600461092e565b610241565b60405160ff90911681526020015b60405180910390f35b61010261012736600461092e565b61026b565b61013f61013a36600461096f565b610287565b604051908152602001610110565b61010261015b36600461092e565b6102a2565b61013f61016e3660046109d4565b6102b7565b61010261018136600461092e565b6102d1565b61013f610194366004610a28565b6102de565b61013f6101a7366004610a6b565b6102f8565b6101bf6101ba36600461092e565b6104a9565b60405161ffff9091168152602001610110565b6101026101e036600461092e565b610599565b6101f86101f3366004610adf565b6105ae565b6040519015158152602001610110565b61013f61021636600461092e565b61060d565b610102610229366004610b01565b610652565b61010261023c36600461092e565b610719565b60006018603c6102518185610b60565b61025b9190610b60565b6102659190610b74565b92915050565b6000600761027c6201518084610b60565b61025b906004610b88565b6000610298868686868660006102f8565b9695505050505050565b60006102ad82610727565b6040015192915050565b60006102c8858585856000806102f8565b95945050505050565b6000610265603c83610b74565b60006102f084848460008060006102f8565b949350505050565b60006107b25b8761ffff168161ffff16101561035457610317816105ae565b156103315761032a6301e2850083610b88565b9150610342565b61033f6301e1338083610b88565b91505b8061034c81610ba0565b9150506102fe565b61035c61090f565b601f8152610369896105ae565b1561037a57601d6020820152610382565b601c60208201525b601f60408201819052601e606083018190526080830182905260a0830181905260c0830182905260e0830182905261010083018190526101208301829052610140830152610160820152600191505b8760ff168261ffff16101561043357806103ec600184610bd8565b61ffff16600c811061040057610400610bc2565b60200201516104159060ff1662015180610bfb565b61041f9084610b88565b92508161042b81610ba0565b9250506103d1565b61043e600188610c1a565b61044e9060ff1662015180610bfb565b6104589084610b88565b925061046960ff8716610e10610bfb565b6104739084610b88565b925061048360ff8616603c610bfb565b61048d9084610b88565b925061049c60ff851684610b88565b9998505050505050505050565b60008080806104bc6301e1338086610b60565b6104c8906107b2610b88565b91506104d56107b261060d565b6104e28361ffff1661060d565b6104ec9190610c3d565b90506104fc816301e28500610bfb565b6105069084610b88565b9250806105156107b284610bd8565b61ffff166105239190610c3d565b610531906301e13380610bfb565b61053b9084610b88565b92505b84831115610591576105546101f3600184610bd8565b1561056e576105676301e2850084610c3d565b925061057f565b61057c6301e1338084610c3d565b92505b61058a600183610bd8565b915061053e565b509392505050565b60006105a482610727565b6020015192915050565b60006105bb600483610c54565b61ffff16156105cc57506000919050565b6105d7606483610c54565b61ffff16156105e857506001919050565b6105f461019083610c54565b61ffff161561060557506000919050565b506001919050565b600061061a600183610c3d565b915061062861019083610b60565b610633606484610b60565b61063e600485610b60565b6106489190610c3d565b6102659190610b88565b60008260ff166001148061066957508260ff166003145b8061067757508260ff166005145b8061068557508260ff166007145b8061069357508260ff166008145b806106a157508260ff16600a145b806106af57508260ff16600c145b156106bc5750601f610265565b8260ff16600414806106d157508260ff166006145b806106df57508260ff166009145b806106ed57508260ff16600b145b156106fa5750601e610265565b610703826105ae565b156107105750601d610265565b50601c92915050565b6000603c61025b8184610b60565b6040805160e081018252600080825260208201819052918101829052606081018290526080810182905260a0810182905260c0810182905290808061076b856104a9565b61ffff16845261077c6107b261060d565b845161078b9061ffff1661060d565b6107959190610c3d565b91506107a5826301e28500610bfb565b6107af9084610b88565b9250816107b285600001516107c49190610bd8565b61ffff166107d29190610c3d565b6107e0906301e13380610bfb565b6107ea9084610b88565b92506000600191505b600c8260ff161161085b5761080c828660000151610652565b61081c9060ff1662015180610bfb565b9050856108298583610b88565b111561083d5760ff8216602086015261085b565b6108478185610b88565b93508161085381610c75565b9250506107f3565b600191505b61087285602001518660000151610652565b60ff168260ff16116108c1578561088c8562015180610b88565b11156108a05760ff821660408601526108c1565b6108ad6201518085610b88565b9350816108b981610c75565b925050610860565b6108ca86610241565b60ff1660608601526108db86610719565b60ff1660808601526108ec866102d1565b60ff1660a08601526108fd8661026b565b60ff1660c08601525092949350505050565b604051806101800160405280600c906020820280368337509192915050565b60006020828403121561094057600080fd5b5035919050565b803561ffff8116811461095957600080fd5b919050565b803560ff8116811461095957600080fd5b600080600080600060a0868803121561098757600080fd5b61099086610947565b945061099e6020870161095e565b93506109ac6040870161095e565b92506109ba6060870161095e565b91506109c86080870161095e565b90509295509295909350565b600080600080608085870312156109ea57600080fd5b6109f385610947565b9350610a016020860161095e565b9250610a0f6040860161095e565b9150610a1d6060860161095e565b905092959194509250565b600080600060608486031215610a3d57600080fd5b610a4684610947565b9250610a546020850161095e565b9150610a626040850161095e565b90509250925092565b60008060008060008060c08789031215610a8457600080fd5b610a8d87610947565b9550610a9b6020880161095e565b9450610aa96040880161095e565b9350610ab76060880161095e565b9250610ac56080880161095e565b9150610ad360a0880161095e565b90509295509295509295565b600060208284031215610af157600080fd5b610afa82610947565b9392505050565b60008060408385031215610b1457600080fd5b610b1d8361095e565b9150610b2b60208401610947565b90509250929050565b634e487b7160e01b600052601260045260246000fd5b634e487b7160e01b600052601160045260246000fd5b600082610b6f57610b6f610b34565b500490565b600082610b8357610b83610b34565b500690565b60008219821115610b9b57610b9b610b4a565b500190565b600061ffff80831681811415610bb857610bb8610b4a565b6001019392505050565b634e487b7160e01b600052603260045260246000fd5b600061ffff83811690831681811015610bf357610bf3610b4a565b039392505050565b6000816000190483118215151615610c1557610c15610b4a565b500290565b600060ff821660ff841680821015610c3457610c34610b4a565b90039392505050565b600082821015610c4f57610c4f610b4a565b500390565b600061ffff80841680610c6957610c69610b34565b92169190910692915050565b600060ff821660ff811415610c8c57610c8c610b4a565b6001019291505056fea264697066735822122052c1add92273e5d9c30bf4f8ea5a30aa259001b440f3aa900a33b3bca8df4f6964736f6c63430008090033",
  "bytecodeSha1": "40942ed57763f2b6905bd6b9459a892cfd69327b",
  "compiler": {
    "evm_version": "istanbul",
    "optimizer": {
      "enabled": true,
      "runs": 200
    },
    "version": "0.8.9+commit.e5eed63a"
  },
  "contractName": "DateTime",
  "language": "Solidity",
  "natspec": {
    "kind": "dev",
    "methods": {},
    "version": 1
  },
  "opcodes": "PUSH1 0x80 PUSH1 0x40 MSTORE CALLVALUE DUP1 ISZERO PUSH2 0x10 JUMPI PUSH1 0x0 DUP1 REVERT JUMPDEST POP PUSH1 0x4 CALLDATASIZE LT PUSH2 0xEA JUMPI PUSH1 0x0 CALLDATALOAD PUSH1 0xE0 SHR DUP1 PUSH4 0x9054BDEC GT PUSH2 0x8C JUMPI DUP1 PUSH4 0xA6F0E577 GT PUSH2 0x66 JUMPI DUP1 PUSH4 0xA6F0E577 EQ PUSH2 0x1E5 JUMPI DUP1 PUSH4 0xB1999937 EQ PUSH2 0x208 JUMPI DUP1 PUSH4 0xB238AD0E EQ PUSH2 0x21B JUMPI DUP1 PUSH4 0xFA93F883 EQ PUSH2 0x22E JUMPI PUSH1 0x0 DUP1 REVERT JUMPDEST DUP1 PUSH4 0x9054BDEC EQ PUSH2 0x199 JUMPI DUP1 PUSH4 0x92D66313 EQ PUSH2 0x1AC JUMPI DUP1 PUSH4 0xA324AD24 EQ PUSH2 0x1D2 JUMPI PUSH1 0x0 DUP1 REVERT JUMPDEST DUP1 PUSH4 0x65C72840 GT PUSH2 0xC8 JUMPI DUP1 PUSH4 0x65C72840 EQ PUSH2 0x14D JUMPI DUP1 PUSH4 0x7F791833 EQ PUSH2 0x160 JUMPI DUP1 PUSH4 0x8AA001FC EQ PUSH2 0x173 JUMPI DUP1 PUSH4 0x8C8D98A0 EQ PUSH2 0x186 JUMPI PUSH1 0x0 DUP1 REVERT JUMPDEST DUP1 PUSH4 0x3E239E1A EQ PUSH2 0xEF JUMPI DUP1 PUSH4 0x4AC1AD78 EQ PUSH2 0x119 JUMPI DUP1 PUSH4 0x62BA9687 EQ PUSH2 0x12C JUMPI JUMPDEST PUSH1 0x0 DUP1 REVERT JUMPDEST PUSH2 0x102 PUSH2 0xFD CALLDATASIZE PUSH1 0x4 PUSH2 0x92E JUMP JUMPDEST PUSH2 0x241 JUMP JUMPDEST PUSH1 0x40 MLOAD PUSH1 0xFF SWAP1 SWAP2 AND DUP2 MSTORE PUSH1 0x20 ADD JUMPDEST PUSH1 0x40 MLOAD DUP1 SWAP2 SUB SWAP1 RETURN JUMPDEST PUSH2 0x102 PUSH2 0x127 CALLDATASIZE PUSH1 0x4 PUSH2 0x92E JUMP JUMPDEST PUSH2 0x26B JUMP JUMPDEST PUSH2 0x13F PUSH2 0x13A CALLDATASIZE PUSH1 0x4 PUSH2 0x96F JUMP JUMPDEST PUSH2 0x287 JUMP JUMPDEST PUSH1 0x40 MLOAD SWAP1 DUP2 MSTORE PUSH1 0x20 ADD PUSH2 0x110 JUMP JUMPDEST PUSH2 0x102 PUSH2 0x15B CALLDATASIZE PUSH1 0x4 PUSH2 0x92E JUMP JUMPDEST PUSH2 0x2A2 JUMP JUMPDEST PUSH2 0x13F PUSH2 0x16E CALLDATASIZE PUSH1 0x4 PUSH2 0x9D4 JUMP JUMPDEST PUSH2 0x2B7 JUMP JUMPDEST PUSH2 0x102 PUSH2 0x181 CALLDATASIZE PUSH1 0x4 PUSH2 0x92E JUMP JUMPDEST PUSH2 0x2D1 JUMP JUMPDEST PUSH2 0x13F PUSH2 0x194 CALLDATASIZE PUSH1 0x4 PUSH2 0xA28 JUMP JUMPDEST PUSH2 0x2DE JUMP JUMPDEST PUSH2 0x13F PUSH2 0x1A7 CALLDATASIZE PUSH1 0x4 PUSH2 0xA6B JUMP JUMPDEST PUSH2 0x2F8 JUMP JUMPDEST PUSH2 0x1BF PUSH2 0x1BA CALLDATASIZE PUSH1 0x4 PUSH2 0x92E JUMP JUMPDEST PUSH2 0x4A9 JUMP JUMPDEST PUSH1 0x40 MLOAD PUSH2 0xFFFF SWAP1 SWAP2 AND DUP2 MSTORE PUSH1 0x20 ADD PUSH2 0x110 JUMP JUMPDEST PUSH2 0x102 PUSH2 0x1E0 CALLDATASIZE PUSH1 0x4 PUSH2 0x92E JUMP JUMPDEST PUSH2 0x599 JUMP JUMPDEST PUSH2 0x1F8 PUSH2 0x1F3 CALLDATASIZE PUSH1 0x4 PUSH2 0xADF JUMP JUMPDEST PUSH2 0x5AE JUMP JUMPDEST PUSH1 0x40 MLOAD SWAP1 ISZERO ISZERO DUP2 MSTORE PUSH1 0x20 ADD PUSH2 0x110 JUMP JUMPDEST PUSH2 0x13F PUSH2 0x216 CALLDATASIZE PUSH1 0x4 PUSH2 0x92E JUMP JUMPDEST PUSH2 0x60D JUMP JUMPDEST PUSH2 0x102 PUSH2 0x229 CALLDATASIZE PUSH1 0x4 PUSH2 0xB01 JUMP JUMPDEST PUSH2 0x652 JUMP JUMPDEST PUSH2 0x102 PUSH2 0x23C CALLDATASIZE PUSH1 0x4 PUSH2 0x92E JUMP JUMPDEST PUSH2 0x719 JUMP JUMPDEST PUSH1 0x0 PUSH1 0x18 PUSH1 0x3C PUSH2 0x251 DUP2 DUP6 PUSH2 0xB60 JUMP JUMPDEST PUSH2 0x25B SWAP2 SWAP1 PUSH2 0xB60 JUMP JUMPDEST PUSH2 0x265 SWAP2 SWAP1 PUSH2 0xB74 JUMP JUMPDEST SWAP3 SWAP2 POP POP JUMP JUMPDEST PUSH1 0x0 PUSH1 0x7 PUSH2 0x27C PUSH3 0x15180 DUP5 PUSH2 0xB60 JUMP JUMPDEST PUSH2 0x25B SWAP1 PUSH1 0x4 PUSH2 0xB88 JUMP JUMPDEST PUSH1 0x0 PUSH2 0x298 DUP7 DUP7 DUP7 DUP7 DUP7 PUSH1 0x0 PUSH2 0x2F8 JUMP JUMPDEST SWAP7 SWAP6 POP POP POP POP POP POP JUMP JUMPDEST PUSH1 0x0 PUSH2 0x2AD DUP3 PUSH2 0x727 JUMP JUMPDEST PUSH1 0x40 ADD MLOAD SWAP3 SWAP2 POP POP JUMP JUMPDEST PUSH1 0x0 PUSH2 0x2C8 DUP6 DUP6 DUP6 DUP6 PUSH1 0x0 DUP1 PUSH2 0x2F8 JUMP JUMPDEST SWAP6 SWAP5 POP POP POP POP POP JUMP JUMPDEST PUSH1 0x0 PUSH2 0x265 PUSH1 0x3C DUP4 PUSH2 0xB74 JUMP JUMPDEST PUSH1 0x0 PUSH2 0x2F0 DUP5 DUP5 DUP5 PUSH1 0x0 DUP1 PUSH1 0x0 PUSH2 0x2F8 JUMP JUMPDEST SWAP5 SWAP4 POP POP POP POP JUMP JUMPDEST PUSH1 0x0 PUSH2 0x7B2 JUMPDEST DUP8 PUSH2 0xFFFF AND DUP2 PUSH2 0xFFFF AND LT ISZERO PUSH2 0x354 JUMPI PUSH2 0x317 DUP2 PUSH2 0x5AE JUMP JUMPDEST ISZERO PUSH2 0x331 JUMPI PUSH2 0x32A PUSH4 0x1E28500 DUP4 PUSH2 0xB88 JUMP JUMPDEST SWAP2 POP PUSH2 0x342 JUMP JUMPDEST PUSH2 0x33F PUSH4 0x1E13380 DUP4 PUSH2 0xB88 JUMP JUMPDEST SWAP2 POP JUMPDEST DUP1 PUSH2 0x34C DUP2 PUSH2 0xBA0 JUMP JUMPDEST SWAP2 POP POP PUSH2 0x2FE JUMP JUMPDEST PUSH2 0x35C PUSH2 0x90F JUMP JUMPDEST PUSH1 0x1F DUP2 MSTORE PUSH2 0x369 DUP10 PUSH2 0x5AE JUMP JUMPDEST ISZERO PUSH2 0x37A JUMPI PUSH1 0x1D PUSH1 0x20 DUP3 ADD MSTORE PUSH2 0x382 JUMP JUMPDEST PUSH1 0x1C PUSH1 0x20 DUP3 ADD MSTORE JUMPDEST PUSH1 0x1F PUSH1 0x40 DUP3 ADD DUP2 SWAP1 MSTORE PUSH1 0x1E PUSH1 0x60 DUP4 ADD DUP2 SWAP1 MSTORE PUSH1 0x80 DUP4 ADD DUP3 SWAP1 MSTORE PUSH1 0xA0 DUP4 ADD DUP2 SWAP1 MSTORE PUSH1 0xC0 DUP4 ADD DUP3 SWAP1 MSTORE PUSH1 0xE0 DUP4 ADD DUP3 SWAP1 MSTORE PUSH2 0x100 DUP4 ADD DUP2 SWAP1 MSTORE PUSH2 0x120 DUP4 ADD DUP3 SWAP1 MSTORE PUSH2 0x140 DUP4 ADD MSTORE PUSH2 0x160 DUP3 ADD MSTORE PUSH1 0x1 SWAP2 POP JUMPDEST DUP8 PUSH1 0xFF AND DUP3 PUSH2 0xFFFF AND LT ISZERO PUSH2 0x433 JUMPI DUP1 PUSH2 0x3EC PUSH1 0x1 DUP5 PUSH2 0xBD8 JUMP JUMPDEST PUSH2 0xFFFF AND PUSH1 0xC DUP2 LT PUSH2 0x400 JUMPI PUSH2 0x400 PUSH2 0xBC2 JUMP JUMPDEST PUSH1 0x20 MUL ADD MLOAD PUSH2 0x415 SWAP1 PUSH1 0xFF AND PUSH3 0x15180 PUSH2 0xBFB JUMP JUMPDEST PUSH2 0x41F SWAP1 DUP5 PUSH2 0xB88 JUMP JUMPDEST SWAP3 POP DUP2 PUSH2 0x42B DUP2 PUSH2 0xBA0 JUMP JUMPDEST SWAP3 POP POP PUSH2 0x3D1 JUMP JUMPDEST PUSH2 0x43E PUSH1 0x1 DUP9 PUSH2 0xC1A JUMP JUMPDEST PUSH2 0x44E SWAP1 PUSH1 0xFF AND PUSH3 0x15180 PUSH2 0xBFB JUMP JUMPDEST PUSH2 0x458 SWAP1 DUP5 PUSH2 0xB88 JUMP JUMPDEST SWAP3 POP PUSH2 0x469 PUSH1 0xFF DUP8 AND PUSH2 0xE10 PUSH2 0xBFB JUMP JUMPDEST PUSH2 0x473 SWAP1 DUP5 PUSH2 0xB88 JUMP JUMPDEST SWAP3 POP PUSH2 0x483 PUSH1 0xFF DUP7 AND PUSH1 0x3C PUSH2 0xBFB JUMP JUMPDEST PUSH2 0x48D SWAP1 DUP5 PUSH2 0xB88 JUMP JUMPDEST SWAP3 POP PUSH2 0x49C PUSH1 0xFF DUP6 AND DUP5 PUSH2 0xB88 JUMP JUMPDEST SWAP10 SWAP9 POP POP POP POP POP POP POP POP POP JUMP JUMPDEST PUSH1 0x0 DUP1 DUP1 DUP1 PUSH2 0x4BC PUSH4 0x1E13380 DUP7 PUSH2 0xB60 JUMP JUMPDEST PUSH2 0x4C8 SWAP1 PUSH2 0x7B2 PUSH2 0xB88 JUMP JUMPDEST SWAP2 POP PUSH2 0x4D5 PUSH2 0x7B2 PUSH2 0x60D JUMP JUMPDEST PUSH2 0x4E2 DUP4 PUSH2 0xFFFF AND PUSH2 0x60D JUMP JUMPDEST PUSH2 0x4EC SWAP2 SWAP1 PUSH2 0xC3D JUMP JUMPDEST SWAP1 POP PUSH2 0x4FC DUP2 PUSH4 0x1E28500 PUSH2 0xBFB JUMP JUMPDEST PUSH2 0x506 SWAP1 DUP5 PUSH2 0xB88 JUMP JUMPDEST SWAP3 POP DUP1 PUSH2 0x515 PUSH2 0x7B2 DUP5 PUSH2 0xBD8 JUMP JUMPDEST PUSH2 0xFFFF AND PUSH2 0x523 SWAP2 SWAP1 PUSH2 0xC3D JUMP JUMPDEST PUSH2 0x531 SWAP1 PUSH4 0x1E13380 PUSH2 0xBFB JUMP JUMPDEST PUSH2 0x53B SWAP1 DUP5 PUSH2 0xB88 JUMP JUMPDEST SWAP3 POP JUMPDEST DUP5 DUP4 GT ISZERO PUSH2 0x591 JUMPI PUSH2 0x554 PUSH2 0x1F3 PUSH1 0x1 DUP5 PUSH2 0xBD8 JUMP JUMPDEST ISZERO PUSH2 0x56E JUMPI PUSH2 0x567 PUSH4 0x1E28500 DUP5 PUSH2 0xC3D JUMP JUMPDEST SWAP3 POP PUSH2 0x57F JUMP JUMPDEST PUSH2 0x57C PUSH4 0x1E13380 DUP5 PUSH2 0xC3D JUMP JUMPDEST SWAP3 POP JUMPDEST PUSH2 0x58A PUSH1 0x1 DUP4 PUSH2 0xBD8 JUMP JUMPDEST SWAP2 POP PUSH2 0x53E JUMP JUMPDEST POP SWAP4 SWAP3 POP POP POP JUMP JUMPDEST PUSH1 0x0 PUSH2 0x5A4 DUP3 PUSH2 0x727 JUMP JUMPDEST PUSH1 0x20 ADD MLOAD SWAP3 SWAP2 POP POP JUMP JUMPDEST PUSH1 0x0 PUSH2 0x5BB PUSH1 0x4 DUP4 PUSH2 0xC54 JUMP JUMPDEST PUSH2 0xFFFF AND ISZERO PUSH2 0x5CC JUMPI POP PUSH1 0x0 SWAP2 SWAP1 POP JUMP JUMPDEST PUSH2 0x5D7 PUSH1 0x64 DUP4 PUSH2 0xC54 JUMP JUMPDEST PUSH2 0xFFFF AND ISZERO PUSH2 0x5E8 JUMPI POP PUSH1 0x1 SWAP2 SWAP1 POP JUMP JUMPDEST PUSH2 0x5F4 PUSH2 0x190 DUP4 PUSH2 0xC54 JUMP JUMPDEST PUSH2 0xFFFF AND ISZERO PUSH2 0x605 JUMPI POP PUSH1 0x0 SWAP2 SWAP1 POP JUMP JUMPDEST POP PUSH1 0x1 SWAP2 SWAP1 POP JUMP JUMPDEST PUSH1 0x0 PUSH2 0x61A PUSH1 0x1 DUP4 PUSH2 0xC3D JUMP JUMPDEST SWAP2 POP PUSH2 0x628 PUSH2 0x190 DUP4 PUSH2 0xB60 JUMP JUMPDEST PUSH2 0x633 PUSH1 0x64 DUP5 PUSH2 0xB60 JUMP JUMPDEST PUSH2 0x63E PUSH1 0x4 DUP6 PUSH2 0xB60 JUMP JUMPDEST PUSH2 0x648 SWAP2 SWAP1 PUSH2 0xC3D JUMP JUMPDEST PUSH2 0x265 SWAP2 SWAP1 PUSH2 0xB88 JUMP JUMPDEST PUSH1 0x0 DUP3 PUSH1 0xFF AND PUSH1 0x1 EQ DUP1 PUSH2 0x669 JUMPI POP DUP3 PUSH1 0xFF AND PUSH1 0x3 EQ JUMPDEST DUP1 PUSH2 0x677 JUMPI POP DUP3 PUSH1 0xFF AND PUSH1 0x5 EQ JUMPDEST DUP1 PUSH2 0x685 JUMPI POP DUP3 PUSH1 0xFF AND PUSH1 0x7 EQ JUMPDEST DUP1 PUSH2 0x693 JUMPI POP DUP3 PUSH1 0xFF AND PUSH1 0x8 EQ JUMPDEST DUP1 PUSH2 0x6A1 JUMPI POP DUP3 PUSH1 0xFF AND PUSH1 0xA EQ JUMPDEST DUP1 PUSH2 0x6AF JUMPI POP DUP3 PUSH1 0xFF AND PUSH1 0xC EQ JUMPDEST ISZERO PUSH2 0x6BC JUMPI POP PUSH1 0x1F PUSH2 0x265 JUMP JUMPDEST DUP3 PUSH1 0xFF AND PUSH1 0x4 EQ DUP1 PUSH2 0x6D1 JUMPI POP DUP3 PUSH1 0xFF AND PUSH1 0x6 EQ JUMPDEST DUP1 PUSH2 0x6DF JUMPI POP DUP3 PUSH1 0xFF AND PUSH1 0x9 EQ JUMPDEST DUP1 PUSH2 0x6ED JUMPI POP DUP3 PUSH1 0xFF AND PUSH1 0xB EQ JUMPDEST ISZERO PUSH2 0x6FA JUMPI POP PUSH1 0x1E PUSH2 0x265 JUMP JUMPDEST PUSH2 0x703 DUP3 PUSH2 0x5AE JUMP JUMPDEST ISZERO PUSH2 0x710 JUMPI POP PUSH1 0x1D PUSH2 0x265 JUMP JUMPDEST POP PUSH1 0x1C SWAP3 SWAP2 POP POP JUMP JUMPDEST PUSH1 0x0 PUSH1 0x3C PUSH2 0x25B DUP2 DUP5 PUSH2 0xB60 JUMP JUMPDEST PUSH1 0x40 DUP1 MLOAD PUSH1 0xE0 DUP2 ADD DUP3 MSTORE PUSH1 0x0 DUP1 DUP3 MSTORE PUSH1 0x20 DUP3 ADD DUP2 SWAP1 MSTORE SWAP2 DUP2 ADD DUP3 SWAP1 MSTORE PUSH1 0x60 DUP2 ADD DUP3 SWAP1 MSTORE PUSH1 0x80 DUP2 ADD DUP3 SWAP1 MSTORE PUSH1 0xA0 DUP2 ADD DUP3 SWAP1 MSTORE PUSH1 0xC0 DUP2 ADD DUP3 SWAP1 MSTORE SWAP1 DUP1 DUP1 PUSH2 0x76B DUP6 PUSH2 0x4A9 JUMP JUMPDEST PUSH2 0xFFFF AND DUP5 MSTORE PUSH2 0x77C PUSH2 0x7B2 PUSH2 0x60D JUMP JUMPDEST DUP5 MLOAD PUSH2 0x78B SWAP1 PUSH2 0xFFFF AND PUSH2 0x60D JUMP JUMPDEST PUSH2 0x795 SWAP2 SWAP1 PUSH2 0xC3D JUMP JUMPDEST SWAP2 POP PUSH2 0x7A5 DUP3 PUSH4 0x1E28500 PUSH2 0xBFB JUMP JUMPDEST PUSH2 0x7AF SWAP1 DUP5 PUSH2 0xB88 JUMP JUMPDEST SWAP3 POP DUP2 PUSH2 0x7B2 DUP6 PUSH1 0x0 ADD MLOAD PUSH2 0x7C4 SWAP2 SWAP1 PUSH2 0xBD8 JUMP JUMPDEST PUSH2 0xFFFF AND PUSH2 0x7D2 SWAP2 SWAP1 PUSH2 0xC3D JUMP JUMPDEST PUSH2 0x7E0 SWAP1 PUSH4 0x1E13380 PUSH2 0xBFB JUMP JUMPDEST PUSH2 0x7EA SWAP1 DUP5 PUSH2 0xB88 JUMP JUMPDEST SWAP3 POP PUSH1 0x0 PUSH1 0x1 SWAP2 POP JUMPDEST PUSH1 0xC DUP3 PUSH1 0xFF AND GT PUSH2 0x85B JUMPI PUSH2 0x80C DUP3 DUP7 PUSH1 0x0 ADD MLOAD PUSH2 0x652 JUMP JUMPDEST PUSH2 0x81C SWAP1 PUSH1 0xFF AND PUSH3 0x15180 PUSH2 0xBFB JUMP JUMPDEST SWAP1 POP DUP6 PUSH2 0x829 DUP6 DUP4 PUSH2 0xB88 JUMP JUMPDEST GT ISZERO PUSH2 0x83D JUMPI PUSH1 0xFF DUP3 AND PUSH1 0x20 DUP7 ADD MSTORE PUSH2 0x85B JUMP JUMPDEST PUSH2 0x847 DUP2 DUP6 PUSH2 0xB88 JUMP JUMPDEST SWAP4 POP DUP2 PUSH2 0x853 DUP2 PUSH2 0xC75 JUMP JUMPDEST SWAP3 POP POP PUSH2 0x7F3 JUMP JUMPDEST PUSH1 0x1 SWAP2 POP JUMPDEST PUSH2 0x872 DUP6 PUSH1 0x20 ADD MLOAD DUP7 PUSH1 0x0 ADD MLOAD PUSH2 0x652 JUMP JUMPDEST PUSH1 0xFF AND DUP3 PUSH1 0xFF AND GT PUSH2 0x8C1 JUMPI DUP6 PUSH2 0x88C DUP6 PUSH3 0x15180 PUSH2 0xB88 JUMP JUMPDEST GT ISZERO PUSH2 0x8A0 JUMPI PUSH1 0xFF DUP3 AND PUSH1 0x40 DUP7 ADD MSTORE PUSH2 0x8C1 JUMP JUMPDEST PUSH2 0x8AD PUSH3 0x15180 DUP6 PUSH2 0xB88 JUMP JUMPDEST SWAP4 POP DUP2 PUSH2 0x8B9 DUP2 PUSH2 0xC75 JUMP JUMPDEST SWAP3 POP POP PUSH2 0x860 JUMP JUMPDEST PUSH2 0x8CA DUP7 PUSH2 0x241 JUMP JUMPDEST PUSH1 0xFF AND PUSH1 0x60 DUP7 ADD MSTORE PUSH2 0x8DB DUP7 PUSH2 0x719 JUMP JUMPDEST PUSH1 0xFF AND PUSH1 0x80 DUP7 ADD MSTORE PUSH2 0x8EC DUP7 PUSH2 0x2D1 JUMP JUMPDEST PUSH1 0xFF AND PUSH1 0xA0 DUP7 ADD MSTORE PUSH2 0x8FD DUP7 PUSH2 0x26B JUMP JUMPDEST PUSH1 0xFF AND PUSH1 0xC0 DUP7 ADD MSTORE POP SWAP3 SWAP5 SWAP4 POP POP POP POP JUMP JUMPDEST PUSH1 0x40 MLOAD DUP1 PUSH2 0x180 ADD PUSH1 0x40 MSTORE DUP1 PUSH1 0xC SWAP1 PUSH1 0x20 DUP3 MUL DUP1 CALLDATASIZE DUP4 CALLDATACOPY POP SWAP2 SWAP3 SWAP2 POP POP JUMP JUMPDEST PUSH1 0x0 PUSH1 0x20 DUP3 DUP5 SUB SLT ISZERO PUSH2 0x940 JUMPI PUSH1 0x0 DUP1 REVERT JUMPDEST POP CALLDATALOAD SWAP2 SWAP1 POP JUMP JUMPDEST DUP1 CALLDATALOAD PUSH2 0xFFFF DUP2 AND DUP2 EQ PUSH2 0x959 JUMPI PUSH1 0x0 DUP1 REVERT JUMPDEST SWAP2 SWAP1 POP JUMP JUMPDEST DUP1 CALLDATALOAD PUSH1 0xFF DUP2 AND DUP2 EQ PUSH2 0x959 JUMPI PUSH1 0x0 DUP1 REVERT JUMPDEST PUSH1 0x0 DUP1 PUSH1 0x0 DUP1 PUSH1 0x0 PUSH1 0xA0 DUP7 DUP9 SUB SLT ISZERO PUSH2 0x987 JUMPI PUSH1 0x0 DUP1 REVERT JUMPDEST PUSH2 0x990 DUP7 PUSH2 0x947 JUMP JUMPDEST SWAP5 POP PUSH2 0x99E PUSH1 0x20 DUP8 ADD PUSH2 0x95E JUMP JUMPDEST SWAP4 POP PUSH2 0x9AC PUSH1 0x40 DUP8 ADD PUSH2 0x95E JUMP JUMPDEST SWAP3 POP PUSH2 0x9BA PUSH1 0x60 DUP8 ADD PUSH2 0x95E JUMP JUMPDEST SWAP2 POP PUSH2 0x9C8 PUSH1 0x80 DUP8 ADD PUSH2 0x95E JUMP JUMPDEST SWAP1 POP SWAP3 SWAP6 POP SWAP3 SWAP6 SWAP1 SWAP4 POP JUMP JUMPDEST PUSH1 0x0 DUP1 PUSH1 0x0 DUP1 PUSH1 0x80 DUP6 DUP8 SUB SLT ISZERO PUSH2 0x9EA JUMPI PUSH1 0x0 DUP1 REVERT JUMPDEST PUSH2 0x9F3 DUP6 PUSH2 0x947 JUMP JUMPDEST SWAP4 POP PUSH2 0xA01 PUSH1 0x20 DUP7 ADD PUSH2 0x95E JUMP JUMPDEST SWAP3 POP PUSH2 0xA0F PUSH1 0x40 DUP7 ADD PUSH2 0x95E JUMP JUMPDEST SWAP2 POP PUSH2 0xA1D PUSH1 0x60 DUP7 ADD PUSH2 0x95E JUMP JUMPDEST SWAP1 POP SWAP3 SWAP6 SWAP2 SWAP5 POP SWAP3 POP JUMP JUMPDEST PUSH1 0x0 DUP1 PUSH1 0x0 PUSH1 0x60 DUP5 DUP7 SUB SLT ISZERO PUSH2 0xA3D JUMPI PUSH1 0x0 DUP1 REVERT JUMPDEST PUSH2 0xA46 DUP5 PUSH2 0x947 JUMP JUMPDEST SWAP3 POP PUSH2 0xA54 PUSH1 0x20 DUP6 ADD PUSH2 0x95E JUMP JUMPDEST SWAP2 POP PUSH2 0xA62 PUSH1 0x40 DUP6 ADD PUSH2 0x95E JUMP JUMPDEST SWAP1 POP SWAP3 POP SWAP3 POP SWAP3 JUMP JUMPDEST PUSH1 0x0 DUP1 PUSH1 0x0 DUP1 PUSH1 0x0 DUP1 PUSH1 0xC0 DUP8 DUP10 SUB SLT ISZERO PUSH2 0xA84 JUMPI PUSH1 0x0 DUP1 REVERT JUMPDEST PUSH2 0xA8D DUP8 PUSH2 0x947 JUMP JUMPDEST SWAP6 POP PUSH2 0xA9B PUSH1 0x20 DUP9 ADD PUSH2 0x95E JUMP JUMPDEST SWAP5 POP PUSH2 0xAA9 PUSH1 0x40 DUP9 ADD PUSH2 0x95E JUMP JUMPDEST SWAP4 POP PUSH2 0xAB7 PUSH1 0x60 DUP9 ADD PUSH2 0x95E JUMP JUMPDEST SWAP3 POP PUSH2 0xAC5 PUSH1 0x80 DUP9 ADD PUSH2 0x95E JUMP JUMPDEST SWAP2 POP PUSH2 0xAD3 PUSH1 0xA0 DUP9 ADD PUSH2 0x95E JUMP JUMPDEST SWAP1 POP SWAP3 SWAP6 POP SWAP3 SWAP6 POP SWAP3 SWAP6 JUMP JUMPDEST PUSH1 0x0 PUSH1 0x20 DUP3 DUP5 SUB SLT ISZERO PUSH2 0xAF1 JUMPI PUSH1 0x0 DUP1 REVERT JUMPDEST PUSH2 0xAFA DUP3 PUSH2 0x947 JUMP JUMPDEST SWAP4 SWAP3 POP POP POP JUMP JUMPDEST PUSH1 0x0 DUP1 PUSH1 0x40 DUP4 DUP6 SUB SLT ISZERO PUSH2 0xB14 JUMPI PUSH1 0x0 DUP1 REVERT JUMPDEST PUSH2 0xB1D DUP4 PUSH2 0x95E JUMP JUMPDEST SWAP2 POP PUSH2 0xB2B PUSH1 0x20 DUP5 ADD PUSH2 0x947 JUMP JUMPDEST SWAP1 POP SWAP3 POP SWAP3 SWAP1 POP JUMP JUMPDEST PUSH4 0x4E487B71 PUSH1 0xE0 SHL PUSH1 0x0 MSTORE PUSH1 0x12 PUSH1 0x4 MSTORE PUSH1 0x24 PUSH1 0x0 REVERT JUMPDEST PUSH4 0x4E487B71 PUSH1 0xE0 SHL PUSH1 0x0 MSTORE PUSH1 0x11 PUSH1 0x4 MSTORE PUSH1 0x24 PUSH1 0x0 REVERT JUMPDEST PUSH1 0x0 DUP3 PUSH2 0xB6F JUMPI PUSH2 0xB6F PUSH2 0xB34 JUMP JUMPDEST POP DIV SWAP1 JUMP JUMPDEST PUSH1 0x0 DUP3 PUSH2 0xB83 JUMPI PUSH2 0xB83 PUSH2 0xB34 JUMP JUMPDEST POP MOD SWAP1 JUMP JUMPDEST PUSH1 0x0 DUP3 NOT DUP3 GT ISZERO PUSH2 0xB9B JUMPI PUSH2 0xB9B PUSH2 0xB4A JUMP JUMPDEST POP ADD SWAP1 JUMP JUMPDEST PUSH1 0x0 PUSH2 0xFFFF DUP1 DUP4 AND DUP2 DUP2 EQ ISZERO PUSH2 0xBB8 JUMPI PUSH2 0xBB8 PUSH2 0xB4A JUMP JUMPDEST PUSH1 0x1 ADD SWAP4 SWAP3 POP POP POP JUMP JUMPDEST PUSH4 0x4E487B71 PUSH1 0xE0 SHL PUSH1 0x0 MSTORE PUSH1 0x32 PUSH1 0x4 MSTORE PUSH1 0x24 PUSH1 0x0 REVERT JUMPDEST PUSH1 0x0 PUSH2 0xFFFF DUP4 DUP2 AND SWAP1 DUP4 AND DUP2 DUP2 LT ISZERO PUSH2 0xBF3 JUMPI PUSH2 0xBF3 PUSH2 0xB4A JUMP JUMPDEST SUB SWAP4 SWAP3 POP POP POP JUMP JUMPDEST PUSH1 0x0 DUP2 PUSH1 0x0 NOT DIV DUP4 GT DUP3 ISZERO ISZERO AND ISZERO PUSH2 0xC15 JUMPI PUSH2 0xC15 PUSH2 0xB4A JUMP JUMPDEST POP MUL SWAP1 JUMP JUMPDEST PUSH1 0x0 PUSH1 0xFF DUP3 AND PUSH1 0xFF DUP5 AND DUP1 DUP3 LT ISZERO PUSH2 0xC34 JUMPI PUSH2 0xC34 PUSH2 0xB4A JUMP JUMPDEST SWAP1 SUB SWAP4 SWAP3 POP POP POP JUMP JUMPDEST PUSH1 0x0 DUP3 DUP3 LT ISZERO PUSH2 0xC4F JUMPI PUSH2 0xC4F PUSH2 0xB4A JUMP JUMPDEST POP SUB SWAP1 JUMP JUMPDEST PUSH1 0x0 PUSH2 0xFFFF DUP1 DUP5 AND DUP1 PUSH2 0xC69 JUMPI PUSH2 0xC69 PUSH2 0xB34 JUMP JUMPDEST SWAP3 AND SWAP2 SWAP1 SWAP2 MOD SWAP3 SWAP2 POP POP JUMP JUMPDEST PUSH1 0x0 PUSH1 0xFF DUP3 AND PUSH1 0xFF DUP2 EQ ISZERO PUSH2 0xC8C JUMPI PUSH2 0xC8C PUSH2 0xB4A JUMP JUMPDEST PUSH1 0x1 ADD SWAP3 SWAP2 POP POP JUMP INVALID LOG2 PUSH5 0x6970667358 0x22 SLT KECCAK256 MSTORE 0xC1 0xAD 0xD9 0x22 PUSH20 0xE5D9C30BF4F8EA5A30AA259001B440F3AA900A33 0xB3 0xBC 0xA8 0xDF 0x4F PUSH10 0x64736F6C634300080900 CALLER ",
  "sha1": "3a841bb1ab1849afbdf7cfbac1dc7fc470e8056d",
  "source": "// SPDX-License-Identifier: MIT\npragma solidity ^0.8.4;\n\n// THis code is written by  https://github.com/craig-ludington\n// We are just using this code for our use.\ncontract DateTime {\n    /*\n     *  Date and Time utilities for ethereum contracts\n     *\n     */\n    struct _DateTime {\n        uint16 year;\n        uint8 month;\n        uint8 day;\n        uint8 hour;\n        uint8 minute;\n        uint8 second;\n        uint8 weekday;\n    }\n\n    uint256 constant DAY_IN_SECONDS = 86400;\n    uint256 constant YEAR_IN_SECONDS = 31536000;\n    uint256 constant LEAP_YEAR_IN_SECONDS = 31622400;\n\n    uint256 constant HOUR_IN_SECONDS = 3600;\n    uint256 constant MINUTE_IN_SECONDS = 60;\n\n    uint16 constant ORIGIN_YEAR = 1970;\n\n    function isLeapYear(uint16 year) public pure returns (bool) {\n        if (year % 4 != 0) {\n            return false;\n        }\n        if (year % 100 != 0) {\n            return true;\n        }\n        if (year % 400 != 0) {\n            return false;\n        }\n        return true;\n    }\n\n    function leapYearsBefore(uint256 year) public pure returns (uint256) {\n        year -= 1;\n        return year / 4 - year / 100 + year / 400;\n    }\n\n    function getDaysInMonth(uint8 month, uint16 year)\n        public\n        pure\n        returns (uint8)\n    {\n        if (\n            month == 1 ||\n            month == 3 ||\n            month == 5 ||\n            month == 7 ||\n            month == 8 ||\n            month == 10 ||\n            month == 12\n        ) {\n            return 31;\n        } else if (month == 4 || month == 6 || month == 9 || month == 11) {\n            return 30;\n        } else if (isLeapYear(year)) {\n            return 29;\n        } else {\n            return 28;\n        }\n    }\n\n    function parseTimestamp(uint256 timestamp)\n        internal\n        pure\n        returns (_DateTime memory dt)\n    {\n        uint256 secondsAccountedFor = 0;\n        uint256 buf;\n        uint8 i;\n\n        // Year\n        dt.year = getYear(timestamp);\n        buf = leapYearsBefore(dt.year) - leapYearsBefore(ORIGIN_YEAR);\n\n        secondsAccountedFor += LEAP_YEAR_IN_SECONDS * buf;\n        secondsAccountedFor += YEAR_IN_SECONDS * (dt.year - ORIGIN_YEAR - buf);\n\n        // Month\n        uint256 secondsInMonth;\n        for (i = 1; i <= 12; i++) {\n            secondsInMonth = DAY_IN_SECONDS * getDaysInMonth(i, dt.year);\n            if (secondsInMonth + secondsAccountedFor > timestamp) {\n                dt.month = i;\n                break;\n            }\n            secondsAccountedFor += secondsInMonth;\n        }\n\n        // Day\n        for (i = 1; i <= getDaysInMonth(dt.month, dt.year); i++) {\n            if (DAY_IN_SECONDS + secondsAccountedFor > timestamp) {\n                dt.day = i;\n                break;\n            }\n            secondsAccountedFor += DAY_IN_SECONDS;\n        }\n\n        // Hour\n        dt.hour = getHour(timestamp);\n\n        // Minute\n        dt.minute = getMinute(timestamp);\n\n        // Second\n        dt.second = getSecond(timestamp);\n\n        // Day of week.\n        dt.weekday = getWeekday(timestamp);\n    }\n\n    function getYear(uint256 timestamp) public pure returns (uint16) {\n        uint256 secondsAccountedFor = 0;\n        uint16 year;\n        uint256 numLeapYears;\n\n        // Year\n        year = uint16(ORIGIN_YEAR + timestamp / YEAR_IN_SECONDS);\n        numLeapYears = leapYearsBefore(year) - leapYearsBefore(ORIGIN_YEAR);\n\n        secondsAccountedFor += LEAP_YEAR_IN_SECONDS * numLeapYears;\n        secondsAccountedFor +=\n            YEAR_IN_SECONDS *\n            (year - ORIGIN_YEAR - numLeapYears);\n\n        while (secondsAccountedFor > timestamp) {\n            if (isLeapYear(uint16(year - 1))) {\n                secondsAccountedFor -= LEAP_YEAR_IN_SECONDS;\n            } else {\n                secondsAccountedFor -= YEAR_IN_SECONDS;\n            }\n            year -= 1;\n        }\n        return year;\n    }\n\n    function getMonth(uint256 timestamp) public pure returns (uint8) {\n        return parseTimestamp(timestamp).month;\n    }\n\n    function getDay(uint256 timestamp) public pure returns (uint8) {\n        return parseTimestamp(timestamp).day;\n    }\n\n    function getHour(uint256 timestamp) public pure returns (uint8) {\n        return uint8((timestamp / 60 / 60) % 24);\n    }\n\n    function getMinute(uint256 timestamp) public pure returns (uint8) {\n        return uint8((timestamp / 60) % 60);\n    }\n\n    function getSecond(uint256 timestamp) public pure returns (uint8) {\n        return uint8(timestamp % 60);\n    }\n\n    function getWeekday(uint256 timestamp) public pure returns (uint8) {\n        return uint8((timestamp / DAY_IN_SECONDS + 4) % 7);\n    }\n\n    function toTimestamp(\n        uint16 year,\n        uint8 month,\n        uint8 day\n    ) public pure returns (uint256 timestamp) {\n        return toTimestamp(year, month, day, 0, 0, 0);\n    }\n\n    function toTimestamp(\n        uint16 year,\n        uint8 month,\n        uint8 day,\n        uint8 hour\n    ) public pure returns (uint256 timestamp) {\n        return toTimestamp(year, month, day, hour, 0, 0);\n    }\n\n    function toTimestamp(\n        uint16 year,\n        uint8 month,\n        uint8 day,\n        uint8 hour,\n        uint8 minute\n    ) public pure returns (uint256 timestamp) {\n        return toTimestamp(year, month, day, hour, minute, 0);\n    }\n\n    function toTimestamp(\n        uint16 year,\n        uint8 month,\n        uint8 day,\n        uint8 hour,\n        uint8 minute,\n        uint8 second\n    ) public pure returns (uint256 timestamp) {\n        uint16 i;\n\n        // Year\n        for (i = ORIGIN_YEAR; i < year; i++) {\n            if (isLeapYear(i)) {\n                timestamp += LEAP_YEAR_IN_SECONDS;\n            } else {\n                timestamp += YEAR_IN_SECONDS;\n            }\n        }\n\n        // Month\n        uint8[12] memory monthDayCounts;\n        monthDayCounts[0] = 31;\n        if (isLeapYear(year)) {\n            monthDayCounts[1] = 29;\n        } else {\n            monthDayCounts[1] = 28;\n        }\n        monthDayCounts[2] = 31;\n        monthDayCounts[3] = 30;\n        monthDayCounts[4] = 31;\n        monthDayCounts[5] = 30;\n        monthDayCounts[6] = 31;\n        monthDayCounts[7] = 31;\n        monthDayCounts[8] = 30;\n        monthDayCounts[9] = 31;\n        monthDayCounts[10] = 30;\n        monthDayCounts[11] = 31;\n\n        for (i = 1; i < month; i++) {\n            timestamp += DAY_IN_SECONDS * monthDayCounts[i - 1];\n        }\n\n        // Day\n        timestamp += DAY_IN_SECONDS * (day - 1);\n\n        // Hour\n        timestamp += HOUR_IN_SECONDS * (hour);\n\n        // Minute\n        timestamp += MINUTE_IN_SECONDS * (minute);\n\n        // Second\n        timestamp += second;\n\n        return timestamp;\n    }\n}\n",
  "sourcePath": "contracts/DateTime.sol",
  "type": "contract"
}