{"abi":[{"inputs":[{"internalType":"address","name":"","type":"address"},{"internalType":"uint256","name":"","type":"uint256"}],"name":"clientOwnership","outputs":[{"internalType":"address","name":"","type":"address"}],"stateMutability":"view","type":"function"},{"inputs":[],"name":"expiryCheckOfAllContracts","outputs":[],"stateMutability":"nonpayable","type":"function"},{"inputs":[],"name":"getClientPolicies","outputs":[{"internalType":"address[]","name":"","type":"address[]"}],"stateMutability":"view","type":"function"},{"inputs":[],"name":"getInsurancePolicies","outputs":[{"internalType":"address[]","name":"","type":"address[]"}],"stateMutability":"view","type":"function"},{"inputs":[],"name":"getInsurerPolicies","outputs":[{"internalType":"address[]","name":"","type":"address[]"}],"stateMutability":"view","type":"function"},{"inputs":[{"internalType":"uint256","name":"","type":"uint256"}],"name":"insurancePolicies","outputs":[{"internalType":"address","name":"","type":"address"}],"stateMutability":"view","type":"function"},{"inputs":[{"internalType":"address","name":"","type":"address"},{"internalType":"uint256","name":"","type":"uint256"}],"name":"insurerOwnership","outputs":[{"internalType":"address","name":"","type":"address"}],"stateMutability":"view","type":"function"},{"inputs":[{"internalType":"address","name":"_link","type":"address"},{"internalType":"address","name":"_oracle","type":"address"},{"internalType":"uint256","name":"_amount","type":"uint256"},{"internalType":"address","name":"_client","type":"address"},{"internalType":"uint16","name":"_days","type":"uint16"},{"internalType":"string","name":"_lat","type":"string"},{"internalType":"string","name":"_lon","type":"string"}],"name":"newWindFarm","outputs":[],"stateMutability":"payable","type":"function"},{"inputs":[],"name":"updateStateOfAllContracts","outputs":[],"stateMutability":"nonpayable","type":"function"}],"bytecode":"608060405234801561001057600080fd5b50612f38806100206000396000f3fe608060405260043610620000915760003560e01c8063b6f2d6bf1162000060578063b6f2d6bf1462000121578063ca2eb4d91462000146578063dbc353fd146200016d578063e7cbeec01462000185578063f299a50314620001aa57600080fd5b806332224f6c14620000965780634c8bd81814620000b05780636f9e8d0a14620000c75780637eff07b614620000df575b600080fd5b348015620000a357600080fd5b50620000ae620001c2565b005b620000ae620000c136600462000680565b62000266565b348015620000d457600080fd5b50620000ae6200034e565b348015620000ec57600080fd5b5062000104620000fe36600462000747565b620003ef565b6040516001600160a01b0390911681526020015b60405180910390f35b3480156200012e57600080fd5b50620001046200014036600462000774565b62000428565b3480156200015357600080fd5b506200015e62000453565b6040516200011891906200078e565b3480156200017a57600080fd5b506200015e620004b7565b3480156200019257600080fd5b5062000104620001a436600462000747565b62000522565b348015620001b757600080fd5b506200015e6200053f565b60005b60005481101562000263576000808281548110620001e757620001e7620007dd565b600091825260208220015460408051631d8557d760e01b815290516001600160a01b0390921693508392631d8557d79260048084019382900301818387803b1580156200023357600080fd5b505af115801562000248573d6000803e3d6000fd5b505050505080806200025a90620007f3565b915050620001c5565b50565b60008588888888338989896040516200027f90620005aa565b620002929897969594939291906200086d565b6040518091039082f0905080158015620002b0573d6000803e3d6000fd5b5060008054600181810183557f290decd9548b62a8d60345a988386fc84ba6bc95484008f6362f93160ef3e56390910180546001600160a01b039485166001600160a01b0319918216811790925533845260208381526040808620805480870182559087528287200180548416851790559a909516845260028552988320805492830181558352929091200180549096161790945550505050505050565b60005b60005481101562000263576000808281548110620003735762000373620007dd565b60009182526020822001546040805163d0a3ffa960e01b815290516001600160a01b039092169350839263d0a3ffa99260048084019382900301818387803b158015620003bf57600080fd5b505af1158015620003d4573d6000803e3d6000fd5b50505050508080620003e690620007f3565b91505062000351565b600260205281600052604060002081815481106200040c57600080fd5b6000918252602090912001546001600160a01b03169150829050565b600081815481106200043957600080fd5b6000918252602090912001546001600160a01b0316905081565b60606000805480602002602001604051908101604052809291908181526020018280548015620004ad57602002820191906000526020600020905b81546001600160a01b031681526001909101906020018083116200048e575b5050505050905090565b33600090815260026020908152604091829020805483518184028101840190945280845260609392830182828015620004ad576020028201919060005260206000209081546001600160a01b031681526001909101906020018083116200048e575050505050905090565b600160205281600052604060002081815481106200040c57600080fd5b33600090815260016020908152604091829020805483518184028101840190945280845260609392830182828015620004ad576020028201919060005260206000209081546001600160a01b031681526001909101906020018083116200048e575050505050905090565b61262080620008e383390190565b80356001600160a01b0381168114620005d057600080fd5b919050565b634e487b7160e01b600052604160045260246000fd5b600082601f830112620005fd57600080fd5b813567ffffffffffffffff808211156200061b576200061b620005d5565b604051601f8301601f19908116603f01168101908282118183101715620006465762000646620005d5565b816040528381528660208588010111156200066057600080fd5b836020870160208301376000602085830101528094505050505092915050565b600080600080600080600060e0888a0312156200069c57600080fd5b620006a788620005b8565b9650620006b760208901620005b8565b955060408801359450620006ce60608901620005b8565b9350608088013561ffff81168114620006e657600080fd5b925060a088013567ffffffffffffffff808211156200070457600080fd5b620007128b838c01620005eb565b935060c08a01359150808211156200072957600080fd5b50620007388a828b01620005eb565b91505092959891949750929550565b600080604083850312156200075b57600080fd5b6200076683620005b8565b946020939093013593505050565b6000602082840312156200078757600080fd5b5035919050565b6020808252825182820181905260009190848201906040850190845b81811015620007d15783516001600160a01b031683529284019291840191600101620007aa565b50909695505050505050565b634e487b7160e01b600052603260045260246000fd5b60006000198214156200081657634e487b7160e01b600052601160045260246000fd5b5060010190565b6000815180845260005b81811015620008455760208185018101518683018201520162000827565b8181111562000858576000602083870101525b50601f01601f19169290920160200192915050565b6001600160a01b03898116825288811660208301526040820188905286811660608301528516608082015261ffff841660a082015261010060c08201819052600090620008bd838201866200081d565b905082810360e0840152620008d381856200081d565b9b9a505050505050505050505056fe6080604052600160045560008051602062002600833981519152600d5560405162002620380380620026208339810160408190526200003e9162000355565b85341015620000a45760405162461bcd60e51b815260206004820152602860248201527f56616c75652073656e7420646f65736e2774207265666c65637420706f6c69636044820152671e48185b5bdd5b9d60c21b606482015260840160405180910390fd5b600680546001600160a01b038087166001600160a01b0319928316179092556007805492881692909116919091179055620000e76201518061ffff85166200042f565b6008558151620000ff906009906020850190620001c5565b5080516200011590600a906020840190620001c5565b506103e8620001268760056200042f565b6200013291906200045d565b600b5542600c55600f869055600280546001600160a01b0319166001600160a01b038a16179055600380546001600160a01b0319166001600160a01b038916179055505060008051602062002600833981519152600d5567016345785d8a0000600e556010805460ff191660011790556014805461ffff90921661ffff1990921691909117905550620004bd9350505050565b828054620001d39062000480565b90600052602060002090601f016020900481019282620001f7576000855562000242565b82601f106200021257805160ff191683800117855562000242565b8280016001018555821562000242579182015b828111156200024257825182559160200191906001019062000225565b506200025092915062000254565b5090565b5b8082111562000250576000815560010162000255565b80516001600160a01b03811681146200028357600080fd5b919050565b634e487b7160e01b600052604160045260246000fd5b600082601f830112620002b057600080fd5b81516001600160401b0380821115620002cd57620002cd62000288565b604051601f8301601f19908116603f01168101908282118183101715620002f857620002f862000288565b816040528381526020925086838588010111156200031557600080fd5b600091505b838210156200033957858201830151818301840152908201906200031a565b838211156200034b5760008385830101525b9695505050505050565b600080600080600080600080610100898b0312156200037357600080fd5b6200037e896200026b565b97506200038e60208a016200026b565b965060408901519550620003a560608a016200026b565b9450620003b560808a016200026b565b935060a089015161ffff81168114620003cd57600080fd5b60c08a01519093506001600160401b0380821115620003eb57600080fd5b620003f98c838d016200029e565b935060e08b01519150808211156200041057600080fd5b506200041f8b828c016200029e565b9150509295985092959890939650565b60008160001904831182151516156200045857634e487b7160e01b600052601160045260246000fd5b500290565b6000826200047b57634e487b7160e01b600052601260045260246000fd5b500490565b600181811c908216806200049557607f821691505b60208210811415620004b757634e487b7160e01b600052602260045260246000fd5b50919050565b61213380620004cd6000396000f3fe6080604052600436106101c25760003560e01c80638619931e116100f7578063aa8c217c11610095578063dbc837c511610064578063dbc837c5146105ad578063de92b7e9146105cd578063e0a73a93146105ef578063e1762ef31461060557600080fd5b8063aa8c217c14610558578063b18b78dd1461056e578063b70dd65314610583578063d0a3ffa91461059857600080fd5b8063955de4f1116100d1578063955de4f1146104d857806396d956dd146104fa578063a58e10641461051a578063a834caca1461053d57600080fd5b80638619931e1461048c5780638997ce4e146104ad5780638dc654a2146104c357600080fd5b8063371eaced116101645780634dee73c81161013e5780634dee73c81461042957806355d576cc1461044b578063587bbc14146104605780635badbe4c1461047657600080fd5b8063371eaced146102c857806337b95e86146102e85780633e5a72581461040957600080fd5b80631ba36997116101a05780631ba36997146102525780631d8557d71461028757806329c08ba21461029e57806336252a23146102a657600080fd5b806302fb0c5e146101c75780630fb5a6b4146101f6578063109e94cf1461021a575b600080fd5b3480156101d357600080fd5b506010546101e19060ff1681565b60405190151581526020015b60405180910390f35b34801561020257600080fd5b5061020c60085481565b6040519081526020016101ed565b34801561022657600080fd5b5060075461023a906001600160a01b031681565b6040516001600160a01b0390911681526020016101ed565b34801561025e57600080fd5b5060145461027490600160601b900461ffff1681565b60405161ffff90911681526020016101ed565b34801561029357600080fd5b5061029c61061c565b005b61029c610764565b3480156102b257600080fd5b5060145461027490600160501b900461ffff1681565b3480156102d457600080fd5b5061029c6102e3366004611aef565b6107f0565b3480156102f457600080fd5b50610394610303366004611b6f565b60156020526000908152604090208054600191820154909162ffffff8083169263010000008104821692600160301b8204831692690100000000000000000083041691600160601b810490910b9061ffff600160701b8204811691600160801b81049091169060ff600160901b8204811691600160981b8104821691600160a01b8204811691600160a81b9004168c565b604080519c8d5262ffffff9b8c1660208e0152998b16998c019990995296891660608b015294909716608089015260019290920b60a088015261ffff90811660c08801521660e086015260ff9384166101008601528316610120850152821661014084015216610160820152610180016101ed565b34801561041557600080fd5b506101e1610424366004611b98565b610936565b34801561043557600080fd5b5061043e61099a565b6040516101ed9190611c1e565b34801561045757600080fd5b5061043e610a28565b34801561046c57600080fd5b5061020c60135481565b34801561048257600080fd5b5061020c60115481565b34801561049857600080fd5b506014546102749062010000900461ffff1681565b3480156104b957600080fd5b5061020c60125481565b3480156104cf57600080fd5b5061029c610a35565b3480156104e457600080fd5b5060145461027490600160401b900461ffff1681565b34801561050657600080fd5b50601454600160301b900461ffff16610274565b34801561052657600080fd5b5060145461027490640100000000900461ffff1681565b34801561054957600080fd5b506014546102749061ffff1681565b34801561056457600080fd5b5061020c600f5481565b34801561057a57600080fd5b5061023a610bf2565b34801561058f57600080fd5b5061029c610c0b565b3480156105a457600080fd5b5061029c610c7e565b3480156105b957600080fd5b5060065461023a906001600160a01b031681565b3480156105d957600080fd5b5060145461027490600160301b900461ffff1681565b3480156105fb57600080fd5b5061020c600b5481565b34801561061157600080fd5b5061020c6201518081565b6000604051806040016040528060068152602001656d657472696360d01b8152509050610761600e546009805461065290611c31565b80601f016020809104026020016040519081016040528092919081815260200182805461067e90611c31565b80156106cb5780601f106106a0576101008083540402835291602001916106cb565b820191906000526020600020905b8154815290600101906020018083116106ae57829003601f168201915b5050505050600a80546106dd90611c31565b80601f016020809104026020016040519081016040528092919081815260200182805461070990611c31565b80156107565780601f1061072b57610100808354040283529160200191610756565b820191906000526020600020905b81548152906001019060200180831161073957829003601f168201915b505050505084610cb8565b50565b600b5434146107ba5760405162461bcd60e51b815260206004820152601e60248201527f4d7573742073656e64206578616374207072656d69756d20616d6f756e74000060448201526064015b60405180910390fd5b60148054600191906000906107d490849061ffff16611c7c565b92506101000a81548161ffff021916908361ffff160217905550565b60008481526005602052604090205484906001600160a01b031633146108695760405162461bcd60e51b815260206004820152602860248201527f536f75726365206d75737420626520746865206f7261636c65206f6620746865604482015267081c995c5d595cdd60c21b60648201526084016107b1565b60008181526005602052604080822080546001600160a01b03191690555182917f7cc135e0cebb02c3480ae5d74d377283180a2601f8f644edf7987b009316c63a91a26108b4610bf2565b6001600160a01b0316336001600160a01b03161461091f5760405162461bcd60e51b815260206004820152602260248201527f4f6e6c79204f7261636c652063616e2063616c6c20746869732066756e63746960448201526137b760f11b60648201526084016107b1565b831561092f5761092f8583610dc2565b5050505050565b60006109428284611c9f565b61094d846064611cc5565b6109579190611d05565b6014805461ffff60601b1916600160601b61ffff9384168102919091179182905560199104909116101590506001811415610994576109946110c9565b92915050565b600a80546109a790611c31565b80601f01602080910402602001604051908101604052809291908181526020018280546109d390611c31565b8015610a205780601f106109f557610100808354040283529160200191610a20565b820191906000526020600020905b815481529060010190602001808311610a0357829003601f168201915b505050505081565b600980546109a790611c31565b6006546001600160a01b03163314610a9b5760405162461bcd60e51b815260206004820152602360248201527f4f6e6c7920696e73757265722063616e2063616c6c20746869732066756e637460448201526234b7b760e91b60648201526084016107b1565b6000610aaf6002546001600160a01b031690565b6040516370a0823160e01b81523060048201529091506001600160a01b0382169063a9059cbb90339083906370a082319060240160206040518083038186803b158015610afb57600080fd5b505afa158015610b0f573d6000803e3d6000fd5b505050506040513d601f19601f82011682018060405250810190610b339190611d26565b6040516001600160e01b031960e085901b1681526001600160a01b0390921660048301526024820152604401602060405180830381600087803b158015610b7957600080fd5b505af1158015610b8d573d6000803e3d6000fd5b505050506040513d601f19601f82011682018060405250810190610bb19190611d3f565b6107615760405162461bcd60e51b81526020600482015260126024820152712ab730b13632903a37903a3930b739b332b960711b60448201526064016107b1565b6000610c066003546001600160a01b031690565b905090565b601454600854600c5461ffff80841693429392916201000090910416805b8015610c7657610c398385611d5c565b85118015610c575750610c508161ffff8416611d74565b8661ffff16115b15610c6457610c64611164565b80610c6e81611d8b565b915050610c29565b505050505050565b600854600c54610c8e9190611d5c565b421015610cae57604051632777fb1560e11b815260040160405180910390fd5b610cb661119d565b565b6000610cce600d543063371eaced60e01b6112fe565b9050610d3a60405180604001604052806008815260200167195b991c1bda5b9d60c21b8152506040518060400160405280601b81526020017f6c6f636174696f6e2d63757272656e742d636f6e646974696f6e730000000000815250836113239092919063ffffffff16565b6040805180820190915260038152621b185d60ea1b6020820152610d6090829086611323565b6040805180820190915260038152623637b760e91b6020820152610d8690829085611323565b604080518082019091526005815264756e69747360d81b6020820152610dae90829084611323565b610db88186611341565b6012555050505050565b600081806020019051810190610dd89190611de8565b905080601560008581526020019081526020016000206000820151816000015560208201518160010160006101000a81548162ffffff021916908362ffffff16021790555060408201518160010160036101000a81548162ffffff021916908362ffffff16021790555060608201518160010160066101000a81548162ffffff021916908362ffffff16021790555060808201518160010160096101000a81548162ffffff021916908362ffffff16021790555060a082015181600101600c6101000a81548161ffff021916908360010b61ffff16021790555060c082015181600101600e6101000a81548161ffff021916908361ffff16021790555060e08201518160010160106101000a81548161ffff021916908361ffff1602179055506101008201518160010160126101000a81548160ff021916908360ff1602179055506101208201518160010160136101000a81548160ff021916908360ff1602179055506101408201518160010160146101000a81548160ff021916908360ff1602179055506101608201518160010160156101000a81548160ff021916908360ff1602179055509050508060e00151601460066101000a81548161ffff021916908361ffff16021790555060116000815480929190610fb790611ecd565b909155505060148054640100000000900461ffff16906004610fd883611ee8565b91906101000a81548161ffff021916908361ffff1602179055505060fa601460069054906101000a900461ffff1661ffff16101561104b5760148054600160501b900461ffff1690600a61102b83611ee8565b91906101000a81548161ffff021916908361ffff16021790555050611082565b60148054600160401b900461ffff1690600861106683611ee8565b91906101000a81548161ffff021916908361ffff160217905550505b601454605f64010000000090910461ffff1611156110c4576014546110bb9061ffff600160501b8204811691600160401b900416610936565b506110c4611362565b505050565b60105460ff166110eb5760405162461bcd60e51b81526004016107b190611f0a565b601454600f54600091611109916201000090910461ffff1690611f37565b6007546040519192506001600160a01b03169082156108fc029083906000818181858888f19350505050158015611144573d6000803e3d6000fd5b50600c546008546111559190611d5c565b4211156107615761076161119d565b6006546040516001600160a01b03909116904780156108fc02916000818181858888f19350505050158015610761573d6000803e3d6000fd5b60105460ff166111bf5760405162461bcd60e51b81526004016107b190611f0a565b600c546008546111cf9190611d5c565b42116111da57600080fd5b600a6201518060085460186111ef9190611f4b565b6111fa906004611f4b565b6112049190611f37565b61120e9190611d74565b60115410611255576006546040516001600160a01b03909116904780156108fc02916000818181858888f1935050505015801561124f573d6000803e3d6000fd5b506112f2565b600754601454600b546001600160a01b03909216916108fc91611283916201000090910461ffff1690611f4b565b61128e906002611f4b565b6040518115909202916000818181858888f193505050501580156112b6573d6000803e3d6000fd5b506006546040516001600160a01b03909116904780156108fc02916000818181858888f193505050501580156112f0573d6000803e3d6000fd5b505b6010805460ff19169055565b6113066119d9565b61130e6119d9565b61131a8186868661139b565b95945050505050565b608083015161133290836113e1565b60808301516110c490826113e1565b60035460009061135b906001600160a01b031684846113f8565b9392505050565b60105460ff166113845760405162461bcd60e51b81526004016107b190611f0a565b601480546bffffffff0000ffff0000000019169055565b6113a36119d9565b6113b3856080015161010061148b565b50508284526001600160a01b03821660208501526001600160e01b031981166040850152835b949350505050565b6113ee82600383516114f0565b6110c48282611605565b600454600090611409816001611d5c565b600455835160408086015160808701515191516000936320214ca360e11b936114419386938493923092918a91600191602401611f6a565b60408051601f198184030181529190526020810180516001600160e01b03166001600160e01b03199093169290921790915290506114818683868461162c565b9695505050505050565b6040805180820190915260608152600060208201526114ab602083611fd2565b156114d3576114bb602083611fd2565b6114c6906020611d74565b6114d09083611d5c565b91505b506020828101829052604080518085526000815290920101905290565b60178167ffffffffffffffff161161151b576115158360e0600585901b168317611799565b50505050565b60ff8167ffffffffffffffff161161155957611542836018611fe0600586901b1617611799565b506115158367ffffffffffffffff831660016117be565b61ffff8167ffffffffffffffff161161159857611581836019611fe0600586901b1617611799565b506115158367ffffffffffffffff831660026117be565b63ffffffff8167ffffffffffffffff16116115d9576115c283601a611fe0600586901b1617611799565b506115158367ffffffffffffffff831660046117be565b6115ee83601b611fe0600586901b1617611799565b506115158367ffffffffffffffff831660086117be565b60408051808201909152606081526000602082015261135b838460000151518485516117e4565b6040516bffffffffffffffffffffffff193060601b1660208201526034810184905260009060540160408051808303601f1901815282825280516020918201206000818152600590925291812080546001600160a01b0319166001600160a01b038a1617905590925082917fb5e6e01e79f91267dc17b4e6314d5d4d03593d2ceee0fbb452b750bd70ea5af99190a2600254604051630200057560e51b81526001600160a01b0390911690634000aea0906116ef90889087908790600401611fe6565b602060405180830381600087803b15801561170957600080fd5b505af115801561171d573d6000803e3d6000fd5b505050506040513d601f19601f820116820180604052508101906117419190611d3f565b6113d95760405162461bcd60e51b815260206004820152602360248201527f756e61626c6520746f207472616e73666572416e6443616c6c20746f206f7261604482015262636c6560e81b60648201526084016107b1565b60408051808201909152606081526000602082015261135b83846000015151846118ce565b6040805180820190915260608152600060208201526113d984856000015151858561192a565b604080518082019091526060815260006020820152825182111561180757600080fd5b60208501516118168386611d5c565b11156118495761184985611839876020015187866118349190611d5c565b6119ab565b611844906002611f4b565b6119c2565b6000808651805187602083010193508088870111156118685787860182525b505050602084015b602084106118a85780518252611887602083611d5c565b9150611894602082611d5c565b90506118a1602085611d74565b9350611870565b51815160001960208690036101000a019081169019919091161790525083949350505050565b604080518082019091526060815260006020820152836020015183106119035761190384856020015160026118449190611f4b565b835180516020858301018481535080851415611920576001810182525b5093949350505050565b604080518082019091526060815260006020820152602085015161194e8584611d5c565b111561196257611962856118398685611d5c565b60006001611972846101006120f1565b61197c9190611d74565b90508551838682010185831982511617815250805184870111156119a05783860181525b509495945050505050565b6000818311156119bc575081610994565b50919050565b81516119ce838361148b565b506115158382611605565b6040805160a0810182526000808252602080830182905282840182905260608084018390528451808601909552845283015290608082015290565b801515811461076157600080fd5b634e487b7160e01b600052604160045260246000fd5b604051610180810167ffffffffffffffff81118282101715611a5c57611a5c611a22565b60405290565b600082601f830112611a7357600080fd5b813567ffffffffffffffff80821115611a8e57611a8e611a22565b604051601f8301601f19908116603f01168101908282118183101715611ab657611ab6611a22565b81604052838152866020858801011115611acf57600080fd5b836020870160208301376000602085830101528094505050505092915050565b60008060008060808587031215611b0557600080fd5b843593506020850135611b1781611a14565b9250604085013567ffffffffffffffff80821115611b3457600080fd5b611b4088838901611a62565b93506060870135915080821115611b5657600080fd5b50611b6387828801611a62565b91505092959194509250565b600060208284031215611b8157600080fd5b5035919050565b61ffff8116811461076157600080fd5b60008060408385031215611bab57600080fd5b8235611bb681611b88565b91506020830135611bc681611b88565b809150509250929050565b6000815180845260005b81811015611bf757602081850181015186830182015201611bdb565b81811115611c09576000602083870101525b50601f01601f19169290920160200192915050565b60208152600061135b6020830184611bd1565b600181811c90821680611c4557607f821691505b602082108114156119bc57634e487b7160e01b600052602260045260246000fd5b634e487b7160e01b600052601160045260246000fd5b600061ffff83811690831681811015611c9757611c97611c66565b039392505050565b600061ffff808316818516808303821115611cbc57611cbc611c66565b01949350505050565b600061ffff80831681851681830481118215151615611ce657611ce6611c66565b02949350505050565b634e487b7160e01b600052601260045260246000fd5b600061ffff80841680611d1a57611d1a611cef565b92169190910492915050565b600060208284031215611d3857600080fd5b5051919050565b600060208284031215611d5157600080fd5b815161135b81611a14565b60008219821115611d6f57611d6f611c66565b500190565b600082821015611d8657611d86611c66565b500390565b600081611d9a57611d9a611c66565b506000190190565b805162ffffff81168114611db557600080fd5b919050565b8051600181900b8114611db557600080fd5b8051611db581611b88565b805160ff81168114611db557600080fd5b60006101808284031215611dfb57600080fd5b611e03611a38565b82518152611e1360208401611da2565b6020820152611e2460408401611da2565b6040820152611e3560608401611da2565b6060820152611e4660808401611da2565b6080820152611e5760a08401611dba565b60a0820152611e6860c08401611dcc565b60c0820152611e7960e08401611dcc565b60e0820152610100611e8c818501611dd7565b90820152610120611e9e848201611dd7565b90820152610140611eb0848201611dd7565b90820152610160611ec2848201611dd7565b908201529392505050565b6000600019821415611ee157611ee1611c66565b5060010190565b600061ffff80831681811415611f0057611f00611c66565b6001019392505050565b602080825260139082015272436f6e7472616374206e6f742061637469766560681b604082015260600190565b600082611f4657611f46611cef565b500490565b6000816000190483118215151615611f6557611f65611c66565b500290565b6001600160a01b0389811682526020820189905260408201889052861660608201526001600160e01b03198516608082015260a0810184905260c0810183905261010060e08201819052600090611fc383820185611bd1565b9b9a5050505050505050505050565b600082611fe157611fe1611cef565b500690565b60018060a01b038416815282602082015260606040820152600061131a6060830184611bd1565b600181815b8085111561204857816000190482111561202e5761202e611c66565b8085161561203b57918102915b93841c9390800290612012565b509250929050565b60008261205f57506001610994565b8161206c57506000610994565b8160018114612082576002811461208c576120a8565b6001915050610994565b60ff84111561209d5761209d611c66565b50506001821b610994565b5060208310610133831016604e8410600b84101617156120cb575081810a610994565b6120d5838361200d565b80600019048211156120e9576120e9611c66565b029392505050565b600061135b838361205056fea26469706673582212207ac0eb6bb4f73e8af624d1c72c3e17f892b7486aba289046018410f3d0e913b164736f6c634300080900333763323736393836653233623462316339393064383635396263613761396430a2646970667358221220a82ade55d7dd4200f6717726855523ab0cec5b8519772b39076fe62102bc9d1d64736f6c63430008090033","bytecodeSha1":"d39d3ecd78162721764cfd740f264d19e52b9ca5","compiler":{"evm_version":"istanbul","optimizer":{"enabled":true,"runs":200},"version":"0.8.9+commit.e5eed63a"},"contractName":"DeployNewWindFarmPolicy","language":"Solidity","natspec":{"kind":"dev","methods":{},"version":1},"opcodes":"PUSH1 0x80 PUSH1 0x40 MSTORE PUSH1 0x4 CALLDATASIZE LT PUSH3 0x91 JUMPI PUSH1 0x0 CALLDATALOAD PUSH1 0xE0 SHR DUP1 PUSH4 0xB6F2D6BF GT PUSH3 0x60 JUMPI DUP1 PUSH4 0xB6F2D6BF EQ PUSH3 0x121 JUMPI DUP1 PUSH4 0xCA2EB4D9 EQ PUSH3 0x146 JUMPI DUP1 PUSH4 0xDBC353FD EQ PUSH3 0x16D JUMPI DUP1 PUSH4 0xE7CBEEC0 EQ PUSH3 0x185 JUMPI DUP1 PUSH4 0xF299A503 EQ PUSH3 0x1AA JUMPI PUSH1 0x0 DUP1 REVERT JUMPDEST DUP1 PUSH4 0x32224F6C EQ PUSH3 0x96 JUMPI DUP1 PUSH4 0x4C8BD818 EQ PUSH3 0xB0 JUMPI DUP1 PUSH4 0x6F9E8D0A EQ PUSH3 0xC7 JUMPI DUP1 PUSH4 0x7EFF07B6 EQ PUSH3 0xDF JUMPI JUMPDEST PUSH1 0x0 DUP1 REVERT JUMPDEST CALLVALUE DUP1 ISZERO PUSH3 0xA3 JUMPI PUSH1 0x0 DUP1 REVERT JUMPDEST POP PUSH3 0xAE PUSH3 0x1C2 JUMP JUMPDEST STOP JUMPDEST PUSH3 0xAE PUSH3 0xC1 CALLDATASIZE PUSH1 0x4 PUSH3 0x680 JUMP JUMPDEST PUSH3 0x266 JUMP JUMPDEST CALLVALUE DUP1 ISZERO PUSH3 0xD4 JUMPI PUSH1 0x0 DUP1 REVERT JUMPDEST POP PUSH3 0xAE PUSH3 0x34E JUMP JUMPDEST CALLVALUE DUP1 ISZERO PUSH3 0xEC JUMPI PUSH1 0x0 DUP1 REVERT JUMPDEST POP PUSH3 0x104 PUSH3 0xFE CALLDATASIZE PUSH1 0x4 PUSH3 0x747 JUMP JUMPDEST PUSH3 0x3EF JUMP JUMPDEST PUSH1 0x40 MLOAD PUSH1 0x1 PUSH1 0x1 PUSH1 0xA0 SHL SUB SWAP1 SWAP2 AND DUP2 MSTORE PUSH1 0x20 ADD JUMPDEST PUSH1 0x40 MLOAD DUP1 SWAP2 SUB SWAP1 RETURN JUMPDEST CALLVALUE DUP1 ISZERO PUSH3 0x12E JUMPI PUSH1 0x0 DUP1 REVERT JUMPDEST POP PUSH3 0x104 PUSH3 0x140 CALLDATASIZE PUSH1 0x4 PUSH3 0x774 JUMP JUMPDEST PUSH3 0x428 JUMP JUMPDEST CALLVALUE DUP1 ISZERO PUSH3 0x153 JUMPI PUSH1 0x0 DUP1 REVERT JUMPDEST POP PUSH3 0x15E PUSH3 0x453 JUMP JUMPDEST PUSH1 0x40 MLOAD PUSH3 0x118 SWAP2 SWAP1 PUSH3 0x78E JUMP JUMPDEST CALLVALUE DUP1 ISZERO PUSH3 0x17A JUMPI PUSH1 0x0 DUP1 REVERT JUMPDEST POP PUSH3 0x15E PUSH3 0x4B7 JUMP JUMPDEST CALLVALUE DUP1 ISZERO PUSH3 0x192 JUMPI PUSH1 0x0 DUP1 REVERT JUMPDEST POP PUSH3 0x104 PUSH3 0x1A4 CALLDATASIZE PUSH1 0x4 PUSH3 0x747 JUMP JUMPDEST PUSH3 0x522 JUMP JUMPDEST CALLVALUE DUP1 ISZERO PUSH3 0x1B7 JUMPI PUSH1 0x0 DUP1 REVERT JUMPDEST POP PUSH3 0x15E PUSH3 0x53F JUMP JUMPDEST PUSH1 0x0 JUMPDEST PUSH1 0x0 SLOAD DUP2 LT ISZERO PUSH3 0x263 JUMPI PUSH1 0x0 DUP1 DUP3 DUP2 SLOAD DUP2 LT PUSH3 0x1E7 JUMPI PUSH3 0x1E7 PUSH3 0x7DD JUMP JUMPDEST PUSH1 0x0 SWAP2 DUP3 MSTORE PUSH1 0x20 DUP3 KECCAK256 ADD SLOAD PUSH1 0x40 DUP1 MLOAD PUSH4 0x1D8557D7 PUSH1 0xE0 SHL DUP2 MSTORE SWAP1 MLOAD PUSH1 0x1 PUSH1 0x1 PUSH1 0xA0 SHL SUB SWAP1 SWAP3 AND SWAP4 POP DUP4 SWAP3 PUSH4 0x1D8557D7 SWAP3 PUSH1 0x4 DUP1 DUP5 ADD SWAP4 DUP3 SWAP1 SUB ADD DUP2 DUP4 DUP8 DUP1 EXTCODESIZE ISZERO DUP1 ISZERO PUSH3 0x233 JUMPI PUSH1 0x0 DUP1 REVERT JUMPDEST POP GAS CALL ISZERO DUP1 ISZERO PUSH3 0x248 JUMPI RETURNDATASIZE PUSH1 0x0 DUP1 RETURNDATACOPY RETURNDATASIZE PUSH1 0x0 REVERT JUMPDEST POP POP POP POP POP DUP1 DUP1 PUSH3 0x25A SWAP1 PUSH3 0x7F3 JUMP JUMPDEST SWAP2 POP POP PUSH3 0x1C5 JUMP JUMPDEST POP JUMP JUMPDEST PUSH1 0x0 DUP6 DUP9 DUP9 DUP9 DUP9 CALLER DUP10 DUP10 DUP10 PUSH1 0x40 MLOAD PUSH3 0x27F SWAP1 PUSH3 0x5AA JUMP JUMPDEST PUSH3 0x292 SWAP9 SWAP8 SWAP7 SWAP6 SWAP5 SWAP4 SWAP3 SWAP2 SWAP1 PUSH3 0x86D JUMP JUMPDEST PUSH1 0x40 MLOAD DUP1 SWAP2 SUB SWAP1 DUP3 CREATE SWAP1 POP DUP1 ISZERO DUP1 ISZERO PUSH3 0x2B0 JUMPI RETURNDATASIZE PUSH1 0x0 DUP1 RETURNDATACOPY RETURNDATASIZE PUSH1 0x0 REVERT JUMPDEST POP PUSH1 0x0 DUP1 SLOAD PUSH1 0x1 DUP2 DUP2 ADD DUP4 SSTORE PUSH32 0x290DECD9548B62A8D60345A988386FC84BA6BC95484008F6362F93160EF3E563 SWAP1 SWAP2 ADD DUP1 SLOAD PUSH1 0x1 PUSH1 0x1 PUSH1 0xA0 SHL SUB SWAP5 DUP6 AND PUSH1 0x1 PUSH1 0x1 PUSH1 0xA0 SHL SUB NOT SWAP2 DUP3 AND DUP2 OR SWAP1 SWAP3 SSTORE CALLER DUP5 MSTORE PUSH1 0x20 DUP4 DUP2 MSTORE PUSH1 0x40 DUP1 DUP7 KECCAK256 DUP1 SLOAD DUP1 DUP8 ADD DUP3 SSTORE SWAP1 DUP8 MSTORE DUP3 DUP8 KECCAK256 ADD DUP1 SLOAD DUP5 AND DUP6 OR SWAP1 SSTORE SWAP11 SWAP1 SWAP6 AND DUP5 MSTORE PUSH1 0x2 DUP6 MSTORE SWAP9 DUP4 KECCAK256 DUP1 SLOAD SWAP3 DUP4 ADD DUP2 SSTORE DUP4 MSTORE SWAP3 SWAP1 SWAP2 KECCAK256 ADD DUP1 SLOAD SWAP1 SWAP7 AND OR SWAP1 SWAP5 SSTORE POP POP POP POP POP POP POP JUMP JUMPDEST PUSH1 0x0 JUMPDEST PUSH1 0x0 SLOAD DUP2 LT ISZERO PUSH3 0x263 JUMPI PUSH1 0x0 DUP1 DUP3 DUP2 SLOAD DUP2 LT PUSH3 0x373 JUMPI PUSH3 0x373 PUSH3 0x7DD JUMP JUMPDEST PUSH1 0x0 SWAP2 DUP3 MSTORE PUSH1 0x20 DUP3 KECCAK256 ADD SLOAD PUSH1 0x40 DUP1 MLOAD PUSH4 0xD0A3FFA9 PUSH1 0xE0 SHL DUP2 MSTORE SWAP1 MLOAD PUSH1 0x1 PUSH1 0x1 PUSH1 0xA0 SHL SUB SWAP1 SWAP3 AND SWAP4 POP DUP4 SWAP3 PUSH4 0xD0A3FFA9 SWAP3 PUSH1 0x4 DUP1 DUP5 ADD SWAP4 DUP3 SWAP1 SUB ADD DUP2 DUP4 DUP8 DUP1 EXTCODESIZE ISZERO DUP1 ISZERO PUSH3 0x3BF JUMPI PUSH1 0x0 DUP1 REVERT JUMPDEST POP GAS CALL ISZERO DUP1 ISZERO PUSH3 0x3D4 JUMPI RETURNDATASIZE PUSH1 0x0 DUP1 RETURNDATACOPY RETURNDATASIZE PUSH1 0x0 REVERT JUMPDEST POP POP POP POP POP DUP1 DUP1 PUSH3 0x3E6 SWAP1 PUSH3 0x7F3 JUMP JUMPDEST SWAP2 POP POP PUSH3 0x351 JUMP JUMPDEST PUSH1 0x2 PUSH1 0x20 MSTORE DUP2 PUSH1 0x0 MSTORE PUSH1 0x40 PUSH1 0x0 KECCAK256 DUP2 DUP2 SLOAD DUP2 LT PUSH3 0x40C JUMPI PUSH1 0x0 DUP1 REVERT JUMPDEST PUSH1 0x0 SWAP2 DUP3 MSTORE PUSH1 0x20 SWAP1 SWAP2 KECCAK256 ADD SLOAD PUSH1 0x1 PUSH1 0x1 PUSH1 0xA0 SHL SUB AND SWAP2 POP DUP3 SWAP1 POP JUMP JUMPDEST PUSH1 0x0 DUP2 DUP2 SLOAD DUP2 LT PUSH3 0x439 JUMPI PUSH1 0x0 DUP1 REVERT JUMPDEST PUSH1 0x0 SWAP2 DUP3 MSTORE PUSH1 0x20 SWAP1 SWAP2 KECCAK256 ADD SLOAD PUSH1 0x1 PUSH1 0x1 PUSH1 0xA0 SHL SUB AND SWAP1 POP DUP2 JUMP JUMPDEST PUSH1 0x60 PUSH1 0x0 DUP1 SLOAD DUP1 PUSH1 0x20 MUL PUSH1 0x20 ADD PUSH1 0x40 MLOAD SWAP1 DUP2 ADD PUSH1 0x40 MSTORE DUP1 SWAP3 SWAP2 SWAP1 DUP2 DUP2 MSTORE PUSH1 0x20 ADD DUP3 DUP1 SLOAD DUP1 ISZERO PUSH3 0x4AD JUMPI PUSH1 0x20 MUL DUP3 ADD SWAP2 SWAP1 PUSH1 0x0 MSTORE PUSH1 0x20 PUSH1 0x0 KECCAK256 SWAP1 JUMPDEST DUP2 SLOAD PUSH1 0x1 PUSH1 0x1 PUSH1 0xA0 SHL SUB AND DUP2 MSTORE PUSH1 0x1 SWAP1 SWAP2 ADD SWAP1 PUSH1 0x20 ADD DUP1 DUP4 GT PUSH3 0x48E JUMPI JUMPDEST POP POP POP POP POP SWAP1 POP SWAP1 JUMP JUMPDEST CALLER PUSH1 0x0 SWAP1 DUP2 MSTORE PUSH1 0x2 PUSH1 0x20 SWAP1 DUP2 MSTORE PUSH1 0x40 SWAP2 DUP3 SWAP1 KECCAK256 DUP1 SLOAD DUP4 MLOAD DUP2 DUP5 MUL DUP2 ADD DUP5 ADD SWAP1 SWAP5 MSTORE DUP1 DUP5 MSTORE PUSH1 0x60 SWAP4 SWAP3 DUP4 ADD DUP3 DUP3 DUP1 ISZERO PUSH3 0x4AD JUMPI PUSH1 0x20 MUL DUP3 ADD SWAP2 SWAP1 PUSH1 0x0 MSTORE PUSH1 0x20 PUSH1 0x0 KECCAK256 SWAP1 DUP2 SLOAD PUSH1 0x1 PUSH1 0x1 PUSH1 0xA0 SHL SUB AND DUP2 MSTORE PUSH1 0x1 SWAP1 SWAP2 ADD SWAP1 PUSH1 0x20 ADD DUP1 DUP4 GT PUSH3 0x48E JUMPI POP POP POP POP POP SWAP1 POP SWAP1 JUMP JUMPDEST PUSH1 0x1 PUSH1 0x20 MSTORE DUP2 PUSH1 0x0 MSTORE PUSH1 0x40 PUSH1 0x0 KECCAK256 DUP2 DUP2 SLOAD DUP2 LT PUSH3 0x40C JUMPI PUSH1 0x0 DUP1 REVERT JUMPDEST CALLER PUSH1 0x0 SWAP1 DUP2 MSTORE PUSH1 0x1 PUSH1 0x20 SWAP1 DUP2 MSTORE PUSH1 0x40 SWAP2 DUP3 SWAP1 KECCAK256 DUP1 SLOAD DUP4 MLOAD DUP2 DUP5 MUL DUP2 ADD DUP5 ADD SWAP1 SWAP5 MSTORE DUP1 DUP5 MSTORE PUSH1 0x60 SWAP4 SWAP3 DUP4 ADD DUP3 DUP3 DUP1 ISZERO PUSH3 0x4AD JUMPI PUSH1 0x20 MUL DUP3 ADD SWAP2 SWAP1 PUSH1 0x0 MSTORE PUSH1 0x20 PUSH1 0x0 KECCAK256 SWAP1 DUP2 SLOAD PUSH1 0x1 PUSH1 0x1 PUSH1 0xA0 SHL SUB AND DUP2 MSTORE PUSH1 0x1 SWAP1 SWAP2 ADD SWAP1 PUSH1 0x20 ADD DUP1 DUP4 GT PUSH3 0x48E JUMPI POP POP POP POP POP SWAP1 POP SWAP1 JUMP JUMPDEST PUSH2 0x2620 DUP1 PUSH3 0x8E3 DUP4 CODECOPY ADD SWAP1 JUMP JUMPDEST DUP1 CALLDATALOAD PUSH1 0x1 PUSH1 0x1 PUSH1 0xA0 SHL SUB DUP2 AND DUP2 EQ PUSH3 0x5D0 JUMPI PUSH1 0x0 DUP1 REVERT JUMPDEST SWAP2 SWAP1 POP JUMP JUMPDEST PUSH4 0x4E487B71 PUSH1 0xE0 SHL PUSH1 0x0 MSTORE PUSH1 0x41 PUSH1 0x4 MSTORE PUSH1 0x24 PUSH1 0x0 REVERT JUMPDEST PUSH1 0x0 DUP3 PUSH1 0x1F DUP4 ADD SLT PUSH3 0x5FD JUMPI PUSH1 0x0 DUP1 REVERT JUMPDEST DUP2 CALLDATALOAD PUSH8 0xFFFFFFFFFFFFFFFF DUP1 DUP3 GT ISZERO PUSH3 0x61B JUMPI PUSH3 0x61B PUSH3 0x5D5 JUMP JUMPDEST PUSH1 0x40 MLOAD PUSH1 0x1F DUP4 ADD PUSH1 0x1F NOT SWAP1 DUP2 AND PUSH1 0x3F ADD AND DUP2 ADD SWAP1 DUP3 DUP3 GT DUP2 DUP4 LT OR ISZERO PUSH3 0x646 JUMPI PUSH3 0x646 PUSH3 0x5D5 JUMP JUMPDEST DUP2 PUSH1 0x40 MSTORE DUP4 DUP2 MSTORE DUP7 PUSH1 0x20 DUP6 DUP9 ADD ADD GT ISZERO PUSH3 0x660 JUMPI PUSH1 0x0 DUP1 REVERT JUMPDEST DUP4 PUSH1 0x20 DUP8 ADD PUSH1 0x20 DUP4 ADD CALLDATACOPY PUSH1 0x0 PUSH1 0x20 DUP6 DUP4 ADD ADD MSTORE DUP1 SWAP5 POP POP POP POP POP SWAP3 SWAP2 POP POP JUMP JUMPDEST PUSH1 0x0 DUP1 PUSH1 0x0 DUP1 PUSH1 0x0 DUP1 PUSH1 0x0 PUSH1 0xE0 DUP9 DUP11 SUB SLT ISZERO PUSH3 0x69C JUMPI PUSH1 0x0 DUP1 REVERT JUMPDEST PUSH3 0x6A7 DUP9 PUSH3 0x5B8 JUMP JUMPDEST SWAP7 POP PUSH3 0x6B7 PUSH1 0x20 DUP10 ADD PUSH3 0x5B8 JUMP JUMPDEST SWAP6 POP PUSH1 0x40 DUP9 ADD CALLDATALOAD SWAP5 POP PUSH3 0x6CE PUSH1 0x60 DUP10 ADD PUSH3 0x5B8 JUMP JUMPDEST SWAP4 POP PUSH1 0x80 DUP9 ADD CALLDATALOAD PUSH2 0xFFFF DUP2 AND DUP2 EQ PUSH3 0x6E6 JUMPI PUSH1 0x0 DUP1 REVERT JUMPDEST SWAP3 POP PUSH1 0xA0 DUP9 ADD CALLDATALOAD PUSH8 0xFFFFFFFFFFFFFFFF DUP1 DUP3 GT ISZERO PUSH3 0x704 JUMPI PUSH1 0x0 DUP1 REVERT JUMPDEST PUSH3 0x712 DUP12 DUP4 DUP13 ADD PUSH3 0x5EB JUMP JUMPDEST SWAP4 POP PUSH1 0xC0 DUP11 ADD CALLDATALOAD SWAP2 POP DUP1 DUP3 GT ISZERO PUSH3 0x729 JUMPI PUSH1 0x0 DUP1 REVERT JUMPDEST POP PUSH3 0x738 DUP11 DUP3 DUP12 ADD PUSH3 0x5EB JUMP JUMPDEST SWAP2 POP POP SWAP3 SWAP6 SWAP9 SWAP2 SWAP5 SWAP8 POP SWAP3 SWAP6 POP JUMP JUMPDEST PUSH1 0x0 DUP1 PUSH1 0x40 DUP4 DUP6 SUB SLT ISZERO PUSH3 0x75B JUMPI PUSH1 0x0 DUP1 REVERT JUMPDEST PUSH3 0x766 DUP4 PUSH3 0x5B8 JUMP JUMPDEST SWAP5 PUSH1 0x20 SWAP4 SWAP1 SWAP4 ADD CALLDATALOAD SWAP4 POP POP POP JUMP JUMPDEST PUSH1 0x0 PUSH1 0x20 DUP3 DUP5 SUB SLT ISZERO PUSH3 0x787 JUMPI PUSH1 0x0 DUP1 REVERT JUMPDEST POP CALLDATALOAD SWAP2 SWAP1 POP JUMP JUMPDEST PUSH1 0x20 DUP1 DUP3 MSTORE DUP3 MLOAD DUP3 DUP3 ADD DUP2 SWAP1 MSTORE PUSH1 0x0 SWAP2 SWAP1 DUP5 DUP3 ADD SWAP1 PUSH1 0x40 DUP6 ADD SWAP1 DUP5 JUMPDEST DUP2 DUP2 LT ISZERO PUSH3 0x7D1 JUMPI DUP4 MLOAD PUSH1 0x1 PUSH1 0x1 PUSH1 0xA0 SHL SUB AND DUP4 MSTORE SWAP3 DUP5 ADD SWAP3 SWAP2 DUP5 ADD SWAP2 PUSH1 0x1 ADD PUSH3 0x7AA JUMP JUMPDEST POP SWAP1 SWAP7 SWAP6 POP POP POP POP POP POP JUMP JUMPDEST PUSH4 0x4E487B71 PUSH1 0xE0 SHL PUSH1 0x0 MSTORE PUSH1 0x32 PUSH1 0x4 MSTORE PUSH1 0x24 PUSH1 0x0 REVERT JUMPDEST PUSH1 0x0 PUSH1 0x0 NOT DUP3 EQ ISZERO PUSH3 0x816 JUMPI PUSH4 0x4E487B71 PUSH1 0xE0 SHL PUSH1 0x0 MSTORE PUSH1 0x11 PUSH1 0x4 MSTORE PUSH1 0x24 PUSH1 0x0 REVERT JUMPDEST POP PUSH1 0x1 ADD SWAP1 JUMP JUMPDEST PUSH1 0x0 DUP2 MLOAD DUP1 DUP5 MSTORE PUSH1 0x0 JUMPDEST DUP2 DUP2 LT ISZERO PUSH3 0x845 JUMPI PUSH1 0x20 DUP2 DUP6 ADD DUP2 ADD MLOAD DUP7 DUP4 ADD DUP3 ADD MSTORE ADD PUSH3 0x827 JUMP JUMPDEST DUP2 DUP2 GT ISZERO PUSH3 0x858 JUMPI PUSH1 0x0 PUSH1 0x20 DUP4 DUP8 ADD ADD MSTORE JUMPDEST POP PUSH1 0x1F ADD PUSH1 0x1F NOT AND SWAP3 SWAP1 SWAP3 ADD PUSH1 0x20 ADD SWAP3 SWAP2 POP POP JUMP JUMPDEST PUSH1 0x1 PUSH1 0x1 PUSH1 0xA0 SHL SUB DUP10 DUP2 AND DUP3 MSTORE DUP9 DUP2 AND PUSH1 0x20 DUP4 ADD MSTORE PUSH1 0x40 DUP3 ADD DUP9 SWAP1 MSTORE DUP7 DUP2 AND PUSH1 0x60 DUP4 ADD MSTORE DUP6 AND PUSH1 0x80 DUP3 ADD MSTORE PUSH2 0xFFFF DUP5 AND PUSH1 0xA0 DUP3 ADD MSTORE PUSH2 0x100 PUSH1 0xC0 DUP3 ADD DUP2 SWAP1 MSTORE PUSH1 0x0 SWAP1 PUSH3 0x8BD DUP4 DUP3 ADD DUP7 PUSH3 0x81D JUMP JUMPDEST SWAP1 POP DUP3 DUP2 SUB PUSH1 0xE0 DUP5 ADD MSTORE PUSH3 0x8D3 DUP2 DUP6 PUSH3 0x81D JUMP JUMPDEST SWAP12 SWAP11 POP POP POP POP POP POP POP POP POP POP POP JUMP INVALID PUSH1 0x80 PUSH1 0x40 MSTORE PUSH1 0x1 PUSH1 0x4 SSTORE PUSH1 0x0 DUP1 MLOAD PUSH1 0x20 PUSH3 0x2600 DUP4 CODECOPY DUP2 MLOAD SWAP2 MSTORE PUSH1 0xD SSTORE PUSH1 0x40 MLOAD PUSH3 0x2620 CODESIZE SUB DUP1 PUSH3 0x2620 DUP4 CODECOPY DUP2 ADD PUSH1 0x40 DUP2 SWAP1 MSTORE PUSH3 0x3E SWAP2 PUSH3 0x355 JUMP JUMPDEST DUP6 CALLVALUE LT ISZERO PUSH3 0xA4 JUMPI PUSH1 0x40 MLOAD PUSH3 0x461BCD PUSH1 0xE5 SHL DUP2 MSTORE PUSH1 0x20 PUSH1 0x4 DUP3 ADD MSTORE PUSH1 0x28 PUSH1 0x24 DUP3 ADD MSTORE PUSH32 0x56616C75652073656E7420646F65736E2774207265666C65637420706F6C6963 PUSH1 0x44 DUP3 ADD MSTORE PUSH8 0x1E48185B5BDD5B9D PUSH1 0xC2 SHL PUSH1 0x64 DUP3 ADD MSTORE PUSH1 0x84 ADD PUSH1 0x40 MLOAD DUP1 SWAP2 SUB SWAP1 REVERT JUMPDEST PUSH1 0x6 DUP1 SLOAD PUSH1 0x1 PUSH1 0x1 PUSH1 0xA0 SHL SUB DUP1 DUP8 AND PUSH1 0x1 PUSH1 0x1 PUSH1 0xA0 SHL SUB NOT SWAP3 DUP4 AND OR SWAP1 SWAP3 SSTORE PUSH1 0x7 DUP1 SLOAD SWAP3 DUP9 AND SWAP3 SWAP1 SWAP2 AND SWAP2 SWAP1 SWAP2 OR SWAP1 SSTORE PUSH3 0xE7 PUSH3 0x15180 PUSH2 0xFFFF DUP6 AND PUSH3 0x42F JUMP JUMPDEST PUSH1 0x8 SSTORE DUP2 MLOAD PUSH3 0xFF SWAP1 PUSH1 0x9 SWAP1 PUSH1 0x20 DUP6 ADD SWAP1 PUSH3 0x1C5 JUMP JUMPDEST POP DUP1 MLOAD PUSH3 0x115 SWAP1 PUSH1 0xA SWAP1 PUSH1 0x20 DUP5 ADD SWAP1 PUSH3 0x1C5 JUMP JUMPDEST POP PUSH2 0x3E8 PUSH3 0x126 DUP8 PUSH1 0x5 PUSH3 0x42F JUMP JUMPDEST PUSH3 0x132 SWAP2 SWAP1 PUSH3 0x45D JUMP JUMPDEST PUSH1 0xB SSTORE TIMESTAMP PUSH1 0xC SSTORE PUSH1 0xF DUP7 SWAP1 SSTORE PUSH1 0x2 DUP1 SLOAD PUSH1 0x1 PUSH1 0x1 PUSH1 0xA0 SHL SUB NOT AND PUSH1 0x1 PUSH1 0x1 PUSH1 0xA0 SHL SUB DUP11 AND OR SWAP1 SSTORE PUSH1 0x3 DUP1 SLOAD PUSH1 0x1 PUSH1 0x1 PUSH1 0xA0 SHL SUB NOT AND PUSH1 0x1 PUSH1 0x1 PUSH1 0xA0 SHL SUB DUP10 AND OR SWAP1 SSTORE POP POP PUSH1 0x0 DUP1 MLOAD PUSH1 0x20 PUSH3 0x2600 DUP4 CODECOPY DUP2 MLOAD SWAP2 MSTORE PUSH1 0xD SSTORE PUSH8 0x16345785D8A0000 PUSH1 0xE SSTORE PUSH1 0x10 DUP1 SLOAD PUSH1 0xFF NOT AND PUSH1 0x1 OR SWAP1 SSTORE PUSH1 0x14 DUP1 SLOAD PUSH2 0xFFFF SWAP1 SWAP3 AND PUSH2 0xFFFF NOT SWAP1 SWAP3 AND SWAP2 SWAP1 SWAP2 OR SWAP1 SSTORE POP PUSH3 0x4BD SWAP4 POP POP POP POP JUMP JUMPDEST DUP3 DUP1 SLOAD PUSH3 0x1D3 SWAP1 PUSH3 0x480 JUMP JUMPDEST SWAP1 PUSH1 0x0 MSTORE PUSH1 0x20 PUSH1 0x0 KECCAK256 SWAP1 PUSH1 0x1F ADD PUSH1 0x20 SWAP1 DIV DUP2 ADD SWAP3 DUP3 PUSH3 0x1F7 JUMPI PUSH1 0x0 DUP6 SSTORE PUSH3 0x242 JUMP JUMPDEST DUP3 PUSH1 0x1F LT PUSH3 0x212 JUMPI DUP1 MLOAD PUSH1 0xFF NOT AND DUP4 DUP1 ADD OR DUP6 SSTORE PUSH3 0x242 JUMP JUMPDEST DUP3 DUP1 ADD PUSH1 0x1 ADD DUP6 SSTORE DUP3 ISZERO PUSH3 0x242 JUMPI SWAP2 DUP3 ADD JUMPDEST DUP3 DUP2 GT ISZERO PUSH3 0x242 JUMPI DUP3 MLOAD DUP3 SSTORE SWAP2 PUSH1 0x20 ADD SWAP2 SWAP1 PUSH1 0x1 ADD SWAP1 PUSH3 0x225 JUMP JUMPDEST POP PUSH3 0x250 SWAP3 SWAP2 POP PUSH3 0x254 JUMP JUMPDEST POP SWAP1 JUMP JUMPDEST JUMPDEST DUP1 DUP3 GT ISZERO PUSH3 0x250 JUMPI PUSH1 0x0 DUP2 SSTORE PUSH1 0x1 ADD PUSH3 0x255 JUMP JUMPDEST DUP1 MLOAD PUSH1 0x1 PUSH1 0x1 PUSH1 0xA0 SHL SUB DUP2 AND DUP2 EQ PUSH3 0x283 JUMPI PUSH1 0x0 DUP1 REVERT JUMPDEST SWAP2 SWAP1 POP JUMP JUMPDEST PUSH4 0x4E487B71 PUSH1 0xE0 SHL PUSH1 0x0 MSTORE PUSH1 0x41 PUSH1 0x4 MSTORE PUSH1 0x24 PUSH1 0x0 REVERT JUMPDEST PUSH1 0x0 DUP3 PUSH1 0x1F DUP4 ADD SLT PUSH3 0x2B0 JUMPI PUSH1 0x0 DUP1 REVERT JUMPDEST DUP2 MLOAD PUSH1 0x1 PUSH1 0x1 PUSH1 0x40 SHL SUB DUP1 DUP3 GT ISZERO PUSH3 0x2CD JUMPI PUSH3 0x2CD PUSH3 0x288 JUMP JUMPDEST PUSH1 0x40 MLOAD PUSH1 0x1F DUP4 ADD PUSH1 0x1F NOT SWAP1 DUP2 AND PUSH1 0x3F ADD AND DUP2 ADD SWAP1 DUP3 DUP3 GT DUP2 DUP4 LT OR ISZERO PUSH3 0x2F8 JUMPI PUSH3 0x2F8 PUSH3 0x288 JUMP JUMPDEST DUP2 PUSH1 0x40 MSTORE DUP4 DUP2 MSTORE PUSH1 0x20 SWAP3 POP DUP7 DUP4 DUP6 DUP9 ADD ADD GT ISZERO PUSH3 0x315 JUMPI PUSH1 0x0 DUP1 REVERT JUMPDEST PUSH1 0x0 SWAP2 POP JUMPDEST DUP4 DUP3 LT ISZERO PUSH3 0x339 JUMPI DUP6 DUP3 ADD DUP4 ADD MLOAD DUP2 DUP4 ADD DUP5 ADD MSTORE SWAP1 DUP3 ADD SWAP1 PUSH3 0x31A JUMP JUMPDEST DUP4 DUP3 GT ISZERO PUSH3 0x34B JUMPI PUSH1 0x0 DUP4 DUP6 DUP4 ADD ADD MSTORE JUMPDEST SWAP7 SWAP6 POP POP POP POP POP POP JUMP JUMPDEST PUSH1 0x0 DUP1 PUSH1 0x0 DUP1 PUSH1 0x0 DUP1 PUSH1 0x0 DUP1 PUSH2 0x100 DUP10 DUP12 SUB SLT ISZERO PUSH3 0x373 JUMPI PUSH1 0x0 DUP1 REVERT JUMPDEST PUSH3 0x37E DUP10 PUSH3 0x26B JUMP JUMPDEST SWAP8 POP PUSH3 0x38E PUSH1 0x20 DUP11 ADD PUSH3 0x26B JUMP JUMPDEST SWAP7 POP PUSH1 0x40 DUP10 ADD MLOAD SWAP6 POP PUSH3 0x3A5 PUSH1 0x60 DUP11 ADD PUSH3 0x26B JUMP JUMPDEST SWAP5 POP PUSH3 0x3B5 PUSH1 0x80 DUP11 ADD PUSH3 0x26B JUMP JUMPDEST SWAP4 POP PUSH1 0xA0 DUP10 ADD MLOAD PUSH2 0xFFFF DUP2 AND DUP2 EQ PUSH3 0x3CD JUMPI PUSH1 0x0 DUP1 REVERT JUMPDEST PUSH1 0xC0 DUP11 ADD MLOAD SWAP1 SWAP4 POP PUSH1 0x1 PUSH1 0x1 PUSH1 0x40 SHL SUB DUP1 DUP3 GT ISZERO PUSH3 0x3EB JUMPI PUSH1 0x0 DUP1 REVERT JUMPDEST PUSH3 0x3F9 DUP13 DUP4 DUP14 ADD PUSH3 0x29E JUMP JUMPDEST SWAP4 POP PUSH1 0xE0 DUP12 ADD MLOAD SWAP2 POP DUP1 DUP3 GT ISZERO PUSH3 0x410 JUMPI PUSH1 0x0 DUP1 REVERT JUMPDEST POP PUSH3 0x41F DUP12 DUP3 DUP13 ADD PUSH3 0x29E JUMP JUMPDEST SWAP2 POP POP SWAP3 SWAP6 SWAP9 POP SWAP3 SWAP6 SWAP9 SWAP1 SWAP4 SWAP7 POP JUMP JUMPDEST PUSH1 0x0 DUP2 PUSH1 0x0 NOT DIV DUP4 GT DUP3 ISZERO ISZERO AND ISZERO PUSH3 0x458 JUMPI PUSH4 0x4E487B71 PUSH1 0xE0 SHL PUSH1 0x0 MSTORE PUSH1 0x11 PUSH1 0x4 MSTORE PUSH1 0x24 PUSH1 0x0 REVERT JUMPDEST POP MUL SWAP1 JUMP JUMPDEST PUSH1 0x0 DUP3 PUSH3 0x47B JUMPI PUSH4 0x4E487B71 PUSH1 0xE0 SHL PUSH1 0x0 MSTORE PUSH1 0x12 PUSH1 0x4 MSTORE PUSH1 0x24 PUSH1 0x0 REVERT JUMPDEST POP DIV SWAP1 JUMP JUMPDEST PUSH1 0x1 DUP2 DUP2 SHR SWAP1 DUP3 AND DUP1 PUSH3 0x495 JUMPI PUSH1 0x7F DUP3 AND SWAP2 POP JUMPDEST PUSH1 0x20 DUP3 LT DUP2 EQ ISZERO PUSH3 0x4B7 JUMPI PUSH4 0x4E487B71 PUSH1 0xE0 SHL PUSH1 0x0 MSTORE PUSH1 0x22 PUSH1 0x4 MSTORE PUSH1 0x24 PUSH1 0x0 REVERT JUMPDEST POP SWAP2 SWAP1 POP JUMP JUMPDEST PUSH2 0x2133 DUP1 PUSH3 0x4CD PUSH1 0x0 CODECOPY PUSH1 0x0 RETURN INVALID PUSH1 0x80 PUSH1 0x40 MSTORE PUSH1 0x4 CALLDATASIZE LT PUSH2 0x1C2 JUMPI PUSH1 0x0 CALLDATALOAD PUSH1 0xE0 SHR DUP1 PUSH4 0x8619931E GT PUSH2 0xF7 JUMPI DUP1 PUSH4 0xAA8C217C GT PUSH2 0x95 JUMPI DUP1 PUSH4 0xDBC837C5 GT PUSH2 0x64 JUMPI DUP1 PUSH4 0xDBC837C5 EQ PUSH2 0x5AD JUMPI DUP1 PUSH4 0xDE92B7E9 EQ PUSH2 0x5CD JUMPI DUP1 PUSH4 0xE0A73A93 EQ PUSH2 0x5EF JUMPI DUP1 PUSH4 0xE1762EF3 EQ PUSH2 0x605 JUMPI PUSH1 0x0 DUP1 REVERT JUMPDEST DUP1 PUSH4 0xAA8C217C EQ PUSH2 0x558 JUMPI DUP1 PUSH4 0xB18B78DD EQ PUSH2 0x56E JUMPI DUP1 PUSH4 0xB70DD653 EQ PUSH2 0x583 JUMPI DUP1 PUSH4 0xD0A3FFA9 EQ PUSH2 0x598 JUMPI PUSH1 0x0 DUP1 REVERT JUMPDEST DUP1 PUSH4 0x955DE4F1 GT PUSH2 0xD1 JUMPI DUP1 PUSH4 0x955DE4F1 EQ PUSH2 0x4D8 JUMPI DUP1 PUSH4 0x96D956DD EQ PUSH2 0x4FA JUMPI DUP1 PUSH4 0xA58E1064 EQ PUSH2 0x51A JUMPI DUP1 PUSH4 0xA834CACA EQ PUSH2 0x53D JUMPI PUSH1 0x0 DUP1 REVERT JUMPDEST DUP1 PUSH4 0x8619931E EQ PUSH2 0x48C JUMPI DUP1 PUSH4 0x8997CE4E EQ PUSH2 0x4AD JUMPI DUP1 PUSH4 0x8DC654A2 EQ PUSH2 0x4C3 JUMPI PUSH1 0x0 DUP1 REVERT JUMPDEST DUP1 PUSH4 0x371EACED GT PUSH2 0x164 JUMPI DUP1 PUSH4 0x4DEE73C8 GT PUSH2 0x13E JUMPI DUP1 PUSH4 0x4DEE73C8 EQ PUSH2 0x429 JUMPI DUP1 PUSH4 0x55D576CC EQ PUSH2 0x44B JUMPI DUP1 PUSH4 0x587BBC14 EQ PUSH2 0x460 JUMPI DUP1 PUSH4 0x5BADBE4C EQ PUSH2 0x476 JUMPI PUSH1 0x0 DUP1 REVERT JUMPDEST DUP1 PUSH4 0x371EACED EQ PUSH2 0x2C8 JUMPI DUP1 PUSH4 0x37B95E86 EQ PUSH2 0x2E8 JUMPI DUP1 PUSH4 0x3E5A7258 EQ PUSH2 0x409 JUMPI PUSH1 0x0 DUP1 REVERT JUMPDEST DUP1 PUSH4 0x1BA36997 GT PUSH2 0x1A0 JUMPI DUP1 PUSH4 0x1BA36997 EQ PUSH2 0x252 JUMPI DUP1 PUSH4 0x1D8557D7 EQ PUSH2 0x287 JUMPI DUP1 PUSH4 0x29C08BA2 EQ PUSH2 0x29E JUMPI DUP1 PUSH4 0x36252A23 EQ PUSH2 0x2A6 JUMPI PUSH1 0x0 DUP1 REVERT JUMPDEST DUP1 PUSH4 0x2FB0C5E EQ PUSH2 0x1C7 JUMPI DUP1 PUSH4 0xFB5A6B4 EQ PUSH2 0x1F6 JUMPI DUP1 PUSH4 0x109E94CF EQ PUSH2 0x21A JUMPI JUMPDEST PUSH1 0x0 DUP1 REVERT JUMPDEST CALLVALUE DUP1 ISZERO PUSH2 0x1D3 JUMPI PUSH1 0x0 DUP1 REVERT JUMPDEST POP PUSH1 0x10 SLOAD PUSH2 0x1E1 SWAP1 PUSH1 0xFF AND DUP2 JUMP JUMPDEST PUSH1 0x40 MLOAD SWAP1 ISZERO ISZERO DUP2 MSTORE PUSH1 0x20 ADD JUMPDEST PUSH1 0x40 MLOAD DUP1 SWAP2 SUB SWAP1 RETURN JUMPDEST CALLVALUE DUP1 ISZERO PUSH2 0x202 JUMPI PUSH1 0x0 DUP1 REVERT JUMPDEST POP PUSH2 0x20C PUSH1 0x8 SLOAD DUP2 JUMP JUMPDEST PUSH1 0x40 MLOAD SWAP1 DUP2 MSTORE PUSH1 0x20 ADD PUSH2 0x1ED JUMP JUMPDEST CALLVALUE DUP1 ISZERO PUSH2 0x226 JUMPI PUSH1 0x0 DUP1 REVERT JUMPDEST POP PUSH1 0x7 SLOAD PUSH2 0x23A SWAP1 PUSH1 0x1 PUSH1 0x1 PUSH1 0xA0 SHL SUB AND DUP2 JUMP JUMPDEST PUSH1 0x40 MLOAD PUSH1 0x1 PUSH1 0x1 PUSH1 0xA0 SHL SUB SWAP1 SWAP2 AND DUP2 MSTORE PUSH1 0x20 ADD PUSH2 0x1ED JUMP JUMPDEST CALLVALUE DUP1 ISZERO PUSH2 0x25E JUMPI PUSH1 0x0 DUP1 REVERT JUMPDEST POP PUSH1 0x14 SLOAD PUSH2 0x274 SWAP1 PUSH1 0x1 PUSH1 0x60 SHL SWAP1 DIV PUSH2 0xFFFF AND DUP2 JUMP JUMPDEST PUSH1 0x40 MLOAD PUSH2 0xFFFF SWAP1 SWAP2 AND DUP2 MSTORE PUSH1 0x20 ADD PUSH2 0x1ED JUMP JUMPDEST CALLVALUE DUP1 ISZERO PUSH2 0x293 JUMPI PUSH1 0x0 DUP1 REVERT JUMPDEST POP PUSH2 0x29C PUSH2 0x61C JUMP JUMPDEST STOP JUMPDEST PUSH2 0x29C PUSH2 0x764 JUMP JUMPDEST CALLVALUE DUP1 ISZERO PUSH2 0x2B2 JUMPI PUSH1 0x0 DUP1 REVERT JUMPDEST POP PUSH1 0x14 SLOAD PUSH2 0x274 SWAP1 PUSH1 0x1 PUSH1 0x50 SHL SWAP1 DIV PUSH2 0xFFFF AND DUP2 JUMP JUMPDEST CALLVALUE DUP1 ISZERO PUSH2 0x2D4 JUMPI PUSH1 0x0 DUP1 REVERT JUMPDEST POP PUSH2 0x29C PUSH2 0x2E3 CALLDATASIZE PUSH1 0x4 PUSH2 0x1AEF JUMP JUMPDEST PUSH2 0x7F0 JUMP JUMPDEST CALLVALUE DUP1 ISZERO PUSH2 0x2F4 JUMPI PUSH1 0x0 DUP1 REVERT JUMPDEST POP PUSH2 0x394 PUSH2 0x303 CALLDATASIZE PUSH1 0x4 PUSH2 0x1B6F JUMP JUMPDEST PUSH1 0x15 PUSH1 0x20 MSTORE PUSH1 0x0 SWAP1 DUP2 MSTORE PUSH1 0x40 SWAP1 KECCAK256 DUP1 SLOAD PUSH1 0x1 SWAP2 DUP3 ADD SLOAD SWAP1 SWAP2 PUSH3 0xFFFFFF DUP1 DUP4 AND SWAP3 PUSH4 0x1000000 DUP2 DIV DUP3 AND SWAP3 PUSH1 0x1 PUSH1 0x30 SHL DUP3 DIV DUP4 AND SWAP3 PUSH10 0x1000000000000000000 DUP4 DIV AND SWAP2 PUSH1 0x1 PUSH1 0x60 SHL DUP2 DIV SWAP1 SWAP2 SIGNEXTEND SWAP1 PUSH2 0xFFFF PUSH1 0x1 PUSH1 0x70 SHL DUP3 DIV DUP2 AND SWAP2 PUSH1 0x1 PUSH1 0x80 SHL DUP2 DIV SWAP1 SWAP2 AND SWAP1 PUSH1 0xFF PUSH1 0x1 PUSH1 0x90 SHL DUP3 DIV DUP2 AND SWAP2 PUSH1 0x1 PUSH1 0x98 SHL DUP2 DIV DUP3 AND SWAP2 PUSH1 0x1 PUSH1 0xA0 SHL DUP3 DIV DUP2 AND SWAP2 PUSH1 0x1 PUSH1 0xA8 SHL SWAP1 DIV AND DUP13 JUMP JUMPDEST PUSH1 0x40 DUP1 MLOAD SWAP13 DUP14 MSTORE PUSH3 0xFFFFFF SWAP12 DUP13 AND PUSH1 0x20 DUP15 ADD MSTORE SWAP10 DUP12 AND SWAP10 DUP13 ADD SWAP10 SWAP1 SWAP10 MSTORE SWAP7 DUP10 AND PUSH1 0x60 DUP12 ADD MSTORE SWAP5 SWAP1 SWAP8 AND PUSH1 0x80 DUP10 ADD MSTORE PUSH1 0x1 SWAP3 SWAP1 SWAP3 SIGNEXTEND PUSH1 0xA0 DUP9 ADD MSTORE PUSH2 0xFFFF SWAP1 DUP2 AND PUSH1 0xC0 DUP9 ADD MSTORE AND PUSH1 0xE0 DUP7 ADD MSTORE PUSH1 0xFF SWAP4 DUP5 AND PUSH2 0x100 DUP7 ADD MSTORE DUP4 AND PUSH2 0x120 DUP6 ADD MSTORE DUP3 AND PUSH2 0x140 DUP5 ADD MSTORE AND PUSH2 0x160 DUP3 ADD MSTORE PUSH2 0x180 ADD PUSH2 0x1ED JUMP JUMPDEST CALLVALUE DUP1 ISZERO PUSH2 0x415 JUMPI PUSH1 0x0 DUP1 REVERT JUMPDEST POP PUSH2 0x1E1 PUSH2 0x424 CALLDATASIZE PUSH1 0x4 PUSH2 0x1B98 JUMP JUMPDEST PUSH2 0x936 JUMP JUMPDEST CALLVALUE DUP1 ISZERO PUSH2 0x435 JUMPI PUSH1 0x0 DUP1 REVERT JUMPDEST POP PUSH2 0x43E PUSH2 0x99A JUMP JUMPDEST PUSH1 0x40 MLOAD PUSH2 0x1ED SWAP2 SWAP1 PUSH2 0x1C1E JUMP JUMPDEST CALLVALUE DUP1 ISZERO PUSH2 0x457 JUMPI PUSH1 0x0 DUP1 REVERT JUMPDEST POP PUSH2 0x43E PUSH2 0xA28 JUMP JUMPDEST CALLVALUE DUP1 ISZERO PUSH2 0x46C JUMPI PUSH1 0x0 DUP1 REVERT JUMPDEST POP PUSH2 0x20C PUSH1 0x13 SLOAD DUP2 JUMP JUMPDEST CALLVALUE DUP1 ISZERO PUSH2 0x482 JUMPI PUSH1 0x0 DUP1 REVERT JUMPDEST POP PUSH2 0x20C PUSH1 0x11 SLOAD DUP2 JUMP JUMPDEST CALLVALUE DUP1 ISZERO PUSH2 0x498 JUMPI PUSH1 0x0 DUP1 REVERT JUMPDEST POP PUSH1 0x14 SLOAD PUSH2 0x274 SWAP1 PUSH3 0x10000 SWAP1 DIV PUSH2 0xFFFF AND DUP2 JUMP JUMPDEST CALLVALUE DUP1 ISZERO PUSH2 0x4B9 JUMPI PUSH1 0x0 DUP1 REVERT JUMPDEST POP PUSH2 0x20C PUSH1 0x12 SLOAD DUP2 JUMP JUMPDEST CALLVALUE DUP1 ISZERO PUSH2 0x4CF JUMPI PUSH1 0x0 DUP1 REVERT JUMPDEST POP PUSH2 0x29C PUSH2 0xA35 JUMP JUMPDEST CALLVALUE DUP1 ISZERO PUSH2 0x4E4 JUMPI PUSH1 0x0 DUP1 REVERT JUMPDEST POP PUSH1 0x14 SLOAD PUSH2 0x274 SWAP1 PUSH1 0x1 PUSH1 0x40 SHL SWAP1 DIV PUSH2 0xFFFF AND DUP2 JUMP JUMPDEST CALLVALUE DUP1 ISZERO PUSH2 0x506 JUMPI PUSH1 0x0 DUP1 REVERT JUMPDEST POP PUSH1 0x14 SLOAD PUSH1 0x1 PUSH1 0x30 SHL SWAP1 DIV PUSH2 0xFFFF AND PUSH2 0x274 JUMP JUMPDEST CALLVALUE DUP1 ISZERO PUSH2 0x526 JUMPI PUSH1 0x0 DUP1 REVERT JUMPDEST POP PUSH1 0x14 SLOAD PUSH2 0x274 SWAP1 PUSH5 0x100000000 SWAP1 DIV PUSH2 0xFFFF AND DUP2 JUMP JUMPDEST CALLVALUE DUP1 ISZERO PUSH2 0x549 JUMPI PUSH1 0x0 DUP1 REVERT JUMPDEST POP PUSH1 0x14 SLOAD PUSH2 0x274 SWAP1 PUSH2 0xFFFF AND DUP2 JUMP JUMPDEST CALLVALUE DUP1 ISZERO PUSH2 0x564 JUMPI PUSH1 0x0 DUP1 REVERT JUMPDEST POP PUSH2 0x20C PUSH1 0xF SLOAD DUP2 JUMP JUMPDEST CALLVALUE DUP1 ISZERO PUSH2 0x57A JUMPI PUSH1 0x0 DUP1 REVERT JUMPDEST POP PUSH2 0x23A PUSH2 0xBF2 JUMP JUMPDEST CALLVALUE DUP1 ISZERO PUSH2 0x58F JUMPI PUSH1 0x0 DUP1 REVERT JUMPDEST POP PUSH2 0x29C PUSH2 0xC0B JUMP JUMPDEST CALLVALUE DUP1 ISZERO PUSH2 0x5A4 JUMPI PUSH1 0x0 DUP1 REVERT JUMPDEST POP PUSH2 0x29C PUSH2 0xC7E JUMP JUMPDEST CALLVALUE DUP1 ISZERO PUSH2 0x5B9 JUMPI PUSH1 0x0 DUP1 REVERT JUMPDEST POP PUSH1 0x6 SLOAD PUSH2 0x23A SWAP1 PUSH1 0x1 PUSH1 0x1 PUSH1 0xA0 SHL SUB AND DUP2 JUMP JUMPDEST CALLVALUE DUP1 ISZERO PUSH2 0x5D9 JUMPI PUSH1 0x0 DUP1 REVERT JUMPDEST POP PUSH1 0x14 SLOAD PUSH2 0x274 SWAP1 PUSH1 0x1 PUSH1 0x30 SHL SWAP1 DIV PUSH2 0xFFFF AND DUP2 JUMP JUMPDEST CALLVALUE DUP1 ISZERO PUSH2 0x5FB JUMPI PUSH1 0x0 DUP1 REVERT JUMPDEST POP PUSH2 0x20C PUSH1 0xB SLOAD DUP2 JUMP JUMPDEST CALLVALUE DUP1 ISZERO PUSH2 0x611 JUMPI PUSH1 0x0 DUP1 REVERT JUMPDEST POP PUSH2 0x20C PUSH3 0x15180 DUP2 JUMP JUMPDEST PUSH1 0x0 PUSH1 0x40 MLOAD DUP1 PUSH1 0x40 ADD PUSH1 0x40 MSTORE DUP1 PUSH1 0x6 DUP2 MSTORE PUSH1 0x20 ADD PUSH6 0x6D6574726963 PUSH1 0xD0 SHL DUP2 MSTORE POP SWAP1 POP PUSH2 0x761 PUSH1 0xE SLOAD PUSH1 0x9 DUP1 SLOAD PUSH2 0x652 SWAP1 PUSH2 0x1C31 JUMP JUMPDEST DUP1 PUSH1 0x1F ADD PUSH1 0x20 DUP1 SWAP2 DIV MUL PUSH1 0x20 ADD PUSH1 0x40 MLOAD SWAP1 DUP2 ADD PUSH1 0x40 MSTORE DUP1 SWAP3 SWAP2 SWAP1 DUP2 DUP2 MSTORE PUSH1 0x20 ADD DUP3 DUP1 SLOAD PUSH2 0x67E SWAP1 PUSH2 0x1C31 JUMP JUMPDEST DUP1 ISZERO PUSH2 0x6CB JUMPI DUP1 PUSH1 0x1F LT PUSH2 0x6A0 JUMPI PUSH2 0x100 DUP1 DUP4 SLOAD DIV MUL DUP4 MSTORE SWAP2 PUSH1 0x20 ADD SWAP2 PUSH2 0x6CB JUMP JUMPDEST DUP3 ADD SWAP2 SWAP1 PUSH1 0x0 MSTORE PUSH1 0x20 PUSH1 0x0 KECCAK256 SWAP1 JUMPDEST DUP2 SLOAD DUP2 MSTORE SWAP1 PUSH1 0x1 ADD SWAP1 PUSH1 0x20 ADD DUP1 DUP4 GT PUSH2 0x6AE JUMPI DUP3 SWAP1 SUB PUSH1 0x1F AND DUP3 ADD SWAP2 JUMPDEST POP POP POP POP POP PUSH1 0xA DUP1 SLOAD PUSH2 0x6DD SWAP1 PUSH2 0x1C31 JUMP JUMPDEST DUP1 PUSH1 0x1F ADD PUSH1 0x20 DUP1 SWAP2 DIV MUL PUSH1 0x20 ADD PUSH1 0x40 MLOAD SWAP1 DUP2 ADD PUSH1 0x40 MSTORE DUP1 SWAP3 SWAP2 SWAP1 DUP2 DUP2 MSTORE PUSH1 0x20 ADD DUP3 DUP1 SLOAD PUSH2 0x709 SWAP1 PUSH2 0x1C31 JUMP JUMPDEST DUP1 ISZERO PUSH2 0x756 JUMPI DUP1 PUSH1 0x1F LT PUSH2 0x72B JUMPI PUSH2 0x100 DUP1 DUP4 SLOAD DIV MUL DUP4 MSTORE SWAP2 PUSH1 0x20 ADD SWAP2 PUSH2 0x756 JUMP JUMPDEST DUP3 ADD SWAP2 SWAP1 PUSH1 0x0 MSTORE PUSH1 0x20 PUSH1 0x0 KECCAK256 SWAP1 JUMPDEST DUP2 SLOAD DUP2 MSTORE SWAP1 PUSH1 0x1 ADD SWAP1 PUSH1 0x20 ADD DUP1 DUP4 GT PUSH2 0x739 JUMPI DUP3 SWAP1 SUB PUSH1 0x1F AND DUP3 ADD SWAP2 JUMPDEST POP POP POP POP POP DUP5 PUSH2 0xCB8 JUMP JUMPDEST POP JUMP JUMPDEST PUSH1 0xB SLOAD CALLVALUE EQ PUSH2 0x7BA JUMPI PUSH1 0x40 MLOAD PUSH3 0x461BCD PUSH1 0xE5 SHL DUP2 MSTORE PUSH1 0x20 PUSH1 0x4 DUP3 ADD MSTORE PUSH1 0x1E PUSH1 0x24 DUP3 ADD MSTORE PUSH32 0x4D7573742073656E64206578616374207072656D69756D20616D6F756E740000 PUSH1 0x44 DUP3 ADD MSTORE PUSH1 0x64 ADD JUMPDEST PUSH1 0x40 MLOAD DUP1 SWAP2 SUB SWAP1 REVERT JUMPDEST PUSH1 0x14 DUP1 SLOAD PUSH1 0x1 SWAP2 SWAP1 PUSH1 0x0 SWAP1 PUSH2 0x7D4 SWAP1 DUP5 SWAP1 PUSH2 0xFFFF AND PUSH2 0x1C7C JUMP JUMPDEST SWAP3 POP PUSH2 0x100 EXP DUP2 SLOAD DUP2 PUSH2 0xFFFF MUL NOT AND SWAP1 DUP4 PUSH2 0xFFFF AND MUL OR SWAP1 SSTORE POP JUMP JUMPDEST PUSH1 0x0 DUP5 DUP2 MSTORE PUSH1 0x5 PUSH1 0x20 MSTORE PUSH1 0x40 SWAP1 KECCAK256 SLOAD DUP5 SWAP1 PUSH1 0x1 PUSH1 0x1 PUSH1 0xA0 SHL SUB AND CALLER EQ PUSH2 0x869 JUMPI PUSH1 0x40 MLOAD PUSH3 0x461BCD PUSH1 0xE5 SHL DUP2 MSTORE PUSH1 0x20 PUSH1 0x4 DUP3 ADD MSTORE PUSH1 0x28 PUSH1 0x24 DUP3 ADD MSTORE PUSH32 0x536F75726365206D75737420626520746865206F7261636C65206F6620746865 PUSH1 0x44 DUP3 ADD MSTORE PUSH8 0x81C995C5D595CDD PUSH1 0xC2 SHL PUSH1 0x64 DUP3 ADD MSTORE PUSH1 0x84 ADD PUSH2 0x7B1 JUMP JUMPDEST PUSH1 0x0 DUP2 DUP2 MSTORE PUSH1 0x5 PUSH1 0x20 MSTORE PUSH1 0x40 DUP1 DUP3 KECCAK256 DUP1 SLOAD PUSH1 0x1 PUSH1 0x1 PUSH1 0xA0 SHL SUB NOT AND SWAP1 SSTORE MLOAD DUP3 SWAP2 PUSH32 0x7CC135E0CEBB02C3480AE5D74D377283180A2601F8F644EDF7987B009316C63A SWAP2 LOG2 PUSH2 0x8B4 PUSH2 0xBF2 JUMP JUMPDEST PUSH1 0x1 PUSH1 0x1 PUSH1 0xA0 SHL SUB AND CALLER PUSH1 0x1 PUSH1 0x1 PUSH1 0xA0 SHL SUB AND EQ PUSH2 0x91F JUMPI PUSH1 0x40 MLOAD PUSH3 0x461BCD PUSH1 0xE5 SHL DUP2 MSTORE PUSH1 0x20 PUSH1 0x4 DUP3 ADD MSTORE PUSH1 0x22 PUSH1 0x24 DUP3 ADD MSTORE PUSH32 0x4F6E6C79204F7261636C652063616E2063616C6C20746869732066756E637469 PUSH1 0x44 DUP3 ADD MSTORE PUSH2 0x37B7 PUSH1 0xF1 SHL PUSH1 0x64 DUP3 ADD MSTORE PUSH1 0x84 ADD PUSH2 0x7B1 JUMP JUMPDEST DUP4 ISZERO PUSH2 0x92F JUMPI PUSH2 0x92F DUP6 DUP4 PUSH2 0xDC2 JUMP JUMPDEST POP POP POP POP POP JUMP JUMPDEST PUSH1 0x0 PUSH2 0x942 DUP3 DUP5 PUSH2 0x1C9F JUMP JUMPDEST PUSH2 0x94D DUP5 PUSH1 0x64 PUSH2 0x1CC5 JUMP JUMPDEST PUSH2 0x957 SWAP2 SWAP1 PUSH2 0x1D05 JUMP JUMPDEST PUSH1 0x14 DUP1 SLOAD PUSH2 0xFFFF PUSH1 0x60 SHL NOT AND PUSH1 0x1 PUSH1 0x60 SHL PUSH2 0xFFFF SWAP4 DUP5 AND DUP2 MUL SWAP2 SWAP1 SWAP2 OR SWAP2 DUP3 SWAP1 SSTORE PUSH1 0x19 SWAP2 DIV SWAP1 SWAP2 AND LT ISZERO SWAP1 POP PUSH1 0x1 DUP2 EQ ISZERO PUSH2 0x994 JUMPI PUSH2 0x994 PUSH2 0x10C9 JUMP JUMPDEST SWAP3 SWAP2 POP POP JUMP JUMPDEST PUSH1 0xA DUP1 SLOAD PUSH2 0x9A7 SWAP1 PUSH2 0x1C31 JUMP JUMPDEST DUP1 PUSH1 0x1F ADD PUSH1 0x20 DUP1 SWAP2 DIV MUL PUSH1 0x20 ADD PUSH1 0x40 MLOAD SWAP1 DUP2 ADD PUSH1 0x40 MSTORE DUP1 SWAP3 SWAP2 SWAP1 DUP2 DUP2 MSTORE PUSH1 0x20 ADD DUP3 DUP1 SLOAD PUSH2 0x9D3 SWAP1 PUSH2 0x1C31 JUMP JUMPDEST DUP1 ISZERO PUSH2 0xA20 JUMPI DUP1 PUSH1 0x1F LT PUSH2 0x9F5 JUMPI PUSH2 0x100 DUP1 DUP4 SLOAD DIV MUL DUP4 MSTORE SWAP2 PUSH1 0x20 ADD SWAP2 PUSH2 0xA20 JUMP JUMPDEST DUP3 ADD SWAP2 SWAP1 PUSH1 0x0 MSTORE PUSH1 0x20 PUSH1 0x0 KECCAK256 SWAP1 JUMPDEST DUP2 SLOAD DUP2 MSTORE SWAP1 PUSH1 0x1 ADD SWAP1 PUSH1 0x20 ADD DUP1 DUP4 GT PUSH2 0xA03 JUMPI DUP3 SWAP1 SUB PUSH1 0x1F AND DUP3 ADD SWAP2 JUMPDEST POP POP POP POP POP DUP2 JUMP JUMPDEST PUSH1 0x9 DUP1 SLOAD PUSH2 0x9A7 SWAP1 PUSH2 0x1C31 JUMP JUMPDEST PUSH1 0x6 SLOAD PUSH1 0x1 PUSH1 0x1 PUSH1 0xA0 SHL SUB AND CALLER EQ PUSH2 0xA9B JUMPI PUSH1 0x40 MLOAD PUSH3 0x461BCD PUSH1 0xE5 SHL DUP2 MSTORE PUSH1 0x20 PUSH1 0x4 DUP3 ADD MSTORE PUSH1 0x23 PUSH1 0x24 DUP3 ADD MSTORE PUSH32 0x4F6E6C7920696E73757265722063616E2063616C6C20746869732066756E6374 PUSH1 0x44 DUP3 ADD MSTORE PUSH3 0x34B7B7 PUSH1 0xE9 SHL PUSH1 0x64 DUP3 ADD MSTORE PUSH1 0x84 ADD PUSH2 0x7B1 JUMP JUMPDEST PUSH1 0x0 PUSH2 0xAAF PUSH1 0x2 SLOAD PUSH1 0x1 PUSH1 0x1 PUSH1 0xA0 SHL SUB AND SWAP1 JUMP JUMPDEST PUSH1 0x40 MLOAD PUSH4 0x70A08231 PUSH1 0xE0 SHL DUP2 MSTORE ADDRESS PUSH1 0x4 DUP3 ADD MSTORE SWAP1 SWAP2 POP PUSH1 0x1 PUSH1 0x1 PUSH1 0xA0 SHL SUB DUP3 AND SWAP1 PUSH4 0xA9059CBB SWAP1 CALLER SWAP1 DUP4 SWAP1 PUSH4 0x70A08231 SWAP1 PUSH1 0x24 ADD PUSH1 0x20 PUSH1 0x40 MLOAD DUP1 DUP4 SUB DUP2 DUP7 DUP1 EXTCODESIZE ISZERO DUP1 ISZERO PUSH2 0xAFB JUMPI PUSH1 0x0 DUP1 REVERT JUMPDEST POP GAS STATICCALL ISZERO DUP1 ISZERO PUSH2 0xB0F JUMPI RETURNDATASIZE PUSH1 0x0 DUP1 RETURNDATACOPY RETURNDATASIZE PUSH1 0x0 REVERT JUMPDEST POP POP POP POP PUSH1 0x40 MLOAD RETURNDATASIZE PUSH1 0x1F NOT PUSH1 0x1F DUP3 ADD AND DUP3 ADD DUP1 PUSH1 0x40 MSTORE POP DUP2 ADD SWAP1 PUSH2 0xB33 SWAP2 SWAP1 PUSH2 0x1D26 JUMP JUMPDEST PUSH1 0x40 MLOAD PUSH1 0x1 PUSH1 0x1 PUSH1 0xE0 SHL SUB NOT PUSH1 0xE0 DUP6 SWAP1 SHL AND DUP2 MSTORE PUSH1 0x1 PUSH1 0x1 PUSH1 0xA0 SHL SUB SWAP1 SWAP3 AND PUSH1 0x4 DUP4 ADD MSTORE PUSH1 0x24 DUP3 ADD MSTORE PUSH1 0x44 ADD PUSH1 0x20 PUSH1 0x40 MLOAD DUP1 DUP4 SUB DUP2 PUSH1 0x0 DUP8 DUP1 EXTCODESIZE ISZERO DUP1 ISZERO PUSH2 0xB79 JUMPI PUSH1 0x0 DUP1 REVERT JUMPDEST POP GAS CALL ISZERO DUP1 ISZERO PUSH2 0xB8D JUMPI RETURNDATASIZE PUSH1 0x0 DUP1 RETURNDATACOPY RETURNDATASIZE PUSH1 0x0 REVERT JUMPDEST POP POP POP POP PUSH1 0x40 MLOAD RETURNDATASIZE PUSH1 0x1F NOT PUSH1 0x1F DUP3 ADD AND DUP3 ADD DUP1 PUSH1 0x40 MSTORE POP DUP2 ADD SWAP1 PUSH2 0xBB1 SWAP2 SWAP1 PUSH2 0x1D3F JUMP JUMPDEST PUSH2 0x761 JUMPI PUSH1 0x40 MLOAD PUSH3 0x461BCD PUSH1 0xE5 SHL DUP2 MSTORE PUSH1 0x20 PUSH1 0x4 DUP3 ADD MSTORE PUSH1 0x12 PUSH1 0x24 DUP3 ADD MSTORE PUSH18 0x2AB730B13632903A37903A3930B739B332B9 PUSH1 0x71 SHL PUSH1 0x44 DUP3 ADD MSTORE PUSH1 0x64 ADD PUSH2 0x7B1 JUMP JUMPDEST PUSH1 0x0 PUSH2 0xC06 PUSH1 0x3 SLOAD PUSH1 0x1 PUSH1 0x1 PUSH1 0xA0 SHL SUB AND SWAP1 JUMP JUMPDEST SWAP1 POP SWAP1 JUMP JUMPDEST PUSH1 0x14 SLOAD PUSH1 0x8 SLOAD PUSH1 0xC SLOAD PUSH2 0xFFFF DUP1 DUP5 AND SWAP4 TIMESTAMP SWAP4 SWAP3 SWAP2 PUSH3 0x10000 SWAP1 SWAP2 DIV AND DUP1 JUMPDEST DUP1 ISZERO PUSH2 0xC76 JUMPI PUSH2 0xC39 DUP4 DUP6 PUSH2 0x1D5C JUMP JUMPDEST DUP6 GT DUP1 ISZERO PUSH2 0xC57 JUMPI POP PUSH2 0xC50 DUP2 PUSH2 0xFFFF DUP5 AND PUSH2 0x1D74 JUMP JUMPDEST DUP7 PUSH2 0xFFFF AND GT JUMPDEST ISZERO PUSH2 0xC64 JUMPI PUSH2 0xC64 PUSH2 0x1164 JUMP JUMPDEST DUP1 PUSH2 0xC6E DUP2 PUSH2 0x1D8B JUMP JUMPDEST SWAP2 POP POP PUSH2 0xC29 JUMP JUMPDEST POP POP POP POP POP POP JUMP JUMPDEST PUSH1 0x8 SLOAD PUSH1 0xC SLOAD PUSH2 0xC8E SWAP2 SWAP1 PUSH2 0x1D5C JUMP JUMPDEST TIMESTAMP LT ISZERO PUSH2 0xCAE JUMPI PUSH1 0x40 MLOAD PUSH4 0x2777FB15 PUSH1 0xE1 SHL DUP2 MSTORE PUSH1 0x4 ADD PUSH1 0x40 MLOAD DUP1 SWAP2 SUB SWAP1 REVERT JUMPDEST PUSH2 0xCB6 PUSH2 0x119D JUMP JUMPDEST JUMP JUMPDEST PUSH1 0x0 PUSH2 0xCCE PUSH1 0xD SLOAD ADDRESS PUSH4 0x371EACED PUSH1 0xE0 SHL PUSH2 0x12FE JUMP JUMPDEST SWAP1 POP PUSH2 0xD3A PUSH1 0x40 MLOAD DUP1 PUSH1 0x40 ADD PUSH1 0x40 MSTORE DUP1 PUSH1 0x8 DUP2 MSTORE PUSH1 0x20 ADD PUSH8 0x195B991C1BDA5B9D PUSH1 0xC2 SHL DUP2 MSTORE POP PUSH1 0x40 MLOAD DUP1 PUSH1 0x40 ADD PUSH1 0x40 MSTORE DUP1 PUSH1 0x1B DUP2 MSTORE PUSH1 0x20 ADD PUSH32 0x6C6F636174696F6E2D63757272656E742D636F6E646974696F6E730000000000 DUP2 MSTORE POP DUP4 PUSH2 0x1323 SWAP1 SWAP3 SWAP2 SWAP1 PUSH4 0xFFFFFFFF AND JUMP JUMPDEST PUSH1 0x40 DUP1 MLOAD DUP1 DUP3 ADD SWAP1 SWAP2 MSTORE PUSH1 0x3 DUP2 MSTORE PUSH3 0x1B185D PUSH1 0xEA SHL PUSH1 0x20 DUP3 ADD MSTORE PUSH2 0xD60 SWAP1 DUP3 SWAP1 DUP7 PUSH2 0x1323 JUMP JUMPDEST PUSH1 0x40 DUP1 MLOAD DUP1 DUP3 ADD SWAP1 SWAP2 MSTORE PUSH1 0x3 DUP2 MSTORE PUSH3 0x3637B7 PUSH1 0xE9 SHL PUSH1 0x20 DUP3 ADD MSTORE PUSH2 0xD86 SWAP1 DUP3 SWAP1 DUP6 PUSH2 0x1323 JUMP JUMPDEST PUSH1 0x40 DUP1 MLOAD DUP1 DUP3 ADD SWAP1 SWAP2 MSTORE PUSH1 0x5 DUP2 MSTORE PUSH5 0x756E697473 PUSH1 0xD8 SHL PUSH1 0x20 DUP3 ADD MSTORE PUSH2 0xDAE SWAP1 DUP3 SWAP1 DUP5 PUSH2 0x1323 JUMP JUMPDEST PUSH2 0xDB8 DUP2 DUP7 PUSH2 0x1341 JUMP JUMPDEST PUSH1 0x12 SSTORE POP POP POP POP POP JUMP JUMPDEST PUSH1 0x0 DUP2 DUP1 PUSH1 0x20 ADD SWAP1 MLOAD DUP2 ADD SWAP1 PUSH2 0xDD8 SWAP2 SWAP1 PUSH2 0x1DE8 JUMP JUMPDEST SWAP1 POP DUP1 PUSH1 0x15 PUSH1 0x0 DUP6 DUP2 MSTORE PUSH1 0x20 ADD SWAP1 DUP2 MSTORE PUSH1 0x20 ADD PUSH1 0x0 KECCAK256 PUSH1 0x0 DUP3 ADD MLOAD DUP2 PUSH1 0x0 ADD SSTORE PUSH1 0x20 DUP3 ADD MLOAD DUP2 PUSH1 0x1 ADD PUSH1 0x0 PUSH2 0x100 EXP DUP2 SLOAD DUP2 PUSH3 0xFFFFFF MUL NOT AND SWAP1 DUP4 PUSH3 0xFFFFFF AND MUL OR SWAP1 SSTORE POP PUSH1 0x40 DUP3 ADD MLOAD DUP2 PUSH1 0x1 ADD PUSH1 0x3 PUSH2 0x100 EXP DUP2 SLOAD DUP2 PUSH3 0xFFFFFF MUL NOT AND SWAP1 DUP4 PUSH3 0xFFFFFF AND MUL OR SWAP1 SSTORE POP PUSH1 0x60 DUP3 ADD MLOAD DUP2 PUSH1 0x1 ADD PUSH1 0x6 PUSH2 0x100 EXP DUP2 SLOAD DUP2 PUSH3 0xFFFFFF MUL NOT AND SWAP1 DUP4 PUSH3 0xFFFFFF AND MUL OR SWAP1 SSTORE POP PUSH1 0x80 DUP3 ADD MLOAD DUP2 PUSH1 0x1 ADD PUSH1 0x9 PUSH2 0x100 EXP DUP2 SLOAD DUP2 PUSH3 0xFFFFFF MUL NOT AND SWAP1 DUP4 PUSH3 0xFFFFFF AND MUL OR SWAP1 SSTORE POP PUSH1 0xA0 DUP3 ADD MLOAD DUP2 PUSH1 0x1 ADD PUSH1 0xC PUSH2 0x100 EXP DUP2 SLOAD DUP2 PUSH2 0xFFFF MUL NOT AND SWAP1 DUP4 PUSH1 0x1 SIGNEXTEND PUSH2 0xFFFF AND MUL OR SWAP1 SSTORE POP PUSH1 0xC0 DUP3 ADD MLOAD DUP2 PUSH1 0x1 ADD PUSH1 0xE PUSH2 0x100 EXP DUP2 SLOAD DUP2 PUSH2 0xFFFF MUL NOT AND SWAP1 DUP4 PUSH2 0xFFFF AND MUL OR SWAP1 SSTORE POP PUSH1 0xE0 DUP3 ADD MLOAD DUP2 PUSH1 0x1 ADD PUSH1 0x10 PUSH2 0x100 EXP DUP2 SLOAD DUP2 PUSH2 0xFFFF MUL NOT AND SWAP1 DUP4 PUSH2 0xFFFF AND MUL OR SWAP1 SSTORE POP PUSH2 0x100 DUP3 ADD MLOAD DUP2 PUSH1 0x1 ADD PUSH1 0x12 PUSH2 0x100 EXP DUP2 SLOAD DUP2 PUSH1 0xFF MUL NOT AND SWAP1 DUP4 PUSH1 0xFF AND MUL OR SWAP1 SSTORE POP PUSH2 0x120 DUP3 ADD MLOAD DUP2 PUSH1 0x1 ADD PUSH1 0x13 PUSH2 0x100 EXP DUP2 SLOAD DUP2 PUSH1 0xFF MUL NOT AND SWAP1 DUP4 PUSH1 0xFF AND MUL OR SWAP1 SSTORE POP PUSH2 0x140 DUP3 ADD MLOAD DUP2 PUSH1 0x1 ADD PUSH1 0x14 PUSH2 0x100 EXP DUP2 SLOAD DUP2 PUSH1 0xFF MUL NOT AND SWAP1 DUP4 PUSH1 0xFF AND MUL OR SWAP1 SSTORE POP PUSH2 0x160 DUP3 ADD MLOAD DUP2 PUSH1 0x1 ADD PUSH1 0x15 PUSH2 0x100 EXP DUP2 SLOAD DUP2 PUSH1 0xFF MUL NOT AND SWAP1 DUP4 PUSH1 0xFF AND MUL OR SWAP1 SSTORE POP SWAP1 POP POP DUP1 PUSH1 0xE0 ADD MLOAD PUSH1 0x14 PUSH1 0x6 PUSH2 0x100 EXP DUP2 SLOAD DUP2 PUSH2 0xFFFF MUL NOT AND SWAP1 DUP4 PUSH2 0xFFFF AND MUL OR SWAP1 SSTORE POP PUSH1 0x11 PUSH1 0x0 DUP2 SLOAD DUP1 SWAP3 SWAP2 SWAP1 PUSH2 0xFB7 SWAP1 PUSH2 0x1ECD JUMP JUMPDEST SWAP1 SWAP2 SSTORE POP POP PUSH1 0x14 DUP1 SLOAD PUSH5 0x100000000 SWAP1 DIV PUSH2 0xFFFF AND SWAP1 PUSH1 0x4 PUSH2 0xFD8 DUP4 PUSH2 0x1EE8 JUMP JUMPDEST SWAP2 SWAP1 PUSH2 0x100 EXP DUP2 SLOAD DUP2 PUSH2 0xFFFF MUL NOT AND SWAP1 DUP4 PUSH2 0xFFFF AND MUL OR SWAP1 SSTORE POP POP PUSH1 0xFA PUSH1 0x14 PUSH1 0x6 SWAP1 SLOAD SWAP1 PUSH2 0x100 EXP SWAP1 DIV PUSH2 0xFFFF AND PUSH2 0xFFFF AND LT ISZERO PUSH2 0x104B JUMPI PUSH1 0x14 DUP1 SLOAD PUSH1 0x1 PUSH1 0x50 SHL SWAP1 DIV PUSH2 0xFFFF AND SWAP1 PUSH1 0xA PUSH2 0x102B DUP4 PUSH2 0x1EE8 JUMP JUMPDEST SWAP2 SWAP1 PUSH2 0x100 EXP DUP2 SLOAD DUP2 PUSH2 0xFFFF MUL NOT AND SWAP1 DUP4 PUSH2 0xFFFF AND MUL OR SWAP1 SSTORE POP POP PUSH2 0x1082 JUMP JUMPDEST PUSH1 0x14 DUP1 SLOAD PUSH1 0x1 PUSH1 0x40 SHL SWAP1 DIV PUSH2 0xFFFF AND SWAP1 PUSH1 0x8 PUSH2 0x1066 DUP4 PUSH2 0x1EE8 JUMP JUMPDEST SWAP2 SWAP1 PUSH2 0x100 EXP DUP2 SLOAD DUP2 PUSH2 0xFFFF MUL NOT AND SWAP1 DUP4 PUSH2 0xFFFF AND MUL OR SWAP1 SSTORE POP POP JUMPDEST PUSH1 0x14 SLOAD PUSH1 0x5F PUSH5 0x100000000 SWAP1 SWAP2 DIV PUSH2 0xFFFF AND GT ISZERO PUSH2 0x10C4 JUMPI PUSH1 0x14 SLOAD PUSH2 0x10BB SWAP1 PUSH2 0xFFFF PUSH1 0x1 PUSH1 0x50 SHL DUP3 DIV DUP2 AND SWAP2 PUSH1 0x1 PUSH1 0x40 SHL SWAP1 DIV AND PUSH2 0x936 JUMP JUMPDEST POP PUSH2 0x10C4 PUSH2 0x1362 JUMP JUMPDEST POP POP POP JUMP JUMPDEST PUSH1 0x10 SLOAD PUSH1 0xFF AND PUSH2 0x10EB JUMPI PUSH1 0x40 MLOAD PUSH3 0x461BCD PUSH1 0xE5 SHL DUP2 MSTORE PUSH1 0x4 ADD PUSH2 0x7B1 SWAP1 PUSH2 0x1F0A JUMP JUMPDEST PUSH1 0x14 SLOAD PUSH1 0xF SLOAD PUSH1 0x0 SWAP2 PUSH2 0x1109 SWAP2 PUSH3 0x10000 SWAP1 SWAP2 DIV PUSH2 0xFFFF AND SWAP1 PUSH2 0x1F37 JUMP JUMPDEST PUSH1 0x7 SLOAD PUSH1 0x40 MLOAD SWAP2 SWAP3 POP PUSH1 0x1 PUSH1 0x1 PUSH1 0xA0 SHL SUB AND SWAP1 DUP3 ISZERO PUSH2 0x8FC MUL SWAP1 DUP4 SWAP1 PUSH1 0x0 DUP2 DUP2 DUP2 DUP6 DUP9 DUP9 CALL SWAP4 POP POP POP POP ISZERO DUP1 ISZERO PUSH2 0x1144 JUMPI RETURNDATASIZE PUSH1 0x0 DUP1 RETURNDATACOPY RETURNDATASIZE PUSH1 0x0 REVERT JUMPDEST POP PUSH1 0xC SLOAD PUSH1 0x8 SLOAD PUSH2 0x1155 SWAP2 SWAP1 PUSH2 0x1D5C JUMP JUMPDEST TIMESTAMP GT ISZERO PUSH2 0x761 JUMPI PUSH2 0x761 PUSH2 0x119D JUMP JUMPDEST PUSH1 0x6 SLOAD PUSH1 0x40 MLOAD PUSH1 0x1 PUSH1 0x1 PUSH1 0xA0 SHL SUB SWAP1 SWAP2 AND SWAP1 SELFBALANCE DUP1 ISZERO PUSH2 0x8FC MUL SWAP2 PUSH1 0x0 DUP2 DUP2 DUP2 DUP6 DUP9 DUP9 CALL SWAP4 POP POP POP POP ISZERO DUP1 ISZERO PUSH2 0x761 JUMPI RETURNDATASIZE PUSH1 0x0 DUP1 RETURNDATACOPY RETURNDATASIZE PUSH1 0x0 REVERT JUMPDEST PUSH1 0x10 SLOAD PUSH1 0xFF AND PUSH2 0x11BF JUMPI PUSH1 0x40 MLOAD PUSH3 0x461BCD PUSH1 0xE5 SHL DUP2 MSTORE PUSH1 0x4 ADD PUSH2 0x7B1 SWAP1 PUSH2 0x1F0A JUMP JUMPDEST PUSH1 0xC SLOAD PUSH1 0x8 SLOAD PUSH2 0x11CF SWAP2 SWAP1 PUSH2 0x1D5C JUMP JUMPDEST TIMESTAMP GT PUSH2 0x11DA JUMPI PUSH1 0x0 DUP1 REVERT JUMPDEST PUSH1 0xA PUSH3 0x15180 PUSH1 0x8 SLOAD PUSH1 0x18 PUSH2 0x11EF SWAP2 SWAP1 PUSH2 0x1F4B JUMP JUMPDEST PUSH2 0x11FA SWAP1 PUSH1 0x4 PUSH2 0x1F4B JUMP JUMPDEST PUSH2 0x1204 SWAP2 SWAP1 PUSH2 0x1F37 JUMP JUMPDEST PUSH2 0x120E SWAP2 SWAP1 PUSH2 0x1D74 JUMP JUMPDEST PUSH1 0x11 SLOAD LT PUSH2 0x1255 JUMPI PUSH1 0x6 SLOAD PUSH1 0x40 MLOAD PUSH1 0x1 PUSH1 0x1 PUSH1 0xA0 SHL SUB SWAP1 SWAP2 AND SWAP1 SELFBALANCE DUP1 ISZERO PUSH2 0x8FC MUL SWAP2 PUSH1 0x0 DUP2 DUP2 DUP2 DUP6 DUP9 DUP9 CALL SWAP4 POP POP POP POP ISZERO DUP1 ISZERO PUSH2 0x124F JUMPI RETURNDATASIZE PUSH1 0x0 DUP1 RETURNDATACOPY RETURNDATASIZE PUSH1 0x0 REVERT JUMPDEST POP PUSH2 0x12F2 JUMP JUMPDEST PUSH1 0x7 SLOAD PUSH1 0x14 SLOAD PUSH1 0xB SLOAD PUSH1 0x1 PUSH1 0x1 PUSH1 0xA0 SHL SUB SWAP1 SWAP3 AND SWAP2 PUSH2 0x8FC SWAP2 PUSH2 0x1283 SWAP2 PUSH3 0x10000 SWAP1 SWAP2 DIV PUSH2 0xFFFF AND SWAP1 PUSH2 0x1F4B JUMP JUMPDEST PUSH2 0x128E SWAP1 PUSH1 0x2 PUSH2 0x1F4B JUMP JUMPDEST PUSH1 0x40 MLOAD DUP2 ISZERO SWAP1 SWAP3 MUL SWAP2 PUSH1 0x0 DUP2 DUP2 DUP2 DUP6 DUP9 DUP9 CALL SWAP4 POP POP POP POP ISZERO DUP1 ISZERO PUSH2 0x12B6 JUMPI RETURNDATASIZE PUSH1 0x0 DUP1 RETURNDATACOPY RETURNDATASIZE PUSH1 0x0 REVERT JUMPDEST POP PUSH1 0x6 SLOAD PUSH1 0x40 MLOAD PUSH1 0x1 PUSH1 0x1 PUSH1 0xA0 SHL SUB SWAP1 SWAP2 AND SWAP1 SELFBALANCE DUP1 ISZERO PUSH2 0x8FC MUL SWAP2 PUSH1 0x0 DUP2 DUP2 DUP2 DUP6 DUP9 DUP9 CALL SWAP4 POP POP POP POP ISZERO DUP1 ISZERO PUSH2 0x12F0 JUMPI RETURNDATASIZE PUSH1 0x0 DUP1 RETURNDATACOPY RETURNDATASIZE PUSH1 0x0 REVERT JUMPDEST POP JUMPDEST PUSH1 0x10 DUP1 SLOAD PUSH1 0xFF NOT AND SWAP1 SSTORE JUMP JUMPDEST PUSH2 0x1306 PUSH2 0x19D9 JUMP JUMPDEST PUSH2 0x130E PUSH2 0x19D9 JUMP JUMPDEST PUSH2 0x131A DUP2 DUP7 DUP7 DUP7 PUSH2 0x139B JUMP JUMPDEST SWAP6 SWAP5 POP POP POP POP POP JUMP JUMPDEST PUSH1 0x80 DUP4 ADD MLOAD PUSH2 0x1332 SWAP1 DUP4 PUSH2 0x13E1 JUMP JUMPDEST PUSH1 0x80 DUP4 ADD MLOAD PUSH2 0x10C4 SWAP1 DUP3 PUSH2 0x13E1 JUMP JUMPDEST PUSH1 0x3 SLOAD PUSH1 0x0 SWAP1 PUSH2 0x135B SWAP1 PUSH1 0x1 PUSH1 0x1 PUSH1 0xA0 SHL SUB AND DUP5 DUP5 PUSH2 0x13F8 JUMP JUMPDEST SWAP4 SWAP3 POP POP POP JUMP JUMPDEST PUSH1 0x10 SLOAD PUSH1 0xFF AND PUSH2 0x1384 JUMPI PUSH1 0x40 MLOAD PUSH3 0x461BCD PUSH1 0xE5 SHL DUP2 MSTORE PUSH1 0x4 ADD PUSH2 0x7B1 SWAP1 PUSH2 0x1F0A JUMP JUMPDEST PUSH1 0x14 DUP1 SLOAD PUSH12 0xFFFFFFFF0000FFFF00000000 NOT AND SWAP1 SSTORE JUMP JUMPDEST PUSH2 0x13A3 PUSH2 0x19D9 JUMP JUMPDEST PUSH2 0x13B3 DUP6 PUSH1 0x80 ADD MLOAD PUSH2 0x100 PUSH2 0x148B JUMP JUMPDEST POP POP DUP3 DUP5 MSTORE PUSH1 0x1 PUSH1 0x1 PUSH1 0xA0 SHL SUB DUP3 AND PUSH1 0x20 DUP6 ADD MSTORE PUSH1 0x1 PUSH1 0x1 PUSH1 0xE0 SHL SUB NOT DUP2 AND PUSH1 0x40 DUP6 ADD MSTORE DUP4 JUMPDEST SWAP5 SWAP4 POP POP POP POP JUMP JUMPDEST PUSH2 0x13EE DUP3 PUSH1 0x3 DUP4 MLOAD PUSH2 0x14F0 JUMP JUMPDEST PUSH2 0x10C4 DUP3 DUP3 PUSH2 0x1605 JUMP JUMPDEST PUSH1 0x4 SLOAD PUSH1 0x0 SWAP1 PUSH2 0x1409 DUP2 PUSH1 0x1 PUSH2 0x1D5C JUMP JUMPDEST PUSH1 0x4 SSTORE DUP4 MLOAD PUSH1 0x40 DUP1 DUP7 ADD MLOAD PUSH1 0x80 DUP8 ADD MLOAD MLOAD SWAP2 MLOAD PUSH1 0x0 SWAP4 PUSH4 0x20214CA3 PUSH1 0xE1 SHL SWAP4 PUSH2 0x1441 SWAP4 DUP7 SWAP4 DUP5 SWAP4 SWAP3 ADDRESS SWAP3 SWAP2 DUP11 SWAP2 PUSH1 0x1 SWAP2 PUSH1 0x24 ADD PUSH2 0x1F6A JUMP JUMPDEST PUSH1 0x40 DUP1 MLOAD PUSH1 0x1F NOT DUP2 DUP5 SUB ADD DUP2 MSTORE SWAP2 SWAP1 MSTORE PUSH1 0x20 DUP2 ADD DUP1 MLOAD PUSH1 0x1 PUSH1 0x1 PUSH1 0xE0 SHL SUB AND PUSH1 0x1 PUSH1 0x1 PUSH1 0xE0 SHL SUB NOT SWAP1 SWAP4 AND SWAP3 SWAP1 SWAP3 OR SWAP1 SWAP2 MSTORE SWAP1 POP PUSH2 0x1481 DUP7 DUP4 DUP7 DUP5 PUSH2 0x162C JUMP JUMPDEST SWAP7 SWAP6 POP POP POP POP POP POP JUMP JUMPDEST PUSH1 0x40 DUP1 MLOAD DUP1 DUP3 ADD SWAP1 SWAP2 MSTORE PUSH1 0x60 DUP2 MSTORE PUSH1 0x0 PUSH1 0x20 DUP3 ADD MSTORE PUSH2 0x14AB PUSH1 0x20 DUP4 PUSH2 0x1FD2 JUMP JUMPDEST ISZERO PUSH2 0x14D3 JUMPI PUSH2 0x14BB PUSH1 0x20 DUP4 PUSH2 0x1FD2 JUMP JUMPDEST PUSH2 0x14C6 SWAP1 PUSH1 0x20 PUSH2 0x1D74 JUMP JUMPDEST PUSH2 0x14D0 SWAP1 DUP4 PUSH2 0x1D5C JUMP JUMPDEST SWAP2 POP JUMPDEST POP PUSH1 0x20 DUP3 DUP2 ADD DUP3 SWAP1 MSTORE PUSH1 0x40 DUP1 MLOAD DUP1 DUP6 MSTORE PUSH1 0x0 DUP2 MSTORE SWAP1 SWAP3 ADD ADD SWAP1 MSTORE SWAP1 JUMP JUMPDEST PUSH1 0x17 DUP2 PUSH8 0xFFFFFFFFFFFFFFFF AND GT PUSH2 0x151B JUMPI PUSH2 0x1515 DUP4 PUSH1 0xE0 PUSH1 0x5 DUP6 SWAP1 SHL AND DUP4 OR PUSH2 0x1799 JUMP JUMPDEST POP POP POP POP JUMP JUMPDEST PUSH1 0xFF DUP2 PUSH8 0xFFFFFFFFFFFFFFFF AND GT PUSH2 0x1559 JUMPI PUSH2 0x1542 DUP4 PUSH1 0x18 PUSH2 0x1FE0 PUSH1 0x5 DUP7 SWAP1 SHL AND OR PUSH2 0x1799 JUMP JUMPDEST POP PUSH2 0x1515 DUP4 PUSH8 0xFFFFFFFFFFFFFFFF DUP4 AND PUSH1 0x1 PUSH2 0x17BE JUMP JUMPDEST PUSH2 0xFFFF DUP2 PUSH8 0xFFFFFFFFFFFFFFFF AND GT PUSH2 0x1598 JUMPI PUSH2 0x1581 DUP4 PUSH1 0x19 PUSH2 0x1FE0 PUSH1 0x5 DUP7 SWAP1 SHL AND OR PUSH2 0x1799 JUMP JUMPDEST POP PUSH2 0x1515 DUP4 PUSH8 0xFFFFFFFFFFFFFFFF DUP4 AND PUSH1 0x2 PUSH2 0x17BE JUMP JUMPDEST PUSH4 0xFFFFFFFF DUP2 PUSH8 0xFFFFFFFFFFFFFFFF AND GT PUSH2 0x15D9 JUMPI PUSH2 0x15C2 DUP4 PUSH1 0x1A PUSH2 0x1FE0 PUSH1 0x5 DUP7 SWAP1 SHL AND OR PUSH2 0x1799 JUMP JUMPDEST POP PUSH2 0x1515 DUP4 PUSH8 0xFFFFFFFFFFFFFFFF DUP4 AND PUSH1 0x4 PUSH2 0x17BE JUMP JUMPDEST PUSH2 0x15EE DUP4 PUSH1 0x1B PUSH2 0x1FE0 PUSH1 0x5 DUP7 SWAP1 SHL AND OR PUSH2 0x1799 JUMP JUMPDEST POP PUSH2 0x1515 DUP4 PUSH8 0xFFFFFFFFFFFFFFFF DUP4 AND PUSH1 0x8 PUSH2 0x17BE JUMP JUMPDEST PUSH1 0x40 DUP1 MLOAD DUP1 DUP3 ADD SWAP1 SWAP2 MSTORE PUSH1 0x60 DUP2 MSTORE PUSH1 0x0 PUSH1 0x20 DUP3 ADD MSTORE PUSH2 0x135B DUP4 DUP5 PUSH1 0x0 ADD MLOAD MLOAD DUP5 DUP6 MLOAD PUSH2 0x17E4 JUMP JUMPDEST PUSH1 0x40 MLOAD PUSH12 0xFFFFFFFFFFFFFFFFFFFFFFFF NOT ADDRESS PUSH1 0x60 SHL AND PUSH1 0x20 DUP3 ADD MSTORE PUSH1 0x34 DUP2 ADD DUP5 SWAP1 MSTORE PUSH1 0x0 SWAP1 PUSH1 0x54 ADD PUSH1 0x40 DUP1 MLOAD DUP1 DUP4 SUB PUSH1 0x1F NOT ADD DUP2 MSTORE DUP3 DUP3 MSTORE DUP1 MLOAD PUSH1 0x20 SWAP2 DUP3 ADD KECCAK256 PUSH1 0x0 DUP2 DUP2 MSTORE PUSH1 0x5 SWAP1 SWAP3 MSTORE SWAP2 DUP2 KECCAK256 DUP1 SLOAD PUSH1 0x1 PUSH1 0x1 PUSH1 0xA0 SHL SUB NOT AND PUSH1 0x1 PUSH1 0x1 PUSH1 0xA0 SHL SUB DUP11 AND OR SWAP1 SSTORE SWAP1 SWAP3 POP DUP3 SWAP2 PUSH32 0xB5E6E01E79F91267DC17B4E6314D5D4D03593D2CEEE0FBB452B750BD70EA5AF9 SWAP2 SWAP1 LOG2 PUSH1 0x2 SLOAD PUSH1 0x40 MLOAD PUSH4 0x2000575 PUSH1 0xE5 SHL DUP2 MSTORE PUSH1 0x1 PUSH1 0x1 PUSH1 0xA0 SHL SUB SWAP1 SWAP2 AND SWAP1 PUSH4 0x4000AEA0 SWAP1 PUSH2 0x16EF SWAP1 DUP9 SWAP1 DUP8 SWAP1 DUP8 SWAP1 PUSH1 0x4 ADD PUSH2 0x1FE6 JUMP JUMPDEST PUSH1 0x20 PUSH1 0x40 MLOAD DUP1 DUP4 SUB DUP2 PUSH1 0x0 DUP8 DUP1 EXTCODESIZE ISZERO DUP1 ISZERO PUSH2 0x1709 JUMPI PUSH1 0x0 DUP1 REVERT JUMPDEST POP GAS CALL ISZERO DUP1 ISZERO PUSH2 0x171D JUMPI RETURNDATASIZE PUSH1 0x0 DUP1 RETURNDATACOPY RETURNDATASIZE PUSH1 0x0 REVERT JUMPDEST POP POP POP POP PUSH1 0x40 MLOAD RETURNDATASIZE PUSH1 0x1F NOT PUSH1 0x1F DUP3 ADD AND DUP3 ADD DUP1 PUSH1 0x40 MSTORE POP DUP2 ADD SWAP1 PUSH2 0x1741 SWAP2 SWAP1 PUSH2 0x1D3F JUMP JUMPDEST PUSH2 0x13D9 JUMPI PUSH1 0x40 MLOAD PUSH3 0x461BCD PUSH1 0xE5 SHL DUP2 MSTORE PUSH1 0x20 PUSH1 0x4 DUP3 ADD MSTORE PUSH1 0x23 PUSH1 0x24 DUP3 ADD MSTORE PUSH32 0x756E61626C6520746F207472616E73666572416E6443616C6C20746F206F7261 PUSH1 0x44 DUP3 ADD MSTORE PUSH3 0x636C65 PUSH1 0xE8 SHL PUSH1 0x64 DUP3 ADD MSTORE PUSH1 0x84 ADD PUSH2 0x7B1 JUMP JUMPDEST PUSH1 0x40 DUP1 MLOAD DUP1 DUP3 ADD SWAP1 SWAP2 MSTORE PUSH1 0x60 DUP2 MSTORE PUSH1 0x0 PUSH1 0x20 DUP3 ADD MSTORE PUSH2 0x135B DUP4 DUP5 PUSH1 0x0 ADD MLOAD MLOAD DUP5 PUSH2 0x18CE JUMP JUMPDEST PUSH1 0x40 DUP1 MLOAD DUP1 DUP3 ADD SWAP1 SWAP2 MSTORE PUSH1 0x60 DUP2 MSTORE PUSH1 0x0 PUSH1 0x20 DUP3 ADD MSTORE PUSH2 0x13D9 DUP5 DUP6 PUSH1 0x0 ADD MLOAD MLOAD DUP6 DUP6 PUSH2 0x192A JUMP JUMPDEST PUSH1 0x40 DUP1 MLOAD DUP1 DUP3 ADD SWAP1 SWAP2 MSTORE PUSH1 0x60 DUP2 MSTORE PUSH1 0x0 PUSH1 0x20 DUP3 ADD MSTORE DUP3 MLOAD DUP3 GT ISZERO PUSH2 0x1807 JUMPI PUSH1 0x0 DUP1 REVERT JUMPDEST PUSH1 0x20 DUP6 ADD MLOAD PUSH2 0x1816 DUP4 DUP7 PUSH2 0x1D5C JUMP JUMPDEST GT ISZERO PUSH2 0x1849 JUMPI PUSH2 0x1849 DUP6 PUSH2 0x1839 DUP8 PUSH1 0x20 ADD MLOAD DUP8 DUP7 PUSH2 0x1834 SWAP2 SWAP1 PUSH2 0x1D5C JUMP JUMPDEST PUSH2 0x19AB JUMP JUMPDEST PUSH2 0x1844 SWAP1 PUSH1 0x2 PUSH2 0x1F4B JUMP JUMPDEST PUSH2 0x19C2 JUMP JUMPDEST PUSH1 0x0 DUP1 DUP7 MLOAD DUP1 MLOAD DUP8 PUSH1 0x20 DUP4 ADD ADD SWAP4 POP DUP1 DUP9 DUP8 ADD GT ISZERO PUSH2 0x1868 JUMPI DUP8 DUP7 ADD DUP3 MSTORE JUMPDEST POP POP POP PUSH1 0x20 DUP5 ADD JUMPDEST PUSH1 0x20 DUP5 LT PUSH2 0x18A8 JUMPI DUP1 MLOAD DUP3 MSTORE PUSH2 0x1887 PUSH1 0x20 DUP4 PUSH2 0x1D5C JUMP JUMPDEST SWAP2 POP PUSH2 0x1894 PUSH1 0x20 DUP3 PUSH2 0x1D5C JUMP JUMPDEST SWAP1 POP PUSH2 0x18A1 PUSH1 0x20 DUP6 PUSH2 0x1D74 JUMP JUMPDEST SWAP4 POP PUSH2 0x1870 JUMP JUMPDEST MLOAD DUP2 MLOAD PUSH1 0x0 NOT PUSH1 0x20 DUP7 SWAP1 SUB PUSH2 0x100 EXP ADD SWAP1 DUP2 AND SWAP1 NOT SWAP2 SWAP1 SWAP2 AND OR SWAP1 MSTORE POP DUP4 SWAP5 SWAP4 POP POP POP POP JUMP JUMPDEST PUSH1 0x40 DUP1 MLOAD DUP1 DUP3 ADD SWAP1 SWAP2 MSTORE PUSH1 0x60 DUP2 MSTORE PUSH1 0x0 PUSH1 0x20 DUP3 ADD MSTORE DUP4 PUSH1 0x20 ADD MLOAD DUP4 LT PUSH2 0x1903 JUMPI PUSH2 0x1903 DUP5 DUP6 PUSH1 0x20 ADD MLOAD PUSH1 0x2 PUSH2 0x1844 SWAP2 SWAP1 PUSH2 0x1F4B JUMP JUMPDEST DUP4 MLOAD DUP1 MLOAD PUSH1 0x20 DUP6 DUP4 ADD ADD DUP5 DUP2 MSTORE8 POP DUP1 DUP6 EQ ISZERO PUSH2 0x1920 JUMPI PUSH1 0x1 DUP2 ADD DUP3 MSTORE JUMPDEST POP SWAP4 SWAP5 SWAP4 POP POP POP POP JUMP JUMPDEST PUSH1 0x40 DUP1 MLOAD DUP1 DUP3 ADD SWAP1 SWAP2 MSTORE PUSH1 0x60 DUP2 MSTORE PUSH1 0x0 PUSH1 0x20 DUP3 ADD MSTORE PUSH1 0x20 DUP6 ADD MLOAD PUSH2 0x194E DUP6 DUP5 PUSH2 0x1D5C JUMP JUMPDEST GT ISZERO PUSH2 0x1962 JUMPI PUSH2 0x1962 DUP6 PUSH2 0x1839 DUP7 DUP6 PUSH2 0x1D5C JUMP JUMPDEST PUSH1 0x0 PUSH1 0x1 PUSH2 0x1972 DUP5 PUSH2 0x100 PUSH2 0x20F1 JUMP JUMPDEST PUSH2 0x197C SWAP2 SWAP1 PUSH2 0x1D74 JUMP JUMPDEST SWAP1 POP DUP6 MLOAD DUP4 DUP7 DUP3 ADD ADD DUP6 DUP4 NOT DUP3 MLOAD AND OR DUP2 MSTORE POP DUP1 MLOAD DUP5 DUP8 ADD GT ISZERO PUSH2 0x19A0 JUMPI DUP4 DUP7 ADD DUP2 MSTORE JUMPDEST POP SWAP5 SWAP6 SWAP5 POP POP POP POP POP JUMP JUMPDEST PUSH1 0x0 DUP2 DUP4 GT ISZERO PUSH2 0x19BC JUMPI POP DUP2 PUSH2 0x994 JUMP JUMPDEST POP SWAP2 SWAP1 POP JUMP JUMPDEST DUP2 MLOAD PUSH2 0x19CE DUP4 DUP4 PUSH2 0x148B JUMP JUMPDEST POP PUSH2 0x1515 DUP4 DUP3 PUSH2 0x1605 JUMP JUMPDEST PUSH1 0x40 DUP1 MLOAD PUSH1 0xA0 DUP2 ADD DUP3 MSTORE PUSH1 0x0 DUP1 DUP3 MSTORE PUSH1 0x20 DUP1 DUP4 ADD DUP3 SWAP1 MSTORE DUP3 DUP5 ADD DUP3 SWAP1 MSTORE PUSH1 0x60 DUP1 DUP5 ADD DUP4 SWAP1 MSTORE DUP5 MLOAD DUP1 DUP7 ADD SWAP1 SWAP6 MSTORE DUP5 MSTORE DUP4 ADD MSTORE SWAP1 PUSH1 0x80 DUP3 ADD MSTORE SWAP1 JUMP JUMPDEST DUP1 ISZERO ISZERO DUP2 EQ PUSH2 0x761 JUMPI PUSH1 0x0 DUP1 REVERT JUMPDEST PUSH4 0x4E487B71 PUSH1 0xE0 SHL PUSH1 0x0 MSTORE PUSH1 0x41 PUSH1 0x4 MSTORE PUSH1 0x24 PUSH1 0x0 REVERT JUMPDEST PUSH1 0x40 MLOAD PUSH2 0x180 DUP2 ADD PUSH8 0xFFFFFFFFFFFFFFFF DUP2 GT DUP3 DUP3 LT OR ISZERO PUSH2 0x1A5C JUMPI PUSH2 0x1A5C PUSH2 0x1A22 JUMP JUMPDEST PUSH1 0x40 MSTORE SWAP1 JUMP JUMPDEST PUSH1 0x0 DUP3 PUSH1 0x1F DUP4 ADD SLT PUSH2 0x1A73 JUMPI PUSH1 0x0 DUP1 REVERT JUMPDEST DUP2 CALLDATALOAD PUSH8 0xFFFFFFFFFFFFFFFF DUP1 DUP3 GT ISZERO PUSH2 0x1A8E JUMPI PUSH2 0x1A8E PUSH2 0x1A22 JUMP JUMPDEST PUSH1 0x40 MLOAD PUSH1 0x1F DUP4 ADD PUSH1 0x1F NOT SWAP1 DUP2 AND PUSH1 0x3F ADD AND DUP2 ADD SWAP1 DUP3 DUP3 GT DUP2 DUP4 LT OR ISZERO PUSH2 0x1AB6 JUMPI PUSH2 0x1AB6 PUSH2 0x1A22 JUMP JUMPDEST DUP2 PUSH1 0x40 MSTORE DUP4 DUP2 MSTORE DUP7 PUSH1 0x20 DUP6 DUP9 ADD ADD GT ISZERO PUSH2 0x1ACF JUMPI PUSH1 0x0 DUP1 REVERT JUMPDEST DUP4 PUSH1 0x20 DUP8 ADD PUSH1 0x20 DUP4 ADD CALLDATACOPY PUSH1 0x0 PUSH1 0x20 DUP6 DUP4 ADD ADD MSTORE DUP1 SWAP5 POP POP POP POP POP SWAP3 SWAP2 POP POP JUMP JUMPDEST PUSH1 0x0 DUP1 PUSH1 0x0 DUP1 PUSH1 0x80 DUP6 DUP8 SUB SLT ISZERO PUSH2 0x1B05 JUMPI PUSH1 0x0 DUP1 REVERT JUMPDEST DUP5 CALLDATALOAD SWAP4 POP PUSH1 0x20 DUP6 ADD CALLDATALOAD PUSH2 0x1B17 DUP2 PUSH2 0x1A14 JUMP JUMPDEST SWAP3 POP PUSH1 0x40 DUP6 ADD CALLDATALOAD PUSH8 0xFFFFFFFFFFFFFFFF DUP1 DUP3 GT ISZERO PUSH2 0x1B34 JUMPI PUSH1 0x0 DUP1 REVERT JUMPDEST PUSH2 0x1B40 DUP9 DUP4 DUP10 ADD PUSH2 0x1A62 JUMP JUMPDEST SWAP4 POP PUSH1 0x60 DUP8 ADD CALLDATALOAD SWAP2 POP DUP1 DUP3 GT ISZERO PUSH2 0x1B56 JUMPI PUSH1 0x0 DUP1 REVERT JUMPDEST POP PUSH2 0x1B63 DUP8 DUP3 DUP9 ADD PUSH2 0x1A62 JUMP JUMPDEST SWAP2 POP POP SWAP3 SWAP6 SWAP2 SWAP5 POP SWAP3 POP JUMP JUMPDEST PUSH1 0x0 PUSH1 0x20 DUP3 DUP5 SUB SLT ISZERO PUSH2 0x1B81 JUMPI PUSH1 0x0 DUP1 REVERT JUMPDEST POP CALLDATALOAD SWAP2 SWAP1 POP JUMP JUMPDEST PUSH2 0xFFFF DUP2 AND DUP2 EQ PUSH2 0x761 JUMPI PUSH1 0x0 DUP1 REVERT JUMPDEST PUSH1 0x0 DUP1 PUSH1 0x40 DUP4 DUP6 SUB SLT ISZERO PUSH2 0x1BAB JUMPI PUSH1 0x0 DUP1 REVERT JUMPDEST DUP3 CALLDATALOAD PUSH2 0x1BB6 DUP2 PUSH2 0x1B88 JUMP JUMPDEST SWAP2 POP PUSH1 0x20 DUP4 ADD CALLDATALOAD PUSH2 0x1BC6 DUP2 PUSH2 0x1B88 JUMP JUMPDEST DUP1 SWAP2 POP POP SWAP3 POP SWAP3 SWAP1 POP JUMP JUMPDEST PUSH1 0x0 DUP2 MLOAD DUP1 DUP5 MSTORE PUSH1 0x0 JUMPDEST DUP2 DUP2 LT ISZERO PUSH2 0x1BF7 JUMPI PUSH1 0x20 DUP2 DUP6 ADD DUP2 ADD MLOAD DUP7 DUP4 ADD DUP3 ADD MSTORE ADD PUSH2 0x1BDB JUMP JUMPDEST DUP2 DUP2 GT ISZERO PUSH2 0x1C09 JUMPI PUSH1 0x0 PUSH1 0x20 DUP4 DUP8 ADD ADD MSTORE JUMPDEST POP PUSH1 0x1F ADD PUSH1 0x1F NOT AND SWAP3 SWAP1 SWAP3 ADD PUSH1 0x20 ADD SWAP3 SWAP2 POP POP JUMP JUMPDEST PUSH1 0x20 DUP2 MSTORE PUSH1 0x0 PUSH2 0x135B PUSH1 0x20 DUP4 ADD DUP5 PUSH2 0x1BD1 JUMP JUMPDEST PUSH1 0x1 DUP2 DUP2 SHR SWAP1 DUP3 AND DUP1 PUSH2 0x1C45 JUMPI PUSH1 0x7F DUP3 AND SWAP2 POP JUMPDEST PUSH1 0x20 DUP3 LT DUP2 EQ ISZERO PUSH2 0x19BC JUMPI PUSH4 0x4E487B71 PUSH1 0xE0 SHL PUSH1 0x0 MSTORE PUSH1 0x22 PUSH1 0x4 MSTORE PUSH1 0x24 PUSH1 0x0 REVERT JUMPDEST PUSH4 0x4E487B71 PUSH1 0xE0 SHL PUSH1 0x0 MSTORE PUSH1 0x11 PUSH1 0x4 MSTORE PUSH1 0x24 PUSH1 0x0 REVERT JUMPDEST PUSH1 0x0 PUSH2 0xFFFF DUP4 DUP2 AND SWAP1 DUP4 AND DUP2 DUP2 LT ISZERO PUSH2 0x1C97 JUMPI PUSH2 0x1C97 PUSH2 0x1C66 JUMP JUMPDEST SUB SWAP4 SWAP3 POP POP POP JUMP JUMPDEST PUSH1 0x0 PUSH2 0xFFFF DUP1 DUP4 AND DUP2 DUP6 AND DUP1 DUP4 SUB DUP3 GT ISZERO PUSH2 0x1CBC JUMPI PUSH2 0x1CBC PUSH2 0x1C66 JUMP JUMPDEST ADD SWAP5 SWAP4 POP POP POP POP JUMP JUMPDEST PUSH1 0x0 PUSH2 0xFFFF DUP1 DUP4 AND DUP2 DUP6 AND DUP2 DUP4 DIV DUP2 GT DUP3 ISZERO ISZERO AND ISZERO PUSH2 0x1CE6 JUMPI PUSH2 0x1CE6 PUSH2 0x1C66 JUMP JUMPDEST MUL SWAP5 SWAP4 POP POP POP POP JUMP JUMPDEST PUSH4 0x4E487B71 PUSH1 0xE0 SHL PUSH1 0x0 MSTORE PUSH1 0x12 PUSH1 0x4 MSTORE PUSH1 0x24 PUSH1 0x0 REVERT JUMPDEST PUSH1 0x0 PUSH2 0xFFFF DUP1 DUP5 AND DUP1 PUSH2 0x1D1A JUMPI PUSH2 0x1D1A PUSH2 0x1CEF JUMP JUMPDEST SWAP3 AND SWAP2 SWAP1 SWAP2 DIV SWAP3 SWAP2 POP POP JUMP JUMPDEST PUSH1 0x0 PUSH1 0x20 DUP3 DUP5 SUB SLT ISZERO PUSH2 0x1D38 JUMPI PUSH1 0x0 DUP1 REVERT JUMPDEST POP MLOAD SWAP2 SWAP1 POP JUMP JUMPDEST PUSH1 0x0 PUSH1 0x20 DUP3 DUP5 SUB SLT ISZERO PUSH2 0x1D51 JUMPI PUSH1 0x0 DUP1 REVERT JUMPDEST DUP2 MLOAD PUSH2 0x135B DUP2 PUSH2 0x1A14 JUMP JUMPDEST PUSH1 0x0 DUP3 NOT DUP3 GT ISZERO PUSH2 0x1D6F JUMPI PUSH2 0x1D6F PUSH2 0x1C66 JUMP JUMPDEST POP ADD SWAP1 JUMP JUMPDEST PUSH1 0x0 DUP3 DUP3 LT ISZERO PUSH2 0x1D86 JUMPI PUSH2 0x1D86 PUSH2 0x1C66 JUMP JUMPDEST POP SUB SWAP1 JUMP JUMPDEST PUSH1 0x0 DUP2 PUSH2 0x1D9A JUMPI PUSH2 0x1D9A PUSH2 0x1C66 JUMP JUMPDEST POP PUSH1 0x0 NOT ADD SWAP1 JUMP JUMPDEST DUP1 MLOAD PUSH3 0xFFFFFF DUP2 AND DUP2 EQ PUSH2 0x1DB5 JUMPI PUSH1 0x0 DUP1 REVERT JUMPDEST SWAP2 SWAP1 POP JUMP JUMPDEST DUP1 MLOAD PUSH1 0x1 DUP2 SWAP1 SIGNEXTEND DUP2 EQ PUSH2 0x1DB5 JUMPI PUSH1 0x0 DUP1 REVERT JUMPDEST DUP1 MLOAD PUSH2 0x1DB5 DUP2 PUSH2 0x1B88 JUMP JUMPDEST DUP1 MLOAD PUSH1 0xFF DUP2 AND DUP2 EQ PUSH2 0x1DB5 JUMPI PUSH1 0x0 DUP1 REVERT JUMPDEST PUSH1 0x0 PUSH2 0x180 DUP3 DUP5 SUB SLT ISZERO PUSH2 0x1DFB JUMPI PUSH1 0x0 DUP1 REVERT JUMPDEST PUSH2 0x1E03 PUSH2 0x1A38 JUMP JUMPDEST DUP3 MLOAD DUP2 MSTORE PUSH2 0x1E13 PUSH1 0x20 DUP5 ADD PUSH2 0x1DA2 JUMP JUMPDEST PUSH1 0x20 DUP3 ADD MSTORE PUSH2 0x1E24 PUSH1 0x40 DUP5 ADD PUSH2 0x1DA2 JUMP JUMPDEST PUSH1 0x40 DUP3 ADD MSTORE PUSH2 0x1E35 PUSH1 0x60 DUP5 ADD PUSH2 0x1DA2 JUMP JUMPDEST PUSH1 0x60 DUP3 ADD MSTORE PUSH2 0x1E46 PUSH1 0x80 DUP5 ADD PUSH2 0x1DA2 JUMP JUMPDEST PUSH1 0x80 DUP3 ADD MSTORE PUSH2 0x1E57 PUSH1 0xA0 DUP5 ADD PUSH2 0x1DBA JUMP JUMPDEST PUSH1 0xA0 DUP3 ADD MSTORE PUSH2 0x1E68 PUSH1 0xC0 DUP5 ADD PUSH2 0x1DCC JUMP JUMPDEST PUSH1 0xC0 DUP3 ADD MSTORE PUSH2 0x1E79 PUSH1 0xE0 DUP5 ADD PUSH2 0x1DCC JUMP JUMPDEST PUSH1 0xE0 DUP3 ADD MSTORE PUSH2 0x100 PUSH2 0x1E8C DUP2 DUP6 ADD PUSH2 0x1DD7 JUMP JUMPDEST SWAP1 DUP3 ADD MSTORE PUSH2 0x120 PUSH2 0x1E9E DUP5 DUP3 ADD PUSH2 0x1DD7 JUMP JUMPDEST SWAP1 DUP3 ADD MSTORE PUSH2 0x140 PUSH2 0x1EB0 DUP5 DUP3 ADD PUSH2 0x1DD7 JUMP JUMPDEST SWAP1 DUP3 ADD MSTORE PUSH2 0x160 PUSH2 0x1EC2 DUP5 DUP3 ADD PUSH2 0x1DD7 JUMP JUMPDEST SWAP1 DUP3 ADD MSTORE SWAP4 SWAP3 POP POP POP JUMP JUMPDEST PUSH1 0x0 PUSH1 0x0 NOT DUP3 EQ ISZERO PUSH2 0x1EE1 JUMPI PUSH2 0x1EE1 PUSH2 0x1C66 JUMP JUMPDEST POP PUSH1 0x1 ADD SWAP1 JUMP JUMPDEST PUSH1 0x0 PUSH2 0xFFFF DUP1 DUP4 AND DUP2 DUP2 EQ ISZERO PUSH2 0x1F00 JUMPI PUSH2 0x1F00 PUSH2 0x1C66 JUMP JUMPDEST PUSH1 0x1 ADD SWAP4 SWAP3 POP POP POP JUMP JUMPDEST PUSH1 0x20 DUP1 DUP3 MSTORE PUSH1 0x13 SWAP1 DUP3 ADD MSTORE PUSH19 0x436F6E7472616374206E6F7420616374697665 PUSH1 0x68 SHL PUSH1 0x40 DUP3 ADD MSTORE PUSH1 0x60 ADD SWAP1 JUMP JUMPDEST PUSH1 0x0 DUP3 PUSH2 0x1F46 JUMPI PUSH2 0x1F46 PUSH2 0x1CEF JUMP JUMPDEST POP DIV SWAP1 JUMP JUMPDEST PUSH1 0x0 DUP2 PUSH1 0x0 NOT DIV DUP4 GT DUP3 ISZERO ISZERO AND ISZERO PUSH2 0x1F65 JUMPI PUSH2 0x1F65 PUSH2 0x1C66 JUMP JUMPDEST POP MUL SWAP1 JUMP JUMPDEST PUSH1 0x1 PUSH1 0x1 PUSH1 0xA0 SHL SUB DUP10 DUP2 AND DUP3 MSTORE PUSH1 0x20 DUP3 ADD DUP10 SWAP1 MSTORE PUSH1 0x40 DUP3 ADD DUP9 SWAP1 MSTORE DUP7 AND PUSH1 0x60 DUP3 ADD MSTORE PUSH1 0x1 PUSH1 0x1 PUSH1 0xE0 SHL SUB NOT DUP6 AND PUSH1 0x80 DUP3 ADD MSTORE PUSH1 0xA0 DUP2 ADD DUP5 SWAP1 MSTORE PUSH1 0xC0 DUP2 ADD DUP4 SWAP1 MSTORE PUSH2 0x100 PUSH1 0xE0 DUP3 ADD DUP2 SWAP1 MSTORE PUSH1 0x0 SWAP1 PUSH2 0x1FC3 DUP4 DUP3 ADD DUP6 PUSH2 0x1BD1 JUMP JUMPDEST SWAP12 SWAP11 POP POP POP POP POP POP POP POP POP POP POP JUMP JUMPDEST PUSH1 0x0 DUP3 PUSH2 0x1FE1 JUMPI PUSH2 0x1FE1 PUSH2 0x1CEF JUMP JUMPDEST POP MOD SWAP1 JUMP JUMPDEST PUSH1 0x1 DUP1 PUSH1 0xA0 SHL SUB DUP5 AND DUP2 MSTORE DUP3 PUSH1 0x20 DUP3 ADD MSTORE PUSH1 0x60 PUSH1 0x40 DUP3 ADD MSTORE PUSH1 0x0 PUSH2 0x131A PUSH1 0x60 DUP4 ADD DUP5 PUSH2 0x1BD1 JUMP JUMPDEST PUSH1 0x1 DUP2 DUP2 JUMPDEST DUP1 DUP6 GT ISZERO PUSH2 0x2048 JUMPI DUP2 PUSH1 0x0 NOT DIV DUP3 GT ISZERO PUSH2 0x202E JUMPI PUSH2 0x202E PUSH2 0x1C66 JUMP JUMPDEST DUP1 DUP6 AND ISZERO PUSH2 0x203B JUMPI SWAP2 DUP2 MUL SWAP2 JUMPDEST SWAP4 DUP5 SHR SWAP4 SWAP1 DUP1 MUL SWAP1 PUSH2 0x2012 JUMP JUMPDEST POP SWAP3 POP SWAP3 SWAP1 POP JUMP JUMPDEST PUSH1 0x0 DUP3 PUSH2 0x205F JUMPI POP PUSH1 0x1 PUSH2 0x994 JUMP JUMPDEST DUP2 PUSH2 0x206C JUMPI POP PUSH1 0x0 PUSH2 0x994 JUMP JUMPDEST DUP2 PUSH1 0x1 DUP2 EQ PUSH2 0x2082 JUMPI PUSH1 0x2 DUP2 EQ PUSH2 0x208C JUMPI PUSH2 0x20A8 JUMP JUMPDEST PUSH1 0x1 SWAP2 POP POP PUSH2 0x994 JUMP JUMPDEST PUSH1 0xFF DUP5 GT ISZERO PUSH2 0x209D JUMPI PUSH2 0x209D PUSH2 0x1C66 JUMP JUMPDEST POP POP PUSH1 0x1 DUP3 SHL PUSH2 0x994 JUMP JUMPDEST POP PUSH1 0x20 DUP4 LT PUSH2 0x133 DUP4 LT AND PUSH1 0x4E DUP5 LT PUSH1 0xB DUP5 LT AND OR ISZERO PUSH2 0x20CB JUMPI POP DUP2 DUP2 EXP PUSH2 0x994 JUMP JUMPDEST PUSH2 0x20D5 DUP4 DUP4 PUSH2 0x200D JUMP JUMPDEST DUP1 PUSH1 0x0 NOT DIV DUP3 GT ISZERO PUSH2 0x20E9 JUMPI PUSH2 0x20E9 PUSH2 0x1C66 JUMP JUMPDEST MUL SWAP4 SWAP3 POP POP POP JUMP JUMPDEST PUSH1 0x0 PUSH2 0x135B DUP4 DUP4 PUSH2 0x2050 JUMP INVALID LOG2 PUSH5 0x6970667358 0x22 SLT KECCAK256 PUSH27 0xC0EB6BB4F73E8AF624D1C72C3E17F892B7486ABA289046018410F3 0xD0 0xE9 SGT 0xB1 PUSH5 0x736F6C6343 STOP ADDMOD MULMOD STOP CALLER CALLDATACOPY PUSH4 0x32373639 CODESIZE CALLDATASIZE PUSH6 0x323362346231 PUSH4 0x39393064 CODESIZE CALLDATASIZE CALLDATALOAD CODECOPY PUSH3 0x636137 PUSH2 0x3964 ADDRESS LOG2 PUSH5 0x6970667358 0x22 SLT KECCAK256 0xA8 0x2A 0xDE SSTORE 0xD7 0xDD TIMESTAMP STOP 0xF6 PUSH18 0x7726855523AB0CEC5B8519772B39076FE621 MUL 0xBC SWAP14 SAR PUSH5 0x736F6C6343 STOP ADDMOD MULMOD STOP CALLER ","sha1":"24b267cfe70e5f11c91bdb1d1ce0e9383a728980","source":"// SPDX-License-Identifier: MIT\n\npragma solidity ^0.8.7;\n\nimport \"./InsureWindFarm.sol\";\n\ncontract DeployNewWindFarmPolicy {\n    address[] public insurancePolicies;\n    mapping(address => address[]) public insurerOwnership;\n    mapping(address => address[]) public clientOwnership;\n\n    function newWindFarm(\n        address _link,\n        address _oracle,\n        uint _amount,\n        address _client,\n        uint16 _days,\n        string memory _lat,\n        string memory _lon\n    ) external payable {\n        InsureWindFarm newFarm = (new InsureWindFarm){value: _amount}(\n            _link,\n            _oracle,\n            _amount,\n            _client,\n            msg.sender,\n            _days,\n            _lat,\n            _lon\n        );\n        address policyAddress = address(newFarm);\n        insurancePolicies.push(policyAddress);\n        insurerOwnership[msg.sender].push(policyAddress);\n        clientOwnership[_client].push(policyAddress);\n    }\n\n    function getInsurancePolicies() public view returns (address[] memory) {\n        return insurancePolicies;\n    }\n\n    function updateStateOfAllContracts() external {\n        for (uint i = 0; i < insurancePolicies.length; i++) {\n            InsureWindFarm policy = InsureWindFarm(insurancePolicies[i]);\n            policy.updateState();\n        }\n    }\n\n    function expiryCheckOfAllContracts() external {\n        for (uint i = 0; i < insurancePolicies.length; i++) {\n            InsureWindFarm policy = InsureWindFarm(insurancePolicies[i]);\n            policy.expiryCheck();\n        }\n    }\n\n    function getInsurerPolicies() public view returns (address[] memory) {\n        return insurerOwnership[msg.sender];\n    }\n\n    function getClientPolicies() public view returns (address[] memory) {\n        return clientOwnership[msg.sender];\n    }\n}\n","sourcePath":"contracts/DeployNewWindFarmPolicy.sol","type":"contract","deployment":{"address":"0xa484e3C87B39137fE051E439EDf738Eba5d478Ac","chainid":"420","blockHeight":7948221}}